:020000040000FA
:0400000007EF00F016
:0A00080069826CED0AF0D3EF11F0ED
:10100000003738392F3435362A3132332D23303DED
:051010002B2569000022
:101016004150800B0101996F415041249B6F40AEB6
:1010260017EF08F019EF08F01AEF08F09B819B51B3
:10103600D8B420EF08F022EF08F037EF08F09B292C
:10104600D8A428EF08F02AEF08F032EF08F0000ED7
:101056003E6E000E3F6E000E406E000E416E408EDC
:10106600000E416E3FEF08F0000E3E6E000E3F6E22
:10107600000E406E000E416E4550800B9A6F9951DE
:101086009A19D8B449EF08F04BEF08F04CEF08F086
:10109600998D455045249A6F44AE54EF08F056EFAB
:1010A60008F057EF08F09A819A51D8B45DEF08F02E
:1010B6005FEF08F074EF08F09A29D8A465EF08F0FE
:1010C60067EF08F06FEF08F0000E426E000E436EF9
:1010D600000E446E000E456E448E000E456E7CEF8B
:1010E60008F0000E426E000E436E000E446E000EB7
:1010F600456E9B519A5DD8B083EF08F085EF08F0F6
:10110600ACEF08F099AD8AEF08F08CEF08F08EEF9F
:1011160008F0800E991B9BC19CF19AC19BF19CC162
:101126009AF13EC09CF142C03EF09CC142F03FC0E5
:101136009CF143C03FF09CC143F040C09CF144C0C9
:1011460040F09CC144F041C09CF145C041F09CC1B7
:1011560045F0000E9C6F9B519AC195F1966B955F79
:10116600000E965B96BFC1EF08F0965109E11A0E84
:10117600955DD8A0C1EF08F0C3EF08F0FAEF08F0CC
:101186003E503F1040104110D8A4CCEF08F0CFEFEE
:1011960008F0010ED0EF08F0000E9C6F000E3E6EB8
:1011A600000E3F6E000E406E000E416E9AC19BF11E
:1011B60003EF09F09CA1E2EF08F0E4EF08F0EAEF94
:1011C60008F0D8909C3101099C6FECEF08F0D8909C
:1011D6009C333EA0F1EF08F0F3EF08F0F4EF08F0CF
:1011E6009C8F4134413240323F323E329B2B9A51E2
:1011F6009B5DD8A001EF09F003EF09F0DDEF08F0E1
:1012060099BD08EF09F00AEF09F04AEF09F09B5182
:10121600D8A410EF09F012EF09F01CEF09F0000E48
:101226003E6E000E3F6E000E406E000E416E6BEF7E
:101236000AF042503E2643503F2244504022455039
:10124600412241A029EF09F02BEF09F0D7EF09F071
:101256009CA130EF09F032EF09F038EF09F0D89091
:101266009C3101099C6F3AEF09F0D8909C333EA05F
:101276003FEF09F041EF09F042EF09F09C8F41344E
:10128600413240323F323E329B2BD7EF09F042507B
:101296003E5C43503F58445040584150800A956F39
:1012A6004550800A9559D8B05BEF09F05DEF09F01B
:1012B60088EF09F03E50425C956F3F504358966F59
:1012C60040504458976F41504558986FFF0E9525EA
:1012D6003E6EFF0E96213F6EFF0E9721406EFF0E6B
:1012E6009821416E800E991B9C6D9C51D8A47EEF6F
:1012F60009F080EF09F090EF09F0010E3E26000E8E
:101306003F224022412290EF09F042503E5E435078
:101316003F5A4450405A4550415A3E503F104010A3
:101326004110D8A499EF09F09BEF09F0D0EF09F02E
:101336009C51D8A4A1EF09F0A3EF09F0D0EF09F072
:10134600000E3E6E000E3F6E000E406E000E416EA9
:101356006BEF0AF0D8903E363F36403641369CAFAA
:10136600B7EF09F0B9EF09F0BAEF09F03E809CA19A
:10137600BFEF09F0C1EF09F0C5EF09F0D8809C373F
:10138600C7EF09F0D8909C379B51D8B4CDEF09F040
:10139600CFEF09F0D0EF09F09B0740AED5EF09F08B
:1013A600D7EF09F0ADEF09F0000E9A6F9CAFDEEFB4
:1013B60009F0E0EF09F0F8EF09F09CC195F17F0E16
:1013C6009517D8B4E9EF09F0EBEF09F0EFEF09F064
:1013D600010E9A6FF8EF09F03EA0F4EF09F0F6EF70
:1013E60009F0F8EF09F0EBEF09F09A51D8B4FEEFE7
:1013F60009F000EF0AF02BEF0AF0010E3E26000E70
:101406003F224022412241A00BEF0AF00DEF0AF0E5
:101416002BEF0AF03EC095F13FC096F140C097F120
:1014260041C098F19835983397339633953395C1E3
:101436003EF096C13FF097C140F098C141F09B291C
:10144600D8B428EF0AF02AEF0AF02BEF0AF09B2B0C
:101456009B29D8B431EF0AF033EF0AF03BEF0AF0DC
:101466009B51D8A439EF0AF03BEF0AF04DEF0AF092
:10147600000E3E6E000E3F6E000E406E000E416E78
:101486009B51D8A449EF0AF04BEF0AF04DEF0AF052
:10149600000E996F9BA152EF0AF054EF0AF057EF36
:1014A6000AF0408E58EF0AF0409ED8909B31416E6C
:1014B60099AF60EF0AF062EF0AF063EF0AF0418E2F
:1014C6003EC03EF03FC03FF040C040F041C041F05A
:1014D60012000600FACF11F0FBCF12F0D9CF13F0AD
:1014E600DACF14F0F3CF15F0F4CF16F0F2A87EEFB2
:1014F6000AF080EF0AF089EF0AF0F2A285EF0AF00F
:1015060087EF0AF089EF0AF0C2EC15F0F0A68EEF2D
:101516000AF090EF0AF099EF0AF0F0A095EF0AF0C2
:1015260097EF0AF099EF0AF0AAEC15F0F0A89EEFF3
:101536000AF0A0EF0AF0A9EF0AF0F0A2A5EF0AF070
:10154600A7EF0AF0A9EF0AF0AAEC15F09DACAEEFF2
:101556000AF0B0EF0AF0B9EF0AF09EACB5EF0AF068
:10156600B7EF0AF0B9EF0AF064EC16F0F2A6BEEF98
:101576000AF0C0EF0AF0DBEF0AF0F2A0C5EF0AF0BE
:10158600C7EF0AF0DBEF0AF081A8CCEF0AF0CEEF46
:101596000AF0DBEF0AF06704D8A4D4EF0AF0D6EF1E
:1015A6000AF0DBEF0AF0000E676E010E20EC13F076
:1015B600F2A6E0EF0AF0E2EF0AF0FDEF0AF0F2A081
:1015C600E7EF0AF0E9EF0AF0FDEF0AF081B8EEEF77
:1015D6000AF0F0EF0AF0FDEF0AF06750D8A4F6EF34
:1015E6000AF0F8EF0AF0FDEF0AF0010E676E000E42
:1015F60020EC13F0F2A602EF0BF004EF0BF01FEF56
:101606000BF0F2A009EF0BF00BEF0BF01FEF0BF056
:1016160081AA10EF0BF012EF0BF01FEF0BF0660430
:10162600D8A418EF0BF01AEF0BF01FEF0BF0000E1B
:10163600666E010EDFEC12F0F2A624EF0BF026EF39
:101646000BF041EF0BF0F2A02BEF0BF02DEF0BF0B0
:1016560041EF0BF081BA32EF0BF034EF0BF041EFB4
:101666000BF06650D8A43AEF0BF03CEF0BF041EFCD
:101676000BF0010E666E000EDFEC12F0F2A646EFDE
:101686000BF048EF0BF063EF0BF0F2A04DEF0BF011
:101696004FEF0BF063EF0BF081AC54EF0BF056EF0E
:1016A6000BF063EF0BF06504D8A45CEF0BF05EEF74
:1016B6000BF063EF0BF0000E656E010E9EEC12F060
:1016C600F2A668EF0BF06AEF0BF085EF0BF0F2A0D5
:1016D6006FEF0BF071EF0BF085EF0BF081BC76EF3F
:1016E6000BF078EF0BF085EF0BF06550D8A47EEF8A
:1016F6000BF080EF0BF085EF0BF0010E656E000E20
:101706009EEC12F0F2A68AEF0BF08CEF0BF0A7EF2F
:101716000BF0F2A091EF0BF093EF0BF0A7EF0BF0AD
:1017260081AE98EF0BF09AEF0BF0A7EF0BF0640485
:10173600D8A4A0EF0BF0A2EF0BF0A7EF0BF0000E72
:10174600646E010E5DEC12F0F2A6ACEF0BF0AEEF9C
:101756000BF0C9EF0BF0F2A0B3EF0BF0B5EF0BF007
:10176600C9EF0BF081BEBAEF0BF0BCEF0BF0C9EF7F
:101776000BF06450D8A4C2EF0BF0C4EF0BF0C9EF26
:101786000BF0010E646E000E5DEC12F0F2AACEEFC5
:101796000BF0D0EF0BF0D9EF0BF0F2A4D5EF0BF076
:1017A600D7EF0BF0D9EF0BF074EC15F09DA0DEEF40
:1017B6000BF0E0EF0BF0E9EF0BF09EA0E5EF0BF07E
:1017C600E7EF0BF0E9EF0BF058EC15F09DA2EEEF0A
:1017D6000BF0F0EF0BF0F9EF0BF09EA2F5EF0BF02C
:1017E600F7EF0BF0F9EF0BF090EC15F0A0A2FEEF7F
:1017F6000BF000EF0CF009EF0CF0A1A205EF0CF0D6
:1018060007EF0CF009EF0CF0F2EC15F09DA40EEFCB
:101816000CF010EF0CF019EF0CF09EA415EF0CF085
:1018260017EF0CF019EF0CF0DAEC15F0A0A01EEF94
:101836000CF020EF0CF029EF0CF0A1A025EF0CF036
:1018460027EF0CF029EF0CF062EC16F09DAA2EEFB4
:101856000CF030EF0CF039EF0CF09EAA35EF0CF0DF
:1018660037EF0CF039EF0CF05DEC16F09DA83EEF6B
:101876000CF040EF0CF049EF0CF09EA845EF0CF091
:1018860047EF0CF049EF0CF060EC16F09DA64EEF1A
:101896000CF050EF0CF059EF0CF09EA655EF0CF043
:1018A60057EF0CF059EF0CF067EC16F0A0A65EEFC0
:1018B6000CF060EF0CF069EF0CF0A1A665EF0CF0F0
:1018C60067EF0CF069EF0CF068EC16F016C0F4FF49
:1018D60015C0F3FF14C0DAFF13C0D9FF12C0FBFF17
:1018E60011C0FAFF699211002850800B356E2850FE
:1018F60028243C6E27AE82EF0CF084EF0CF085EFC7
:101906000CF03C803C50D8B48BEF0CF08DEF0CF013
:10191600A2EF0CF03C28D8A493EF0CF095EF0CF056
:101926009DEF0CF0000E256E000E266E000E276E43
:10193600000E286E278E000E286EAAEF0CF0000E01
:10194600256E000E266E000E276E000E286E2C5099
:10195600800B351A2C502C243D6E2BAEB5EF0CF0B7
:10196600B7EF0CF0B8EF0CF03D803D50D8B4BEEFA9
:101976000CF0C0EF0CF0D5EF0CF03D28D8A4C6EF64
:101986000CF0C8EF0CF0D0EF0CF0000E296E000E34
:101996002A6E000E2B6E000E2C6E2B8E000E2C6EF9
:1019A600DDEF0CF0000E296E000E2A6E000E2B6E77
:1019B600000E2C6E29502A102B102C10D8A4E6EFFE
:1019C6000CF0E8EF0CF000EF0DF0000E256E000EA7
:1019D600266E000E276E000E286E800E27127F0ED2
:1019E60028123550281225C025F026C026F027C01B
:1019F60027F028C028F043EF0EF03C50D8A406EF9D
:101A06000DF008EF0DF012EF0DF0000E256E000E32
:101A1600266E000E276E000E286E43EF0EF03D5028
:101A26003CC02DF02E6A2D5E000E2E5A7F0E2D2400
:101A3600366E000E2E20376E25C031F026C032F0ED
:101A460027C033F028C034F0000E256E000E266E37
:101A5600000E276E000E286E000E386E000E396ED0
:101A6600000E3A6E000E3B6E000E3D6E73EF0DF0EB
:101A76003D50D8B441EF0DF043EF0DF05AEF0DF0A5
:101A8600D8903136323633363436D8902536263627
:101A9600273628363BAE52EF0DF054EF0DF055EFDA
:101AA6000DF02580D890383639363A363B362950EF
:101AB600315C2A5032582B5033582C503458D8A009
:101AC60067EF0DF069EF0DF072EF0DF03B8C2950CA
:101AD600315E2A50325A2B50335A2C50345A3D2AF2
:101AE600190E3D6479EF0DF07BEF0DF03BEF0DF035
:101AF6003150321033103410D8B484EF0DF086EF25
:101B06000DF09EEF0DF038809EEF0DF0D890253643
:101B16002636273628363BAE93EF0DF095EF0DF0BF
:101B260096EF0DF02580D890383639363A363B3662
:101B36003606D8A0370627AEA3EF0DF0A5EF0DF0B9
:101B460089EF0DF0000E3D6E3BAEACEF0DF0AEEF43
:101B56000DF0D2EF0DF0FF0E38142D6EFF0E391476
:101B66002E6EFF0E3A142F6E7F0E3B14306E2D50E4
:101B76002E102F103010D8B4C3EF0DF0C5EF0DF0B6
:101B8600C9EF0DF0010E3D6ED2EF0DF025A0CEEFA0
:101B96000DF0D0EF0DF0D2EF0DF0C5EF0DF03D508A
:101BA600D8B4D8EF0DF0DAEF0DF0FEEF0DF0010E20
:101BB6002526000E26222722282228A0E5EF0DF052
:101BC600E7EF0DF0FEEF0DF025C02DF026C02EF04C
:101BD60027C02FF028C030F0303430322F322E326A
:101BE6002D322DC025F02EC026F02FC027F030C094
:101BF60028F0364A372A37BE09EF0EF0375008E18B
:101C06003628D8A009EF0EF00BEF0EF016EF0EF007
:101C1600000E376E3668000E256E000E266E000E1C
:101C2600276E000E286E37BE23EF0EF0375006E102
:101C36003604D8B021EF0EF023EF0EF031EF0EF0A0
:101C4600000E376E000E366E000E256E000E266EE6
:101C5600000E276E000E286E000E356E36C03CF064
:101C66003CA038EF0EF03AEF0EF03DEF0EF0278E67
:101C76003EEF0EF0279ED8903C30286EF4EF0CF025
:101C86001200010E486E0101A551A611D8A44EEF0F
:101C96000EF050EF0EF054EF0EF0000E486E35EFDA
:101CA6000FF0C68A20EE04F0A551D926A651DA22F5
:101CB600DFA060EF0EF062EF0EF0B3EF0EF020EE55
:101CC60002F0A551D926A651DA22DF50A76FC650D9
:101CD600A719F00BA719C66E000E426E000E436ED2
:101CE600800E446EBF0E456EA5C1D9FFA6C1DAFFB0
:101CF600DECFA7F1DDCFA8F1A7C117F0A8C118F074
:101D0600196A1A6A000E37EC0FF017C029F018C0CE
:101D16002AF019C02BF01AC02CF0000E256E240EE6
:101D2600266EF40E276E490E286E77EC0CF025C051
:101D36003EF026C03FF027C040F028C041F00BEC33
:101D460008F03EC09DF13FC09EF140C09FF141C0EA
:101D5600A0F1A7EC10F001019D51C86EF6EF0EF050
:101D660020EE04F0A551D926A651DA22DFB0BEEF47
:101D76000EF0C0EF0EF0F6EF0EF020EE04F0A551D7
:101D8600D926A651DA22DFA6CBEF0EF0CDEF0EF064
:101D9600D0EF0EF0C58EDEEF0EF020EE04F0A5516A
:101DA600D926A651DA22DFB6DBEF0EF0DDEF0EF014
:101DB600DEEF0EF0C59EC69EC69CC68820EE03F0DA
:101DC600A551D926A651DA22DF50C86E20EE02F0C0
:101DD600A551D926A651DA22DF50A76FC650A719FA
:101DE600F00BA719C66E9486948820EE04F0A551D0
:101DF600D926A651DA22DFA203EF0FF005EF0FF086
:101E060008EF0FF0C78E16EF0FF020EE04F0A55185
:101E1600D926A651DA22DFB213EF0FF015EF0FF035
:101E260016EF0FF0C79E20EE04F0A551D926A65155
:101E3600DA22DFA221EF0FF023EF0FF026EF0FF0EB
:101E4600C78E34EF0FF020EE04F0A551D926A65127
:101E5600DA22DFB231EF0FF033EF0FF034EF0FF08D
:101E6600C79EC68A485012001F6E1F50D8B43EEF58
:101E76000FF040EF0FF062EF0FF01ABE47EF0FF0D2
:101E860045EF0FF062EF0FF017C01BF018C01CF003
:101E960019C01DF01AC01EF01B1E1C1E1D1E1E1E84
:101EA6001B2A000E1C221D221E221BC021F01CC054
:101EB60022F01DC023F01EC024F06AEF0FF017C0F9
:101EC60021F018C022F019C023F01AC024F01750D0
:101ED600181019101A10D8A473EF0FF075EF0FF041
:101EE6007FEF0FF0000E176E000E186E000E196EC3
:101EF600000E1A6E10EF10F0960E206E89EF0FF09E
:101F0600202AD8902432233222322132000E211484
:101F16001B6E000E22141C6E000E23141D6EFE0E88
:101F260024141E6E1B501C101D101E10D8A49EEFEC
:101F36000FF0A0EF0FF083EF0FF0AEEF0FF0202AB7
:101F4600010E2126000E222223222422D89024329A
:101F5600233222322132000E21141B6E000E22146F
:101F66001C6E000E23141D6EFF0E24141E6E1B50D5
:101F76001C101D101E10D8A4C3EF0FF0C5EF0FF0F4
:101F8600A2EF0FF0CDEF0FF02006D89021362236C3
:101F96002336243623BED2EF0FF0D4EF0FF0DCEF5A
:101FA6000FF0020E2060DAEF0FF0DCEF0FF0C7EF54
:101FB6000FF020B0E1EF0FF0E3EF0FF0E4EF0FF0DA
:101FC600239ED890203220C01BF01C6A1D6A1E6A10
:101FD6001BC01EF01D6A1C6A1B6A1B5021121C5076
:101FE60022121D5023121E5024121F50D8B4FEEF89
:101FF6000FF000EF10F008EF10F01ABE07EF10F028
:1020060005EF10F008EF10F0248E21C017F022C063
:1020160018F023C019F024C01AF01200010E0A6E3F
:1020260001500210D8B41AEF10F01CEF10F02DEF8B
:1020360010F001C0D9FF02C0DAFFDF30E832E83223
:10204600070B046E070E04642BEF10F02DEF10F053
:1020560090EF10F0000E0A6EA5EF10F001C0D9FF48
:1020660002C0DAFFDF30E832E832070B046E010EF9
:10207600056E042A41EF10F0D8900536042E3FEF86
:1020860010F00550FF0A066E01C0D9FF02C0DAFF44
:10209600DF50070B076E0750020DD90EF324D96ED9
:1020A600000EF420DA6EDECF08F0DDCF09F008C0AE
:1020B600D9FF09C0DAFF0650DF16A5EF10F001C000
:1020C600D9FF02C0DAFFDF30E832E832070B046ED0
:1020D600010E056E042A72EF10F0D8900536042E14
:1020E60070EF10F001C0D9FF02C0DAFFDF50070B16
:1020F600066E0650020DD90EF324D96E000EF4209A
:10210600DA6EDECF07F0DDCF08F007C0D9FF08C0D2
:10211600DAFF0550DF12A5EF10F00350046E056AD2
:102126000550000AD8B49AEF10F02DEF10F00450C5
:10213600000AD8B431EF10F0010AD8B462EF10F0FB
:102146002DEF10F00A50120001019F35A035476EA1
:102156004750D8A4B1EF10F0B3EF10F0BDEF10F078
:10216600000E9D6F000E9E6F000E9F6F000EA06FFB
:102176002AEF11F09DC1A1F19EC1A2F19FC1A3F169
:10218600A0C1A4F1200ECDEF10F0D890A433A33354
:10219600A233A133E82EC8EF10F0A151466E9F8FEF
:1021A600FF0E9D17FF0E9E17FF0E9F17000EA0171E
:1021B600960E475E47BEE4EF10F0E2EF10F0FAEF3E
:1021C60010F04750800A970FD8B0ECEF10F0EEEF02
:1021D60010F0F0EF10F0B3EF10F0D890A0339F336B
:1021E6009E339D33473EF0EF10F012EF11F01F0EB5
:1021F600476400EF11F002EF11F00AEF11F0B3EFB0
:1022060010F0D8909D379E379F37A0374706475026
:10221600D8A410EF11F012EF11F004EF11F04650B0
:10222600D8B418EF11F01AEF11F022EF11F0A01F39
:102236009F1F9E1F9D6D000E9E239F23A0239DC161
:102246009DF19EC19EF19FC19FF1A0C1A0F1120018
:10225600860E0001D36FA00ED26FD695D693D68187
:10226600080ED46FD20E0101A56F000EA66F44ECC6
:102276000EF00001FE6F610E1D6E600ECEEC14F0C6
:102286000B0E0101AA6F260EA96F5D0EE82EFED772
:10229600A92FFCD7AA2FFAD700D0620E1D6E620EA8
:1022A600CEEC14F00B0E0101AA6F260EA96F5D0E7F
:1022B600E82EFED7A92FFCD7AA2FFAD700D0630E97
:1022C6001D6E600ECEEC14F00B0E0101AA6F260EE9
:1022D600A96F5D0EE82EFED7A92FFCD7AA2FFAD735
:1022E60000D0640E1D6E620ECEEC14F00B0E0101D2
:1022F600AA6F260EA96F5D0EE82EFED7A92FFCD772
:10230600AA2FFAD700D03EEF11F007EF00F00150E8
:102316000210D8B491EF11F093EF11F0A4EF11F081
:1023260001C0D9FF02C0DAFFDF30E832E832070B1E
:10233600036E070E0364A2EF11F0A4EF11F0A6EFEF
:1023460011F0D2EF11F001C0D9FF02C0DAFFDF3081
:10235600E832E832070B036E010E046E032AB6EF6D
:1023660011F0D8900436032EB4EF11F001C0D9FF56
:1023760002C0DAFFDF50070B056E0550020DD90EBD
:10238600F324D96E000EF420DA6EDECF06F0DDCF30
:1023960007F006C0D9FF07C0DAFF0450DF1A1200A3
:1023A6003E0EF66E280EF76E000EF86E01EE00F089
:1023B60010EE77F00900F5CFEEFFE550E150FAE1B7
:1023C6003C0EF66E2C0EF76E000EF86E00EED9F08F
:1023D60010EE25F00900F5CFEEFFE550E150FAE1E9
:1023E600980EF66E2C0EF76E000EF86E00EE60F08C
:1023F60010EE09F00900F5CFEEFFE550E150FAE1E5
:1024060001EE77F01E0EEE6AE806FDE100EE80F0C2
:10241600590EEE6AE806FDE100EE49F0170EEE6A87
:10242600E806FDE16990699200012BEF11F04A2A56
:102436006B0E016E010E026E000E046E000E036E30
:1024460009EC16F00001FE6F4A04D8A42DEF12F035
:102456002FEF12F041EF12F0600E016E010E026EC8
:10246600300E046ED40E036E5BEC14F00001FE6FAA
:10247600BD50F00B0909BD6E5CEF12F0020E4A1852
:10248600D8A448EF12F04AEF12F05CEF12F0600E9B
:10249600016E010E026E920E046E7C0E036E5BECF4
:1024A60014F00001FE6FBD50F00B0809BD6E000E62
:1024B6004A6E1200106EF2901004D8A465EF12F066
:1024C60067EF12F07FEF12F00001AC51AD11D8B4F6
:1024D6006FEF12F071EF12F09DEF12F002D87DEF60
:1024E60012F00500FA6EAC51FD6EAD51FE6EFF6A3C
:1024F600FA5012009DEF12F01050D8A485EF12F09A
:1025060087EF12F09DEF12F00001AA51AB11D8B47B
:102516008FEF12F091EF12F09DEF12F002D89DEFBF
:1025260012F00500FA6EAA51FD6EAB51FE6EFF6AFF
:10253600FA5012001200106EF2901004D8A4A6EF02
:1025460012F0A8EF12F0C0EF12F00001B051B11175
:10255600D8B4B0EF12F0B2EF12F0DEEF12F002D8FC
:10256600BEEF12F00500FA6EB051FD6EB151FE6E6F
:10257600FF6AFA501200DEEF12F01050D8A4C6EF30
:1025860012F0C8EF12F0DEEF12F00001AE51AF11FB
:10259600D8B4D0EF12F0D2EF12F0DEEF12F002D87C
:1025A600DEEF12F00500FA6EAE51FD6EAF51FE6E13
:1025B600FF6AFA5012001200106EF2901004D8A4AE
:1025C600E7EF12F0E9EF12F001EF13F00001B4515A
:1025D600B511D8B4F1EF12F0F3EF12F01FEF13F0CC
:1025E60002D8FFEF12F00500FA6EB451FD6EB55138
:1025F600FE6EFF6AFA5012001FEF13F01050D8A4B7
:1026060007EF13F009EF13F01FEF13F00001B251BB
:10261600B311D8B411EF13F013EF13F01FEF13F04B
:1026260002D81FEF13F00500FA6EB251FD6EB351DA
:10263600FE6EFF6AFA5012001200106EF29010043D
:10264600D8A428EF13F02AEF13F042EF13F000019D
:10265600B851B911D8B432EF13F034EF13F060EF7C
:1026660013F002D840EF13F00500FA6EB851FD6E74
:10267600B951FE6EFF6AFA50120060EF13F0105067
:10268600D8A448EF13F04AEF13F060EF13F00001FF
:10269600B651B711D8B452EF13F054EF13F060EF00
:1026A60013F002D860EF13F00500FA6EB651FD6E16
:1026B600B751FE6EFF6AFA5012001200010E0E6E3E
:1026C6000B500C10D8A46AEF13F06CEF13F070EFF8
:1026D60013F0000E0E6E9FEF13F054C00FF00BC0F8
:1026E600D9FF0CC0DAFFDF500F0B0D6E0F500D181F
:1026F600F80B0D180F6E0BC0D9FF0CC0DAFFDF38D0
:10270600070B0D6E0D460D460D460F500D18C70BE7
:102716000D180F6E0F9C0BC0D9FF0CC0DAFFDFAE91
:1027260002D00F8E01D00F9E0F0E016E000E026EAC
:10273600000E036E11EC10F00E501200010E0E6E1C
:102746000B500C10D8A4AAEF13F0ACEF13F0B0EFB7
:1027560013F0000E0E6EDFEF13F055C00FF00BC036
:10276600D9FF0CC0DAFFDF500F0B0D6E0F500D189E
:10277600F80B0D180F6E0BC0D9FF0CC0DAFFDF384F
:10278600070B0D6E0D460D460D460F500D18C70B67
:102796000D180F6E0F9C0BC0D9FF0CC0DAFFDFAE11
:1027A60002D00F8E01D00F9E0F0E016E000E026E2C
:1027B600010E036E11EC10F00E501200010E0B6E9E
:1027C60008500910D8A4EAEF13F0ECEF13F0F0EF7D
:1027D60013F0000E0B6E1DEF14F053C00CF008C082
:1027E600D9FF09C0DAFFDF500F0B0A6E0C500A182A
:1027F600F80B0A180C6E08C0D9FF09C0DAFFDF38DB
:10280600070B0A6E0A460A460A460C500A18C70BF8
:102816000A180C6E0C9C08C0D9FF09C0DAFFDFAE9F
:1028260002D00C8E01D00C9E0C0E016E000E026EB4
:102836008AEC11F00B501200802500010001000007
:1028460000000000000000000005520000B22C004D
:10285600000000323A030B131B232B333B800F81FE
:102866000F820F830F840FCC2C000000000001CCD8
:102876002C000201DC0B02020A121A626A727A004A
:10288600000005050002020A121A222A742C622C84
:102896007101862C01000141010812000034240058
:0F28A600000000000000000010B22C0000000035
:1028B600010E066EC0C007F0C1C008F0015002103C
:1028C600D8A468EF14F06AEF14F06EEF14F0000E5F
:1028D600066E94EF14F020EE03F00150D926025054
:1028E600DA22DF50D8A47AEF14F07CEF14F082EFEE
:1028F60014F007C0BEFF08C0BFFF94EF14F020EE2F
:1029060003F00150D9260250DA22DE04D8A48EEF55
:1029160014F090EF14F094EF14F007C0BBFF08C05A
:10292600BCFF06501200010E1C6E17501810D8B4CA
:102936009FEF14F0A1EF14F0AAEF14F01A501B1039
:10294600D8A4A8EF14F0AAEF14F0AEEF14F0000E1E
:102956001C6ECCEF14F019C0C9FF9EA6B5EF14F09B
:10296600B7EF14F0B0EF14F09E96C5BCBDEF14F0AF
:10297600BFEF14F0C6EF14F01AC0D9FF1BC0DAFF80
:10298600DF6ACCEF14F01AC0D9FF1BC0DAFF010EC4
:10299600DF6E1C5012001E6ED20E176E000E186EE1
:1029A6002AEC15F00001FE6FD20E176E000E186E9F
:1029B6001EC019F05F0E1A6E000E1B6E96EC14F018
:1029C6000001FE6FD20E176E000E186E1DC019F0B4
:1029D6005F0E1A6E000E1B6E96EC14F00001FE6F71
:1029E600D20E176E000E186EFCEC14F00001FE6F8E
:1029F6001200010E196E17501810D8A405EF15F025
:102A060007EF15F00BEF15F0000E196E28EF15F015
:102A1600C584C5B411EF15F013EF15F00CEF15F0E2
:102A26009E96C7A819EF15F01BEF15F01FEF15F0CE
:102A3600010E196E28EF15F0C7B824EF15F026EF32
:102A460015F028EF15F007EF15F019501200010EDA
:102A5600196E17501810D8A433EF15F035EF15F08E
:102A660039EF15F0000E196E56EF15F0C580C5B09A
:102A76003FEF15F041EF15F03AEF15F09E96C7A619
:102A860047EF15F049EF15F04DEF15F0010E196EF1
:102A960056EF15F0C7B652EF15F054EF15F056EF96
:102AA60015F035EF15F0195012009E900001A35154
:102AB600CF6EA2C0CEFFA451A511D8B465EF15F014
:102AC60067EF15F073EF15F002D873EF15F00500F8
:102AD600FA6EA451FD6EA551FE6EFF6AFA50120001
:102AE6001200F2940001A751D76EA6C0D6FFA851D6
:102AF600A911D8B481EF15F083EF15F08FEF15F01B
:102B060002D88FEF15F00500FA6EA851FD6EA95197
:102B1600FE6EFF6AFA50120012009E929EC0CCFF13
:102B26000001A051A111D8B49BEF15F09DEF15F04F
:102B3600A9EF15F002D8A9EF15F00500FA6EA0511D
:102B4600FD6EA151FE6EFF6AFA5012001200F0905F
:102B56000001BC51BD11D8B4B3EF15F0B5EF15F0B7
:102B6600C1EF15F002D8C1EF15F00500FA6EBC51A1
:102B7600FD6EBD51FE6EFF6AFA5012001200F2920F
:102B86000001BE51BF11D8B4CBEF15F0CDEF15F053
:102B9600D9EF15F002D8D9EF15F00500FA6EBE513F
:102BA600FD6EBF51FE6EFF6AFA50120012009E942F
:102BB6000001C651C711D8B4E3EF15F0E5EF15F0E3
:102BC600F1EF15F002D8F1EF15F00500FA6EC651D7
:102BD600FD6EC751FE6EFF6AFA5012001200000128
:102BE6009C519D11D8B4FAEF15F0FCEF15F008EFE3
:102BF60016F002D808EF16F00500FA6E9C51FD6E2D
:102C06009D51FE6EFF6AFA5012001200010E056E0B
:102C160001500210D8A412EF16F014EF16F018EFB8
:102C260016F0000E056E1CEF16F00450B36E03C0CE
:102C3600B2FF05501200890F8A0F8B0F8C0F8D0F74
:102C4600920F930F940F950F960F020A121A00C354
:0B2C560000005200011A1B1819101298
:102C6200680E0B6E000E0C6E61EC13F00001FE6F2D
:102C72001200680E0B6E000E0C6EA1EC13F0000138
:102C8200FE6F1200680E086E000E096EE1EC13F082
:0F2C92000001FE6F120037173B1701010101020D
:102CA2000001884B892B120000018A4B8B2B1200EA
:102CB2000001824B832B12009E8A9E9A12009D98DD
:102CC2001200A19012009E9C12001200120012002B
:020000040020DA
:08000000FFFFFFFFFFFFFFFF00
:020000040030CA
:0E000000FF02091EFF8181FF0FC00FE00F40BD
:00000001FF
