:020000040000FA
:0400000007EF00F016
:0A00080069826CED0AF07AEF11F046
:10100000003738392F3435362A3132332D23303DED
:051010002B2569000022
:101016004150800B0101A36F41504124A56F40AEA2
:1010260017EF08F019EF08F01AEF08F0A581A5519F
:10103600D8B420EF08F022EF08F037EF08F0A52922
:10104600D8A428EF08F02AEF08F032EF08F0000ED7
:101056003E6E000E3F6E000E406E000E416E408EDC
:10106600000E416E3FEF08F0000E3E6E000E3F6E22
:10107600000E406E000E416E4550800BA46FA351CA
:10108600A419D8B449EF08F04BEF08F04CEF08F07C
:10109600A38D45504524A46F44AE54EF08F056EF97
:1010A60008F057EF08F0A481A451D8B45DEF08F01A
:1010B6005FEF08F074EF08F0A429D8A465EF08F0F4
:1010C60067EF08F06FEF08F0000E426E000E436EF9
:1010D600000E446E000E456E448E000E456E7CEF8B
:1010E60008F0000E426E000E436E000E446E000EB7
:1010F600456EA551A45DD8B083EF08F085EF08F0E2
:10110600ACEF08F0A3AD8AEF08F08CEF08F08EEF95
:1011160008F0800EA31BA5C1A6F1A4C1A5F1A6C126
:10112600A4F13EC0A6F142C03EF0A6C142F03FC0C7
:10113600A6F143C03FF0A6C143F040C0A6F144C0AB
:1011460040F0A6C144F041C0A6F145C041F0A6C199
:1011560045F0000EA66FA551A4C19FF1A06B9F5F3D
:10116600000EA05BA0BFC1EF08F0A05109E11A0E66
:101176009F5DD8A0C1EF08F0C3EF08F0FAEF08F0C2
:101186003E503F1040104110D8A4CCEF08F0CFEFEE
:1011960008F0010ED0EF08F0000EA66F000E3E6EAE
:1011A600000E3F6E000E406E000E416EA4C1A5F10A
:1011B60003EF09F0A6A1E2EF08F0E4EF08F0EAEF8A
:1011C60008F0D890A6310109A66FECEF08F0D89088
:1011D600A6333EA0F1EF08F0F3EF08F0F4EF08F0C5
:1011E600A68F4134413240323F323E32A52BA451C4
:1011F600A55DD8A001EF09F003EF09F0DDEF08F0D7
:10120600A3BD08EF09F00AEF09F04AEF09F0A5516E
:10121600D8A410EF09F012EF09F01CEF09F0000E48
:101226003E6E000E3F6E000E406E000E416E6BEF7E
:101236000AF042503E2643503F2244504022455039
:10124600412241A029EF09F02BEF09F0D7EF09F071
:10125600A6A130EF09F032EF09F038EF09F0D89087
:10126600A6310109A66F3AEF09F0D890A6333EA041
:101276003FEF09F041EF09F042EF09F0A68F413444
:10128600413240323F323E32A52BD7EF09F0425071
:101296003E5C43503F58445040584150800A9F6F2F
:1012A6004550800A9F59D8B05BEF09F05DEF09F011
:1012B60088EF09F03E50425C9F6F3F504358A06F45
:1012C60040504458A16F41504558A26FFF0E9F25CC
:1012D6003E6EFF0EA0213F6EFF0EA121406EFF0E57
:1012E600A221416E800EA31BA66DA651D8A47EEF47
:1012F60009F080EF09F090EF09F0010E3E26000E8E
:101306003F224022412290EF09F042503E5E435078
:101316003F5A4450405A4550415A3E503F104010A3
:101326004110D8A499EF09F09BEF09F0D0EF09F02E
:10133600A651D8A4A1EF09F0A3EF09F0D0EF09F068
:10134600000E3E6E000E3F6E000E406E000E416EA9
:101356006BEF0AF0D8903E363F3640364136A6AFA0
:10136600B7EF09F0B9EF09F0BAEF09F03E80A6A190
:10137600BFEF09F0C1EF09F0C5EF09F0D880A63735
:10138600C7EF09F0D890A637A551D8B4CDEF09F02C
:10139600CFEF09F0D0EF09F0A50740AED5EF09F081
:1013A600D7EF09F0ADEF09F0000EA46FA6AFDEEFA0
:1013B60009F0E0EF09F0F8EF09F0A6C19FF17F0E02
:1013C6009F17D8B4E9EF09F0EBEF09F0EFEF09F05A
:1013D600010EA46FF8EF09F03EA0F4EF09F0F6EF66
:1013E60009F0F8EF09F0EBEF09F0A451D8B4FEEFDD
:1013F60009F000EF0AF02BEF0AF0010E3E26000E70
:101406003F224022412241A00BEF0AF00DEF0AF0E5
:101416002BEF0AF03EC09FF13FC0A0F140C0A1F102
:1014260041C0A2F1A235A233A133A0339F339FC19D
:101436003EF0A0C13FF0A1C140F0A2C141F0A529F4
:10144600D8B428EF0AF02AEF0AF02BEF0AF0A52B02
:10145600A529D8B431EF0AF033EF0AF03BEF0AF0D2
:10146600A551D8A439EF0AF03BEF0AF04DEF0AF088
:10147600000E3E6E000E3F6E000E406E000E416E78
:10148600A551D8A449EF0AF04BEF0AF04DEF0AF048
:10149600000EA36FA5A152EF0AF054EF0AF057EF22
:1014A6000AF0408E58EF0AF0409ED890A531416E62
:1014B600A3AF60EF0AF062EF0AF063EF0AF0418E25
:1014C6003EC03EF03FC03FF040C040F041C041F05A
:1014D60012000600FACF11F0FBCF12F0D9CF13F0AD
:1014E600DACF14F0F3CF15F0F4CF16F0F2A87EEFB2
:1014F6000AF080EF0AF089EF0AF0F2A285EF0AF00F
:1015060087EF0AF089EF0AF00BEC15F0F0A68EEFE4
:101516000AF090EF0AF099EF0AF0F0A095EF0AF0C2
:1015260097EF0AF099EF0AF0F3EC14F0F0A89EEFAB
:101536000AF0A0EF0AF0A9EF0AF0F0A2A5EF0AF070
:10154600A7EF0AF0A9EF0AF0F3EC14F09DACAEEFAA
:101556000AF0B0EF0AF0B9EF0AF09EACB5EF0AF068
:10156600B7EF0AF0B9EF0AF0ABEC15F0F2A6BEEF52
:101576000AF0C0EF0AF0DBEF0AF0F2A0C5EF0AF0BE
:10158600C7EF0AF0DBEF0AF081A8CCEF0AF0CEEF46
:101596000AF0DBEF0AF06704D8A4D4EF0AF0D6EF1E
:1015A6000AF0DBEF0AF0000E676E010EC7EC12F0D0
:1015B600F2A6E0EF0AF0E2EF0AF0FDEF0AF0F2A081
:1015C600E7EF0AF0E9EF0AF0FDEF0AF081B8EEEF77
:1015D6000AF0F0EF0AF0FDEF0AF06750D8A4F6EF34
:1015E6000AF0F8EF0AF0FDEF0AF0010E676E000E42
:1015F600C7EC12F0F2A602EF0BF004EF0BF01FEFB0
:101606000BF0F2A009EF0BF00BEF0BF01FEF0BF056
:1016160081AA10EF0BF012EF0BF01FEF0BF0660430
:10162600D8A418EF0BF01AEF0BF01FEF0BF0000E1B
:10163600666E010E86EC12F0F2A624EF0BF026EF92
:101646000BF041EF0BF0F2A02BEF0BF02DEF0BF0B0
:1016560041EF0BF081BA32EF0BF034EF0BF041EFB4
:101666000BF06650D8A43AEF0BF03CEF0BF041EFCD
:101676000BF0010E666E000E86EC12F0F2A646EF37
:101686000BF048EF0BF063EF0BF0F2A04DEF0BF011
:101696004FEF0BF063EF0BF081AC54EF0BF056EF0E
:1016A6000BF063EF0BF06504D8A45CEF0BF05EEF74
:1016B6000BF063EF0BF0000E656E010E45EC12F0B9
:1016C600F2A668EF0BF06AEF0BF085EF0BF0F2A0D5
:1016D6006FEF0BF071EF0BF085EF0BF081BC76EF3F
:1016E6000BF078EF0BF085EF0BF06550D8A47EEF8A
:1016F6000BF080EF0BF085EF0BF0010E656E000E20
:1017060045EC12F0F2A68AEF0BF08CEF0BF0A7EF88
:101716000BF0F2A091EF0BF093EF0BF0A7EF0BF0AD
:1017260081AE98EF0BF09AEF0BF0A7EF0BF0640485
:10173600D8A4A0EF0BF0A2EF0BF0A7EF0BF0000E72
:10174600646E010E04EC12F0F2A6ACEF0BF0AEEFF5
:101756000BF0C9EF0BF0F2A0B3EF0BF0B5EF0BF007
:10176600C9EF0BF081BEBAEF0BF0BCEF0BF0C9EF7F
:101776000BF06450D8A4C2EF0BF0C4EF0BF0C9EF26
:101786000BF0010E646E000E04EC12F0F2AACEEF1E
:101796000BF0D0EF0BF0D9EF0BF0F2A4D5EF0BF076
:1017A600D7EF0BF0D9EF0BF0A5EC14F09DA0DEEF10
:1017B6000BF0E0EF0BF0E9EF0BF09EA0E5EF0BF07E
:1017C600E7EF0BF0E9EF0BF089EC14F09DA2EEEFDA
:1017D6000BF0F0EF0BF0F9EF0BF09EA2F5EF0BF02C
:1017E600F7EF0BF0F9EF0BF0C1EC14F0A0A2FEEF4F
:1017F6000BF000EF0CF009EF0CF0A1A205EF0CF0D6
:1018060007EF0CF009EF0CF03BEC15F09DA40EEF82
:101816000CF010EF0CF019EF0CF09EA415EF0CF085
:1018260017EF0CF019EF0CF023EC15F0A0A01EEF4B
:101836000CF020EF0CF029EF0CF0A1A025EF0CF036
:1018460027EF0CF029EF0CF0A9EC15F09DAA2EEF6E
:101856000CF030EF0CF039EF0CF09EAA35EF0CF0DF
:1018660037EF0CF039EF0CF0A0EC15F09DA83EEF29
:101876000CF040EF0CF049EF0CF09EA845EF0CF091
:1018860047EF0CF049EF0CF0A3EC15F09DA64EEFD8
:101896000CF050EF0CF059EF0CF09EA655EF0CF043
:1018A60057EF0CF059EF0CF0DBEC14F0A0A65EEF4E
:1018B6000CF060EF0CF069EF0CF0A1A665EF0CF0F0
:1018C60067EF0CF069EF0CF0A7EC15F016C0F4FF0B
:1018D60015C0F3FF14C0DAFF13C0D9FF12C0FBFF17
:1018E60011C0FAFF699211002850800B356E2850FE
:1018F60028243C6E27AE82EF0CF084EF0CF085EFC7
:101906000CF03C803C50D8B48BEF0CF08DEF0CF013
:10191600A2EF0CF03C28D8A493EF0CF095EF0CF056
:101926009DEF0CF0000E256E000E266E000E276E43
:10193600000E286E278E000E286EAAEF0CF0000E01
:10194600256E000E266E000E276E000E286E2C5099
:10195600800B351A2C502C243D6E2BAEB5EF0CF0B7
:10196600B7EF0CF0B8EF0CF03D803D50D8B4BEEFA9
:101976000CF0C0EF0CF0D5EF0CF03D28D8A4C6EF64
:101986000CF0C8EF0CF0D0EF0CF0000E296E000E34
:101996002A6E000E2B6E000E2C6E2B8E000E2C6EF9
:1019A600DDEF0CF0000E296E000E2A6E000E2B6E77
:1019B600000E2C6E29502A102B102C10D8A4E6EFFE
:1019C6000CF0E8EF0CF000EF0DF0000E256E000EA7
:1019D600266E000E276E000E286E800E27127F0ED2
:1019E60028123550281225C025F026C026F027C01B
:1019F60027F028C028F043EF0EF03C50D8A406EF9D
:101A06000DF008EF0DF012EF0DF0000E256E000E32
:101A1600266E000E276E000E286E43EF0EF03D5028
:101A26003CC02DF02E6A2D5E000E2E5A7F0E2D2400
:101A3600366E000E2E20376E25C031F026C032F0ED
:101A460027C033F028C034F0000E256E000E266E37
:101A5600000E276E000E286E000E386E000E396ED0
:101A6600000E3A6E000E3B6E000E3D6E73EF0DF0EB
:101A76003D50D8B441EF0DF043EF0DF05AEF0DF0A5
:101A8600D8903136323633363436D8902536263627
:101A9600273628363BAE52EF0DF054EF0DF055EFDA
:101AA6000DF02580D890383639363A363B362950EF
:101AB600315C2A5032582B5033582C503458D8A009
:101AC60067EF0DF069EF0DF072EF0DF03B8C2950CA
:101AD600315E2A50325A2B50335A2C50345A3D2AF2
:101AE600190E3D6479EF0DF07BEF0DF03BEF0DF035
:101AF6003150321033103410D8B484EF0DF086EF25
:101B06000DF09EEF0DF038809EEF0DF0D890253643
:101B16002636273628363BAE93EF0DF095EF0DF0BF
:101B260096EF0DF02580D890383639363A363B3662
:101B36003606D8A0370627AEA3EF0DF0A5EF0DF0B9
:101B460089EF0DF0000E3D6E3BAEACEF0DF0AEEF43
:101B56000DF0D2EF0DF0FF0E38142D6EFF0E391476
:101B66002E6EFF0E3A142F6E7F0E3B14306E2D50E4
:101B76002E102F103010D8B4C3EF0DF0C5EF0DF0B6
:101B8600C9EF0DF0010E3D6ED2EF0DF025A0CEEFA0
:101B96000DF0D0EF0DF0D2EF0DF0C5EF0DF03D508A
:101BA600D8B4D8EF0DF0DAEF0DF0FEEF0DF0010E20
:101BB6002526000E26222722282228A0E5EF0DF052
:101BC600E7EF0DF0FEEF0DF025C02DF026C02EF04C
:101BD60027C02FF028C030F0303430322F322E326A
:101BE6002D322DC025F02EC026F02FC027F030C094
:101BF60028F0364A372A37BE09EF0EF0375008E18B
:101C06003628D8A009EF0EF00BEF0EF016EF0EF007
:101C1600000E376E3668000E256E000E266E000E1C
:101C2600276E000E286E37BE23EF0EF0375006E102
:101C36003604D8B021EF0EF023EF0EF031EF0EF0A0
:101C4600000E376E000E366E000E256E000E266EE6
:101C5600000E276E000E286E000E356E36C03CF064
:101C66003CA038EF0EF03AEF0EF03DEF0EF0278E67
:101C76003EEF0EF0279ED8903C30286EF4EF0CF025
:101C86001200010E466E0101B151B211D8A44EEFF9
:101C96000EF050EF0EF054EF0EF0000E466E3BEFD6
:101CA6000FF0C68A20EE0AF0B151D926B251DA22D7
:101CB600DFA060EF0EF062EF0EF0B3EF0EF020EE55
:101CC60008F0B151D926B251DA22DF50B36FC650AF
:101CD600B319F00BB319C66E000E426E000E436EBA
:101CE600800E446EBF0E456EB1C1D9FFB2C1DAFF98
:101CF600DECFB3F1DDCFB4F1B3C117F0B4C118F044
:101D0600196A1A6A000E3DEC0FF017C029F018C0C8
:101D16002AF019C02BF01AC02CF0000E256E240EE6
:101D2600266EF40E276E490E286E77EC0CF025C051
:101D36003EF026C03FF027C040F028C041F00BEC33
:101D460008F03EC0A7F13FC0A8F140C0A9F141C0CC
:101D5600AAF1ADEC10F00101A751C86EF6EF0EF036
:101D660020EE0AF0B151D926B251DA22DFB0BEEF29
:101D76000EF0C0EF0EF0F6EF0EF020EE0AF0B151C5
:101D8600D926B251DA22DFA6CBEF0EF0CDEF0EF058
:101D9600D0EF0EF0C58EDEEF0EF020EE0AF0B15158
:101DA600D926B251DA22DFB6DBEF0EF0DDEF0EF008
:101DB600DEEF0EF0C59EC69EC69CC68820EE09F0D4
:101DC600B151D926B251DA22DF50C86E20EE08F0A2
:101DD600B151D926B251DA22DF50B36FC650B319CA
:101DE600F00BB319C66E9486948820EE0AF0B151B2
:101DF600D926B251DA22DFA203EF0FF005EF0FF07A
:101E060008EF0FF0C78E16EF0FF020EE0AF0B15173
:101E1600D926B251DA22DFB213EF0FF015EF0FF029
:101E260016EF0FF0C79E20EE0AF0B151D926B25137
:101E3600DA22DFA221EF0FF023EF0FF026EF0FF0EB
:101E4600C78E34EF0FF020EE0AF0B151D926B25109
:101E5600DA22DFB231EF0FF033EF0FF034EF0FF08D
:101E6600C79EB1C117F0B2C118F042EC14F0C68A91
:101E7600465012001F6E1F50D8B444EF0FF046EFC5
:101E86000FF068EF0FF01ABE4DEF0FF04BEF0FF0AB
:101E960068EF0FF017C01BF018C01CF019C01DF03A
:101EA6001AC01EF01B1E1C1E1D1E1E1E1B2A000E07
:101EB6001C221D221E221BC021F01CC022F01DC0A8
:101EC60023F01EC024F070EF0FF017C021F018C0E9
:101ED60022F019C023F01AC024F017501810191058
:101EE6001A10D8A479EF0FF07BEF0FF085EF0FF003
:101EF600000E176E000E186E000E196E000E1A6E8A
:101F060016EF10F0960E206E8FEF0FF0202AD89065
:101F16002432233222322132000E21141B6E000E8F
:101F260022141C6E000E23141D6EFE0E24141E6E4B
:101F36001B501C101D101E10D8A4A4EF0FF0A6EF06
:101F46000FF089EF0FF0B4EF0FF0202A010E2126D3
:101F5600000E222223222422D89024322332223237
:101F66002132000E21141B6E000E22141C6E000E70
:101F760023141D6EFF0E24141E6E1B501C101D1004
:101F86001E10D8A4C9EF0FF0CBEF0FF0A8EF0FF09B
:101F9600D3EF0FF02006D89021362236233624368A
:101FA60023BED8EF0FF0DAEF0FF0E2EF0FF0020EDC
:101FB6002060E0EF0FF0E2EF0FF0CDEF0FF020B072
:101FC600E7EF0FF0E9EF0FF0EAEF0FF0239ED8905E
:101FD600203220C01BF01C6A1D6A1E6A1BC01EF040
:101FE6001D6A1C6A1B6A1B5021121C5022121D50AE
:101FF60023121E5024121F50D8B404EF10F006EF1F
:1020060010F00EEF10F01ABE0DEF10F00BEF10F0FF
:102016000EEF10F0248E21C017F022C018F023C056
:1020260019F024C01AF01200010E0A6E01500210B7
:10203600D8B420EF10F022EF10F033EF10F001C00B
:10204600D9FF02C0DAFFDF30E832E832070B046E50
:10205600070E046431EF10F033EF10F096EF10F036
:10206600000E0A6EABEF10F001C0D9FF02C0DAFF16
:10207600DF30E832E832070B046E010E056E042AE3
:1020860047EF10F0D8900536042E45EF10F00550B6
:10209600FF0A066E01C0D9FF02C0DAFFDF50070B48
:1020A600076E0750020DE50EF324D96E000EF420DC
:1020B600DA6EDECF08F0DDCF09F008C0D9FF09C01F
:1020C600DAFF0650DF16ABEF10F001C0D9FF02C0F1
:1020D600DAFFDF30E832E832070B046E010E056ED8
:1020E600042A78EF10F0D8900536042E76EF10F01B
:1020F60001C0D9FF02C0DAFFDF50070B066E06509B
:10210600020DE50EF324D96E000EF420DA6EDECF52
:1021160007F0DDCF08F007C0D9FF08C0DAFF055089
:10212600DF12ABEF10F00350046E056A0550000A8B
:10213600D8B4A0EF10F033EF10F00450000AD8B472
:1021460037EF10F0010AD8B468EF10F033EF10F053
:102156000A5012000101A935AA35B06FB051D8A4B2
:10216600B7EF10F0B9EF10F0C3EF10F0000EA76F45
:10217600000EA86F000EA96F000EAA6F30EF11F0C7
:10218600A7C1ABF1A8C1ACF1A9C1ADF1AAC1AEF12D
:10219600200ED3EF10F0D890AE33AD33AC33AB3363
:1021A600E82ECEEF10F0AB51AF6FA98FFF0EA71739
:1021B600FF0EA817FF0EA917000EAA17960EB05FFE
:1021C600B0BFEAEF10F0E8EF10F000EF11F0B051F9
:1021D600800A970FD8B0F2EF10F0F4EF10F0F6EF98
:1021E60010F0B9EF10F0D890AA33A933A833A7336B
:1021F600B03FF6EF10F018EF11F01F0EB06506EFC6
:1022060011F008EF11F010EF11F0B9EF10F0D890BF
:10221600A737A837A937AA37B007B051D8A416EF01
:1022260011F018EF11F00AEF11F0AF51D8B41EEF0C
:1022360011F020EF11F028EF11F0AA1FA91FA81F17
:10224600A76D000EA823A923AA23A7C1A7F1A8C199
:10225600A8F1A9C1A9F1AAC1AAF112000150021060
:10226600D8B438EF11F03AEF11F04BEF11F001C08E
:10227600D9FF02C0DAFFDF30E832E832070B036E1F
:10228600070E036449EF11F04BEF11F04DEF11F01B
:1022960079EF11F001C0D9FF02C0DAFFDF30E83272
:1022A600E832070B036E010E046E032A5DEF11F090
:1022B600D8900436032E5BEF11F001C0D9FF02C09F
:1022C600DAFFDF50070B056E0550020DE50EF3240D
:1022D600D96E000EF420DA6EDECF06F0DDCF07F001
:1022E60006C0D9FF07C0DAFF0450DF1A1200100E2D
:1022F600F66E260EF76E000EF86E01EE00F010EE8A
:1023060081F00900F5CFEEFFE550E150FAE1CE0E7F
:10231600F66E2A0EF76E000EF86E00EEE5F010EE81
:102326001AF00900F5CFEEFFE550E150FAE11E0E76
:10233600F66E2B0EF76E000EF86E00EE5FF010EEE6
:102346000AF00900F5CFEEFFE550E150FAE101EEA3
:1023560081F01E0EEE6AE806FDE100EE80F0650EE5
:10236600EE6AE806FDE100EE47F0180EEE6AE806B2
:10237600FDE169906992000167EF14F0482A750E35
:10238600016E010E026E000E046E000E036E52EC1C
:1023960015F00001FF6F4804D8A4D4EF11F0D6EF72
:1023A60011F0E8EF11F06A0E016E010E026E300EAA
:1023B600046ED40E036E07EC14F00001FF6FBD50DF
:1023C600F00B0909BD6E03EF12F0020E4818D8A4EF
:1023D600EFEF11F0F1EF11F003EF12F06A0E016E5C
:1023E600010E026E920E046E7C0E036E07EC14F064
:1023F6000001FF6FBD50F00B0809BD6E000E486E60
:102406001200106EF2901004D8A40CEF12F00EEF2A
:1024160012F026EF12F00001B251B311D8B416EF44
:1024260012F018EF12F044EF12F002D824EF12F077
:102436000500FA6EB251FD6EB351FE6EFF6AFA5098
:10244600120044EF12F01050D8A42CEF12F02EEF29
:1024560012F044EF12F00001B051B111D8B436EFCA
:1024660012F038EF12F044EF12F002D844EF12F0F7
:102476000500FA6EB051FD6EB151FE6EFF6AFA505C
:1024860012001200106EF2901004D8A44DEF12F054
:102496004FEF12F067EF12F00001B651B711D8B442
:1024A60057EF12F059EF12F085EF12F002D865EFF0
:1024B60012F00500FA6EB651FD6EB751FE6EFF6A58
:1024C600FA50120085EF12F01050D8A46DEF12F0FA
:1024D6006FEF12F085EF12F00001B451B511D8B4C8
:1024E60077EF12F079EF12F085EF12F002D885EF50
:1024F60012F00500FA6EB451FD6EB551FE6EFF6A1C
:10250600FA5012001200106EF2901004D8A48EEF4A
:1025160012F090EF12F0A8EF12F00001BA51BB11C1
:10252600D8B498EF12F09AEF12F0C6EF12F002D874
:10253600A6EF12F00500FA6EBA51FD6EBB51FE6EA3
:10254600FF6AFA501200C6EF12F01050D8A4AEEF90
:1025560012F0B0EF12F0C6EF12F00001B851B91147
:10256600D8B4B8EF12F0BAEF12F0C6EF12F002D8F4
:10257600C6EF12F00500FA6EB851FD6EB951FE6E47
:10258600FF6AFA5012001200106EF2901004D8A4DE
:10259600CFEF12F0D1EF12F0E9EF12F00001BE51C9
:1025A600BF11D8B4D9EF12F0DBEF12F007EF13F03A
:1025B60002D8E7EF12F00500FA6EBE51FD6EBF516C
:1025C600FE6EFF6AFA50120007EF13F01050D8A4FF
:1025D600EFEF12F0F1EF12F007EF13F00001BC512C
:1025E600BD11D8B4F9EF12F0FBEF12F007EF13F0BC
:1025F60002D807EF13F00500FA6EBC51FD6EBD510F
:10260600FE6EFF6AFA5012001200802500010001DA
:102616000000000000000000000000055200003825
:102626002B00000000323A030B131B232B333B8095
:102636000F810F820F830F840F920F930F940F95C4
:102646000F960F5A2B0000000000015A2B000201C2
:10265600DC0B02020A121A626A727A000000050591
:102666000002020A121A222AFA2AE82A71010C2BFF
:102676000100014101081200008223000000000051
:0B2686000000000010382B00000000D6
:10269200010E0E6E0B500C10D8A452EF13F054EF33
:1026A20013F058EF13F0000E0E6E87EF13F054C0C4
:1026B2000FF00BC0D9FF0CC0DAFFDF500F0B0D6E0D
:1026C2000F500D18F80B0D180F6E0BC0D9FF0CC070
:1026D200DAFFDF38070B0D6E0D460D460D460F5023
:1026E2000D18C70B0D180F6E0F9C0BC0D9FF0CC035
:1026F200DAFFDFAE02D00F8E01D00F9E0F0E016EF9
:10270200000E026E000E036E17EC10F00E50120057
:10271200010E0E6E0B500C10D8A492EF13F094EF32
:1027220013F098EF13F0000E0E6EC7EF13F055C0C2
:102732000FF00BC0D9FF0CC0DAFFDF500F0B0D6E8C
:102742000F500D18F80B0D180F6E0BC0D9FF0CC0EF
:10275200DAFFDF38070B0D6E0D460D460D460F50A2
:102762000D18C70B0D180F6E0F9C0BC0D9FF0CC0B4
:10277200DAFFDFAE02D00F8E01D00F9E0F0E016E78
:10278200000E026E010E036E17EC10F00E501200D6
:10279200010E0B6E08500910D8A4D2EF13F0D4EF3B
:1027A20013F0D8EF13F0000E0B6E05EF14F053C0C8
:1027B2000CF008C0D9FF09C0DAFFDF500F0B0A6E18
:1027C2000C500A18F80B0A180C6E08C0D9FF09C081
:1027D200DAFFDF38070B0A6E0A460A460A460C5031
:1027E2000A18C70B0A180C6E0C9C08C0D9FF09C046
:1027F200DAFFDFAE02D00C8E01D00C9E0C0E016E01
:10280200000E026E31EC11F00B501200010E066E3A
:10281200C6C007F0C7C008F001500210D8A414EFD8
:1028220014F016EF14F01AEF14F0000E066E40EFDB
:1028320014F020EE03F00150D9260250DA22DF50C4
:10284200D8A426EF14F028EF14F02EEF14F007C0EE
:10285200BEFF08C0BFFF40EF14F020EE03F00150AE
:10286200D9260250DA22DE04D8A43AEF14F03CEF63
:1028720014F040EF14F007C0BBFF08C0BCFF0650C5
:102882001200A0869D869E96A19620EE02F0175019
:10289200D9261850DA22DECF84F0DDCF85F020EE83
:1028A20004F01750D9261850DA22DECF82F0DDCF9D
:1028B20083F020EE06F01750D9261850DA22DECF28
:1028C20080F0DDCF81F0F28CF28E1200000E00015A
:1028D200D26F000ED36F000ED66F000ED76F4A0E66
:1028E200D46F2B0ED56FDA95DA97620ED96FDA9321
:1028F200DA91060ED86FD00E0101B16F000EB26FE1
:1029020044EC0EF00001FF6F85EF14F007EF00F0CA
:102912009E900001A951CF6EA8C0CEFFAA51AB1163
:10292200D8B496EF14F098EF14F0A4EF14F002D894
:10293200A4EF14F00500FA6EAA51FD6EAB51FE6EC3
:10294200FF6AFA5012001200F2940001AD51D76EE4
:10295200ACC0D6FFAE51AF11D8B4B2EF14F0B4EFA1
:1029620014F0C0EF14F002D8C0EF14F00500FA6EB4
:10297200AE51FD6EAF51FE6EFF6AFA5012001200A8
:102982009E92A4C0CCFF0001A651A711D8B4CCEFEF
:1029920014F0CEEF14F0DAEF14F002D8DAEF14F0FC
:1029A2000500FA6EA651FD6EA751FE6EFF6AFA503F
:1029B200120012009E96000182518311D8B4E4EFF6
:1029C20014F0E6EF14F0F2EF14F002D8F2EF14F084
:1029D2000500FA6E8251FD6E8351FE6EFF6AFA5057
:1029E20012001200F0900001C251C311D8B4FCEFE2
:1029F20014F0FEEF14F00AEF15F002D80AEF15F00A
:102A02000500FA6EC251FD6EC351FE6EFF6AFA50A6
:102A120012001200F2920001C451C511D8B414EF91
:102A220015F016EF15F022EF15F002D822EF15F08F
:102A32000500FA6EC451FD6EC551FE6EFF6AFA5072
:102A4200120012009E940001CC51CD11D8B42CEF8B
:102A520015F02EEF15F03AEF15F002D83AEF15F017
:102A62000500FA6ECC51FD6ECD51FE6EFF6AFA5032
:102A7200120012000001A251A311D8B443EF15F0C5
:102A820045EF15F051EF15F002D851EF15F00500A2
:102A9200FA6EA251FD6EA351FE6EFF6AFA50120049
:102AA2001200010E056E01500210D8A45BEF15F062
:102AB2005DEF15F061EF15F0000E056E65EF15F094
:102AC2000450B36E03C0B2FF05501200890F8A0F83
:102AD2008B0F8C0F8D0F020A121A00C300005200D6
:102AE200011A1B181910680E0B6E000E0C6E49ECC1
:102AF20013F00001FF6F1200680E0B6E000E0C6ED9
:102B020089EC13F00001FF6F1200680E086E000ED0
:102B1200096EC9EC13F00001FF6F12001237173B68
:102B220017010101010200018E4B8F2B12000001DF
:102B3200904B912B12000001884B892B12009E8A28
:102B42009E9A12009D9812004F2A1200A19612001E
:0A2B5200A19012009E9C12001200D8
:020000040020DA
:08000000FFFFFFFFFFFFFFFF00
:020000040030CA
:0E000000FF02091EFF8181FF0FC00FE00F40BD
:00000001FF
