:020000040000FA
:0400000007EF00F016
:0A0008006A826CED0AF0FCEF12F0C2
:10100000003738392F3435362A3132332D23303DED
:051010002B2569000022
:101016004050800B0101A36F40504024A56F3FAEA6
:1010260017EF08F019EF08F01AEF08F0A581A5519F
:10103600D8B420EF08F022EF08F037EF08F0A52922
:10104600D8A428EF08F02AEF08F032EF08F0000ED7
:101056003D6E000E3E6E000E3F6E000E406E3F8EE1
:10106600000E406E3FEF08F0000E3D6E000E3E6E25
:10107600000E3F6E000E406E4450800BA46FA351CD
:10108600A419D8B449EF08F04BEF08F04CEF08F07C
:10109600A38D44504424A46F43AE54EF08F056EF9A
:1010A60008F057EF08F0A481A451D8B45DEF08F01A
:1010B6005FEF08F074EF08F0A429D8A465EF08F0F4
:1010C60067EF08F06FEF08F0000E416E000E426EFB
:1010D600000E436E000E446E438E000E446E7CEF8F
:1010E60008F0000E416E000E426E000E436E000EBA
:1010F600446EA551A45DD8B083EF08F085EF08F0E3
:10110600ACEF08F0A3AD8AEF08F08CEF08F08EEF95
:1011160008F0800EA31BA5C1A6F1A4C1A5F1A6C126
:10112600A4F13DC0A6F141C03DF0A6C141F03EC0CC
:10113600A6F142C03EF0A6C142F03FC0A6F143C0B0
:101146003FF0A6C143F040C0A6F144C040F0A6C19E
:1011560044F0000EA66FA551A4C19FF1A06B9F5F3E
:10116600000EA05BA0BFC1EF08F0A05109E11A0E66
:101176009F5DD8A0C1EF08F0C3EF08F0FAEF08F0C2
:101186003D503E103F104010D8A4CCEF08F0CFEFF2
:1011960008F0010ED0EF08F0000EA66F000E3D6EAF
:1011A600000E3E6E000E3F6E000E406EA4C1A5F10D
:1011B60003EF09F0A6A1E2EF08F0E4EF08F0EAEF8A
:1011C60008F0D890A6310109A66FECEF08F0D89088
:1011D600A6333DA0F1EF08F0F3EF08F0F4EF08F0C6
:1011E600A68F403440323F323E323D32A52BA451C9
:1011F600A55DD8A001EF09F003EF09F0DDEF08F0D7
:10120600A3BD08EF09F00AEF09F04AEF09F0A5516E
:10121600D8A410EF09F012EF09F01CEF09F0000E48
:101226003D6E000E3E6E000E3F6E000E406E6BEF82
:101236000AF041503D2642503E2243503F22445040
:10124600402240A029EF09F02BEF09F0D7EF09F073
:10125600A6A130EF09F032EF09F038EF09F0D89087
:10126600A6310109A66F3AEF09F0D890A6333DA042
:101276003FEF09F041EF09F042EF09F0A68F403445
:1012860040323F323E323D32A52BD7EF09F0415076
:101296003D5C42503E5843503F584050800A9F6F35
:1012A6004450800A9F59D8B05BEF09F05DEF09F012
:1012B60088EF09F03D50415C9F6F3E504258A06F49
:1012C6003F504358A16F40504458A26FFF0E9F25D0
:1012D6003D6EFF0EA0213E6EFF0EA1213F6EFF0E5A
:1012E600A221406E800EA31BA66DA651D8A47EEF48
:1012F60009F080EF09F090EF09F0010E3D26000E8F
:101306003E223F22402290EF09F041503D5E42507E
:101316003E5A43503F5A4450405A3D503E103F10AB
:101326004010D8A499EF09F09BEF09F0D0EF09F02F
:10133600A651D8A4A1EF09F0A3EF09F0D0EF09F068
:10134600000E3D6E000E3E6E000E3F6E000E406EAD
:101356006BEF0AF0D8903D363E363F364036A6AFA4
:10136600B7EF09F0B9EF09F0BAEF09F03D80A6A191
:10137600BFEF09F0C1EF09F0C5EF09F0D880A63735
:10138600C7EF09F0D890A637A551D8B4CDEF09F02C
:10139600CFEF09F0D0EF09F0A5073FAED5EF09F082
:1013A600D7EF09F0ADEF09F0000EA46FA6AFDEEFA0
:1013B60009F0E0EF09F0F8EF09F0A6C19FF17F0E02
:1013C6009F17D8B4E9EF09F0EBEF09F0EFEF09F05A
:1013D600010EA46FF8EF09F03DA0F4EF09F0F6EF67
:1013E60009F0F8EF09F0EBEF09F0A451D8B4FEEFDD
:1013F60009F000EF0AF02BEF0AF0010E3D26000E71
:101406003E223F22402240A00BEF0AF00DEF0AF0E9
:101416002BEF0AF03DC09FF13EC0A0F13FC0A1F105
:1014260040C0A2F1A235A233A133A0339F339FC19E
:101436003DF0A0C13EF0A1C13FF0A2C140F0A529F8
:10144600D8B428EF0AF02AEF0AF02BEF0AF0A52B02
:10145600A529D8B431EF0AF033EF0AF03BEF0AF0D2
:10146600A551D8A439EF0AF03BEF0AF04DEF0AF088
:10147600000E3D6E000E3E6E000E3F6E000E406E7C
:10148600A551D8A449EF0AF04BEF0AF04DEF0AF048
:10149600000EA36FA5A152EF0AF054EF0AF057EF22
:1014A6000AF03F8E58EF0AF03F9ED890A531406E65
:1014B600A3AF60EF0AF062EF0AF063EF0AF0408E26
:1014C6003DC03DF03EC03EF03FC03FF040C040F062
:1014D60012000600FACF10F0FBCF11F0D9CF12F0B0
:1014E600DACF13F0F3CF14F0F4CF15F0F2A87EEFB5
:1014F6000AF080EF0AF089EF0AF0F2A285EF0AF00F
:1015060087EF0AF089EF0AF07DEC17F0F0A68EEF70
:101516000AF090EF0AF099EF0AF0F0A095EF0AF0C2
:1015260097EF0AF099EF0AF065EC17F0F0A89EEF36
:101536000AF0A0EF0AF0A9EF0AF0F0A2A5EF0AF070
:10154600A7EF0AF0A9EF0AF065EC17F09DACAEEF35
:101556000AF0B0EF0AF0B9EF0AF09EACB5EF0AF068
:10156600B7EF0AF0B9EF0AF01BEC18F0F2A6BEEFDF
:101576000AF0C0EF0AF0DBEF0AF0F2A0C5EF0AF0BE
:10158600C7EF0AF0DBEF0AF081A8CCEF0AF0CEEF46
:101596000AF0DBEF0AF06804D8A4D4EF0AF0D6EF1D
:1015A6000AF0DBEF0AF0000E686E010E49EC14F04B
:1015B600F2A6E0EF0AF0E2EF0AF0FDEF0AF0F2A081
:1015C600E7EF0AF0E9EF0AF0FDEF0AF081B8EEEF77
:1015D6000AF0F0EF0AF0FDEF0AF06850D8A4F6EF33
:1015E6000AF0F8EF0AF0FDEF0AF0010E686E000E41
:1015F60049EC14F0F2A602EF0BF004EF0BF01FEF2C
:101606000BF0F2A009EF0BF00BEF0BF01FEF0BF056
:1016160081AA10EF0BF012EF0BF01FEF0BF067042F
:10162600D8A418EF0BF01AEF0BF01FEF0BF0000E1B
:10163600676E010E08EC14F0F2A624EF0BF026EF0D
:101646000BF041EF0BF0F2A02BEF0BF02DEF0BF0B0
:1016560041EF0BF081BA32EF0BF034EF0BF041EFB4
:101666000BF06750D8A43AEF0BF03CEF0BF041EFCC
:101676000BF0010E676E000E08EC14F0F2A646EFB2
:101686000BF048EF0BF063EF0BF0F2A04DEF0BF011
:101696004FEF0BF063EF0BF081AC54EF0BF056EF0E
:1016A6000BF063EF0BF06604D8A45CEF0BF05EEF73
:1016B6000BF063EF0BF0000E666E010EC7EC13F035
:1016C600F2A668EF0BF06AEF0BF085EF0BF0F2A0D5
:1016D6006FEF0BF071EF0BF085EF0BF081BC76EF3F
:1016E6000BF078EF0BF085EF0BF06650D8A47EEF89
:1016F6000BF080EF0BF085EF0BF0010E666E000E1F
:10170600C7EC13F0F2A68AEF0BF08CEF0BF0A7EF05
:101716000BF0F2A091EF0BF093EF0BF0A7EF0BF0AD
:1017260081AE98EF0BF09AEF0BF0A7EF0BF0650484
:10173600D8A4A0EF0BF0A2EF0BF0A7EF0BF0000E72
:10174600656E010E86EC13F0F2A6ACEF0BF0AEEF71
:101756000BF0C9EF0BF0F2A0B3EF0BF0B5EF0BF007
:10176600C9EF0BF081BEBAEF0BF0BCEF0BF0C9EF7F
:101776000BF06550D8A4C2EF0BF0C4EF0BF0C9EF25
:101786000BF0010E656E000E86EC13F0F2AACEEF9A
:101796000BF0D0EF0BF0D9EF0BF0F2A4D5EF0BF076
:1017A600D7EF0BF0D9EF0BF017EC17F09DA0DEEF9B
:1017B6000BF0E0EF0BF0E9EF0BF09EA0E5EF0BF07E
:1017C600E7EF0BF0E9EF0BF0FBEC16F09DA2EEEF66
:1017D6000BF0F0EF0BF0F9EF0BF09EA2F5EF0BF02C
:1017E600F7EF0BF0F9EF0BF033EC17F0A0A2FEEFDA
:1017F6000BF000EF0CF009EF0CF0A1A205EF0CF0D6
:1018060007EF0CF009EF0CF0ADEC17F09DA40EEF0E
:101816000CF010EF0CF019EF0CF09EA415EF0CF085
:1018260017EF0CF019EF0CF095EC17F0A0A01EEFD7
:101836000CF020EF0CF029EF0CF0A1A025EF0CF036
:1018460027EF0CF029EF0CF019EC18F09DAA2EEFFB
:101856000CF030EF0CF039EF0CF09EAA35EF0CF0DF
:1018660037EF0CF039EF0CF012EC18F09DA83EEFB4
:101876000CF040EF0CF049EF0CF09EA845EF0CF091
:1018860047EF0CF049EF0CF015EC18F09DA64EEF63
:101896000CF050EF0CF059EF0CF09EA655EF0CF043
:1018A60057EF0CF059EF0CF04DEC17F0A0A65EEFD9
:1018B6000CF060EF0CF069EF0CF0A1A665EF0CF0F0
:1018C60067EF0CF069EF0CF017EC18F015C0F4FF99
:1018D60014C0F3FF13C0DAFF12C0D9FF11C0FBFF1B
:1018E60010C0FAFF6A9211002750800B346E275001
:1018F60027243B6E26AE82EF0CF084EF0CF085EFCA
:101906000CF03B803B50D8B48BEF0CF08DEF0CF015
:10191600A2EF0CF03B28D8A493EF0CF095EF0CF057
:101926009DEF0CF0000E246E000E256E000E266E46
:10193600000E276E268E000E276EAAEF0CF0000E04
:10194600246E000E256E000E266E000E276E2B509E
:10195600800B341A2B502B243C6E2AAEB5EF0CF0BC
:10196600B7EF0CF0B8EF0CF03C803C50D8B4BEEFAB
:101976000CF0C0EF0CF0D5EF0CF03C28D8A4C6EF65
:101986000CF0C8EF0CF0D0EF0CF0000E286E000E35
:10199600296E000E2A6E000E2B6E2A8E000E2B6EFE
:1019A600DDEF0CF0000E286E000E296E000E2A6E7A
:1019B600000E2B6E285029102A102B10D8A4E6EF03
:1019C6000CF0E8EF0CF000EF0DF0000E246E000EA8
:1019D600256E000E266E000E276E800E26127F0ED6
:1019E60027123450271224C024F025C025F026C023
:1019F60026F027C027F043EF0EF03B50D8A406EFA1
:101A06000DF008EF0DF012EF0DF0000E246E000E33
:101A1600256E000E266E000E276E43EF0EF03C502C
:101A26003BC02CF02D6A2C5E000E2D5A7F0E2C2406
:101A3600356E000E2D20366E24C030F025C031F0F4
:101A460026C032F027C033F0000E246E000E256E3D
:101A5600000E266E000E276E000E376E000E386ED4
:101A6600000E396E000E3A6E000E3C6E73EF0DF0EE
:101A76003C50D8B441EF0DF043EF0DF05AEF0DF0A6
:101A8600D8903036313632363336D890243625362D
:101A9600263627363AAE52EF0DF054EF0DF055EFDD
:101AA6000DF02480D8903736383639363A362850F5
:101AB600305C295031582A5032582B503358D8A010
:101AC60067EF0DF069EF0DF072EF0DF03A8C2850CC
:101AD600305E2950315A2A50325A2B50335A3C2AFA
:101AE600190E3C6479EF0DF07BEF0DF03BEF0DF036
:101AF6003050311032103310D8B484EF0DF086EF29
:101B06000DF09EEF0DF037809EEF0DF0D890243645
:101B16002536263627363AAE93EF0DF095EF0DF0C3
:101B260096EF0DF02480D8903736383639363A3667
:101B36003506D8A0360626AEA3EF0DF0A5EF0DF0BC
:101B460089EF0DF0000E3C6E3AAEACEF0DF0AEEF45
:101B56000DF0D2EF0DF0FF0E37142C6EFF0E381479
:101B66002D6EFF0E39142E6E7F0E3A142F6E2C50EA
:101B76002D102E102F10D8B4C3EF0DF0C5EF0DF0B9
:101B8600C9EF0DF0010E3C6ED2EF0DF024A0CEEFA2
:101B96000DF0D0EF0DF0D2EF0DF0C5EF0DF03C508B
:101BA600D8B4D8EF0DF0DAEF0DF0FEEF0DF0010E20
:101BB6002426000E25222622272227A0E5EF0DF057
:101BC600E7EF0DF0FEEF0DF024C02CF025C02DF050
:101BD60026C02EF027C02FF02F342F322E322D3272
:101BE6002C322CC024F02DC025F02EC026F02FC09C
:101BF60027F0354A362A36BE09EF0EF0365008E190
:101C06003528D8A009EF0EF00BEF0EF016EF0EF008
:101C1600000E366E3568000E246E000E256E000E20
:101C2600266E000E276E36BE23EF0EF0365006E106
:101C36003504D8B021EF0EF023EF0EF031EF0EF0A1
:101C4600000E366E000E356E000E246E000E256EEA
:101C5600000E266E000E276E000E346E35C03BF069
:101C66003BA038EF0EF03AEF0EF03DEF0EF0268E69
:101C76003EEF0EF0269ED8903B30276EF4EF0CF028
:101C86001200010E0101B36FAF51B011D8A44EEF8F
:101C96000EF050EF0EF054EF0EF0000EB36F3BEF68
:101CA6000FF0C68A20EE0AF0AF51D926B051DA22DB
:101CB600DFA060EF0EF062EF0EF0B3EF0EF020EE55
:101CC60008F0AF51D926B051DA22DF50B16FC650B5
:101CD600B119F00BB119C66E000E416E000E426EC0
:101CE600800E436EBF0E446EAFC1D9FFB0C1DAFF9E
:101CF600DECFB1F1DDCFB2F1B1C116F0B2C117F04E
:101D0600186A196A000E3EEC0FF016C028F017C0CC
:101D160029F018C02AF019C02BF0000E246E240EEC
:101D2600256EF40E266E490E276E77EC0CF024C055
:101D36003DF025C03EF026C03FF027C040F00BEC3A
:101D460008F03DC0A7F13EC0A8F13FC0A9F140C0D0
:101D5600AAF1E1EC11F00101A751C86EF6EF0EF001
:101D660020EE0AF0AF51D926B051DA22DFB0BEEF2D
:101D76000EF0C0EF0EF0F6EF0EF020EE0AF0AF51C7
:101D8600D926B051DA22DFA6CBEF0EF0CDEF0EF05A
:101D9600D0EF0EF0C58EDEEF0EF020EE0AF0AF515A
:101DA600D926B051DA22DFB6DBEF0EF0DDEF0EF00A
:101DB600DEEF0EF0C59EC69EC69CC68820EE09F0D4
:101DC600AF51D926B051DA22DF50C86E20EE08F0A6
:101DD600AF51D926B051DA22DF50B16FC650B119D2
:101DE600F00BB119C66E9486948820EE0AF0AF51B6
:101DF600D926B051DA22DFA203EF0FF005EF0FF07C
:101E060008EF0FF0C78E16EF0FF020EE0AF0AF5175
:101E1600D926B051DA22DFB213EF0FF015EF0FF02B
:101E260016EF0FF0C79E20EE0AF0AF51D926B0513B
:101E3600DA22DFA221EF0FF023EF0FF026EF0FF0EB
:101E4600C78E34EF0FF020EE0AF0AF51D926B0510D
:101E5600DA22DFB231EF0FF033EF0FF034EF0FF08D
:101E6600C79EAFC116F0B0C117F0B8EC16F0C68A1F
:101E76000101B35112001E6E1E50D8B445EF0FF08B
:101E860047EF0FF069EF0FF019BE4EEF0FF04CEF72
:101E96000FF069EF0FF016C01AF017C01BF018C04C
:101EA6001CF019C01DF01A1E1B1E1C1E1D1E1A2A10
:101EB600000E1B221C221D221AC020F01BC021F07E
:101EC6001CC022F01DC023F071EF0FF016C020F0E9
:101ED60017C021F018C022F019C023F016501710B1
:101EE60018101910D8A47AEF0FF07CEF0FF086EFD8
:101EF6000FF0000E166E000E176E000E186E000E16
:101F0600196E17EF10F0960E1F6E90EF0FF01F2A46
:101F1600D8902332223221322032000E20141A6E3B
:101F2600000E21141B6E000E22141C6EFE0E2314CE
:101F36001D6E1A501B101C101D10D8A4A5EF0FF013
:101F4600A7EF0FF08AEF0FF0B5EF0FF01F2A010E83
:101F56002026000E212222222322D890233222324A
:101F660021322032000E20141A6E000E21141B6E30
:101F7600000E22141C6EFF0E23141D6E1A501B1029
:101F86001C101D10D8A4CAEF0FF0CCEF0FF0A9EF6C
:101F96000FF0D4EF0FF01F06D890203621362236E8
:101FA600233622BED9EF0FF0DBEF0FF0E3EF0FF091
:101FB600020E1F60E1EF0FF0E3EF0FF0CEEF0FF030
:101FC6001FB0E8EF0FF0EAEF0FF0EBEF0FF0229EF5
:101FD600D8901F321FC01AF01B6A1C6A1D6A1AC0ED
:101FE6001DF01C6A1B6A1A6A1A5020121B50211215
:101FF6001C5022121D5023121E50D8B405EF10F0AB
:1020060007EF10F00FEF10F019BE0EEF10F00CEF07
:1020160010F00FEF10F0238E20C016F021C017F03D
:1020260022C018F023C019F01200010E1E6E1650C1
:102036001710D8B421EF10F023EF10F034EF10F0A2
:1020460016C0D9FF17C0DAFFDF30E832E832070BD7
:10205600186E070E186432EF10F034EF10F097EF99
:1020660010F0000E1E6EB8EF10F016C0D9FF17C0A4
:10207600DAFFDF30E832E832070B186E010E196E10
:10208600182A48EF10F0D8901936182E46EF10F09F
:102096001950FF0A1A6E16C0D9FF17C0DAFFDF50B3
:1020A600070B1B6E1B50020D2F0EF324D96E010E6B
:1020B600F420DA6EDECF1CF0DDCF1DF01CC0D9FF98
:1020C6001DC0DAFF1A50DF16B8EF10F016C0D9FFA0
:1020D60017C0DAFFDF30E832E832070B186E010E60
:1020E600196E182A79EF10F0D8901936182E77EF56
:1020F60010F016C0D9FF17C0DAFFDF50070B1A6EB3
:102106001A50020D2F0EF324D96E010EF420DA6E4A
:10211600DECF1BF0DDCF1CF01BC0D9FF1CC0DAFFE1
:102126001950DF12B8EF10F016C0D9FF17C0DAFF4A
:10213600DFBCA0EF10F0A3EF10F0010EA4EF10F03B
:10214600000E186E196A1950000AD8B4ADEF10F0D7
:1021560034EF10F01850000AD8B438EF10F0010A26
:10216600D8B469EF10F034EF10F01E501200010ED3
:102176001F6E16501710D8B4C3EF10F0C5EF10F04D
:10218600D6EF10F016C0D9FF17C0DAFFDF30E832FD
:10219600E832070B196E070E1964D4EF10F0D6EF6C
:1021A60010F039EF11F0000E1F6E4EEF11F016C051
:1021B600D9FF17C0DAFFDF30E832E832070B196EB5
:1021C600010E1A6E192AEAEF10F0D8901A36192E57
:1021D600E8EF10F01A50FF0A1B6E16C0D9FF17C0A1
:1021E600DAFFDF50070B1C6E1C50020DE50EF324C0
:1021F600D96E000EF420DA6EDECF1DF0DDCF1EF0B4
:102206001DC0D9FF1EC0DAFF1B50DF164EEF11F0BE
:1022160016C0D9FF17C0DAFFDF30E832E832070B05
:10222600196E010E1A6E192A1BEF11F0D8901A3684
:10223600192E19EF11F016C0D9FF17C0DAFFDF50BB
:10224600070B1B6E1B50020DE50EF324D96E000E14
:10225600F420DA6EDECF1CF0DDCF1DF01CC0D9FFF6
:102266001DC0DAFF1A50DF124EEF11F01850196E2A
:102276001A6A1A50000AD8B443EF11F0D6EF10F0DC
:102286001950000AD8B4DAEF10F0010AD8B40BEFEF
:1022960011F0D6EF10F01F50120001500210D8B402
:1022A60057EF11F059EF11F06AEF11F001C0D9FFA5
:1022B60002C0DAFFDF30E832E832070B046E070EA1
:1022C600046468EF11F06AEF11F0CBEF11F0E0EF64
:1022D60011F001C0D9FF02C0DAFFDF30E832E83280
:1022E600070B046E010E056E042A7CEF11F0D890E0
:1022F6000536042E7AEF11F00550FF0A066E01C06E
:10230600D9FF02C0DAFFDF50070B076E0750020D38
:10231600E50EF324D96E000EF420DA6EDECF08F057
:10232600DDCF09F008C0D9FF09C0DAFF0650DF1675
:10233600E0EF11F001C0D9FF02C0DAFFDF30E8326A
:10234600E832070B046E010E056E042AADEF11F09C
:10235600D8900536042EABEF11F001C0D9FF02C0AC
:10236600DAFFDF50070B066E0650020DE50EF3246A
:10237600D96E000EF420DA6EDECF07F0DDCF08F05E
:1023860007C0D9FF08C0DAFF0550DF12E0EF11F0F1
:102396000350046E056A0550000AD8B4D5EF11F053
:1023A6006AEF11F00450000AD8B46CEF11F0010A7C
:1023B600D8B49DEF11F06AEF11F012000101A935B2
:1023C600AA35466E4650D8A4EBEF11F0EDEF11F0AA
:1023D600F7EF11F0000EA76F000EA86F000EA96FA1
:1023E600000EAA6F64EF12F0A7C1ABF1A8C1ACF161
:1023F600A9C1ADF1AAC1AEF1200E07EF12F0D89037
:10240600AE33AD33AC33AB33E82E02EF12F0AB5143
:10241600456EA98FFF0EA717FF0EA817FF0EA91767
:10242600000EAA17960E465E46BE1EEF12F01CEF71
:1024360012F034EF12F04650800A970FD8B026EF0C
:1024460012F028EF12F02AEF12F0EDEF11F0D8900B
:10245600AA33A933A833A733463E2AEF12F04CEF2E
:1024660012F01F0E46643AEF12F03CEF12F044EF02
:1024760012F0EDEF11F0D890A737A837A937AA3791
:1024860046064650D8A44AEF12F04CEF12F03EEF43
:1024960012F04550D8B452EF12F054EF12F05CEF40
:1024A60012F0AA1FA91FA81FA76D000EA823A92313
:1024B600AA23A7C1A7F1A8C1A8F1A9C1A9F1AAC1D8
:1024C600AAF11200000E0001D26F000ED36F000EAB
:1024D600D66F000ED76FBA0ED46F2D0ED56FDA9564
:1024E600DA97600ED96FDA93DA91060ED86FD00EAE
:1024F6000101AF6F000EB06F44EC0EF00001FF6FEC
:10250600690E246E000E256ECBEC15F00001FF6FF0
:10251600610E4F18D8A492EF12F094EF12F09EEFCE
:1025260012F0690E206E000E216ECBEC14F0000145
:10253600FF6F8BEF12F0630E4F18D8A4A5EF12F0C1
:10254600A7EF12F08BEF12F0690E206E000E216ECF
:102556000BEC15F00001FF6F8BEF12F007EF00F0A8
:1025660001500210D8B4BAEF12F0BCEF12F0CDEF62
:1025760012F001C0D9FF02C0DAFFDF30E832E832DC
:10258600070B036E070E0364CBEF12F0CDEF12F0CC
:10259600CFEF12F0FBEF12F001C0D9FF02C0DAFF55
:1025A600DF30E832E832070B036E010E046E032AB1
:1025B600DFEF12F0D8900436032EDDEF12F001C0E3
:1025C600D9FF02C0DAFFDF50070B056E0550020D7A
:1025D600E50EF324D96E000EF420DA6EDECF06F097
:1025E600DDCF07F006C0D9FF07C0DAFF0450DF1AB7
:1025F6001200140EF66E290EF76E000EF86E01EE3E
:1026060000F010EE81F00900F5CFEEFFE550E15045
:10261600FAE1B20EF66E2F0EF76E000EF86E00EEB1
:10262600E5F010EE1AF00900F5CFEEFFE550E150A7
:10263600FAE1020EF66E300EF76E000EF86E00EE40
:1026460060F010EE0AF00900F5CFEEFFE550E1501C
:10265600FAE101EE81F01E0EEE6AE806FDE100EEFB
:1026660080F0650EEE6AE806FDE100EE47F0190E11
:10267600EE6AE806FDE16A906A92000165EF12F0E3
:10268600482A750E016E010E026E000E046E000ED3
:10269600036EC4EC17F00001FF6F4804D8A456EF90
:1026A60013F058EF13F06AEF13F06A0E016E010E85
:1026B600026E300E046ED40E036E47EC16F0000167
:1026C600FF6FBD50F00B0909BD6E85EF13F0020ECA
:1026D6004818D8A471EF13F073EF13F085EF13F0D9
:1026E6006A0E016E010E026E920E046E7C0E036E71
:1026F60047EC16F00001FF6FBD50F00B0809BD6EE8
:10270600000E486E12000F6EF2900F04D8A48EEFE2
:1027160013F090EF13F0A8EF13F00001AC51AD11D8
:10272600D8B498EF13F09AEF13F0C6EF13F002D86F
:10273600A6EF13F00500FA6EAC51FD6EAD51FE6EBC
:10274600FF6AFA501200C6EF13F00F50D8A4AEEF8E
:1027560013F0B0EF13F0C6EF13F00001AA51AB115E
:10276600D8B4B8EF13F0BAEF13F0C6EF13F002D8EF
:10277600C6EF13F00500FA6EAA51FD6EAB51FE6E60
:10278600FF6AFA50120012000F6EF2900F04D8A4DE
:10279600CFEF13F0D1EF13F0E9EF13F00001B051D2
:1027A600B111D8B4D9EF13F0DBEF13F007EF14F043
:1027B60002D8E7EF13F00500FA6EB051FD6EB15185
:1027C600FE6EFF6AFA50120007EF14F00F50D8A4FD
:1027D600EFEF13F0F1EF13F007EF14F00001AE5135
:1027E600AF11D8B4F9EF13F0FBEF13F007EF14F0C5
:1027F60002D807EF14F00500FA6EAE51FD6EAF5128
:10280600FE6EFF6AFA50120012000F6EF2900F046D
:10281600D8A410EF14F012EF14F02AEF14F0000110
:10282600B451B511D8B41AEF14F01CEF14F048EFF8
:1028360014F002D828EF14F00500FA6EB451FD6EBC
:10284600B551FE6EFF6AFA50120048EF14F00F50B1
:10285600D8A430EF14F032EF14F048EF14F0000172
:10286600B251B311D8B43AEF14F03CEF14F048EF7C
:1028760014F002D848EF14F00500FA6EB251FD6E5E
:10288600B351FE6EFF6AFA50120012000F6EF290FC
:102896000F04D8A451EF14F053EF14F06BEF14F0BB
:1028A6000001B851B911D8B45BEF14F05DEF14F024
:1028B60089EF14F002D869EF14F00500FA6EB851EA
:1028C600FD6EB951FE6EFF6AFA50120089EF14F0E0
:1028D6000F50D8A471EF14F073EF14F089EF14F0D1
:1028E6000001B651B711D8B47BEF14F07DEF14F0A8
:1028F60089EF14F002D889EF14F00500FA6EB6518C
:10290600FD6EB751FE6EFF6AFA5012001200802566
:1029160000010001000000000000000000000005AA
:102926005200001C3000000000323A030B131B2338
:102936002B333B800F810F820F830F840F920F93EF
:102946000F940F950F960F3A300000000000013AE1
:1029560030000201DC0B02020A121A626A727A0065
:10296600000005050002020A121A222ADE2FCC2FC9
:102976007101F02F010001410108120000862600B6
:0F2986000000000000000000101C3000000000E6
:10299600010E236E20502110D8A4D4EF14F0D6EFE8
:1029A60014F0DAEF14F0000E236E09EF15F056C09E
:1029B60024F020C0D9FF21C0DAFFDF500F0B226EB2
:1029C60024502218F80B2218246E20C0D9FF21C0EB
:1029D600DAFFDF38070B226E2246224622462450B3
:1029E6002218C70B2218246E249C20C0D9FF21C0B0
:1029F600DAFFDFAE02D0248E01D0249E240E166E9E
:102A0600000E176E010E186EBAEC10F0235012006D
:102A1600010E236E20502110D8A414EF15F016EFE6
:102A260015F01AEF15F0000E236E49EF15F055C09C
:102A360024F020C0D9FF21C0DAFFDF500F0B226E31
:102A460024502218F80B2218246E20C0D9FF21C06A
:102A5600DAFFDF38070B226E224622462246245032
:102A66002218C70B2218246E249C20C0D9FF21C02F
:102A7600DAFFDFAE02D0248E01D0249E240E166E1D
:102A8600000E176E000E186EBAEC10F023501200EE
:102A9600010E0D6E0A500B10D8A454EF15F056EF28
:102AA60015F05AEF15F0000E0D6E89EF15F055C0B2
:102AB6000EF00AC0D9FF0BC0DAFFDF500F0B0C6E09
:102AC6000E500C18F80B0C180E6E0AC0D9FF0BC06E
:102AD600DAFFDF38070B0C6E0C460C460C460E5020
:102AE6000C18C70B0C180E6E0E9C0AC0D9FF0BC033
:102AF600DAFFDFAE02D00E8E01D00E9E0E0E016EF4
:102B0600000E026E000E036E50EC11F00D50120016
:102B1600010E0D6E0A500B10D8A494EF15F096EF27
:102B260015F09AEF15F0000E0D6EC9EF15F056C0B0
:102B36000EF00AC0D9FF0BC0DAFFDF500F0B0C6E88
:102B46000E500C18F80B0C180E6E0AC0D9FF0BC0ED
:102B5600DAFFDF38070B0C6E0C460C460C460E509F
:102B66000C18C70B0C180E6E0E9C0AC0D9FF0BC0B2
:102B7600DAFFDFAE02D00E8E01D00E9E0E0E016E73
:102B8600000E026E010E036E50EC11F00D50120095
:102B9600010E276E24502510D8A4D4EF15F0D6EFD9
:102BA60015F0DAEF15F0000E276E07EF16F057C096
:102BB60028F024C0D9FF25C0DAFFDF500F0B266EA0
:102BC60028502618F80B2618286E24C0D9FF25C0D1
:102BD600DAFFDF38070B266E26462646264628509D
:102BE6002618C70B2618286E289C24C0D9FF25C096
:102BF600DAFFDFAE02D0288E01D0289E280E206E86
:102C0600000E216E82EC16F027501200010E0B6E9C
:102C160008500910D8A412EF16F014EF16F018EFAA
:102C260016F0000E0B6E45EF16F054C00CF008C0FF
:102C3600D9FF09C0DAFFDF500F0B0A6E0C500A18D5
:102C4600F80B0A180C6E08C0D9FF09C0DAFFDF3886
:102C5600070B0A6E0A460A460A460C500A18C70BA4
:102C66000A180C6E0C9C08C0D9FF09C0DAFFDFAE4B
:102C760002D00C8E01D00C9E0C0E016E000E026E60
:102C8600B3EC12F00B501200010E066EC6C007F030
:102C9600C7C008F001500210D8A454EF16F056EF42
:102CA60016F05AEF16F0000E066E80EF16F020EEC4
:102CB60003F00150D9260250DA22DF50D8A466EF7D
:102CC60016F068EF16F06EEF16F007C0BEFF08C0EC
:102CD600BFFF80EF16F020EE03F00150D926025018
:102CE600DA22DE04D8A47AEF16F07CEF16F080EF35
:102CF60016F007C0BBFF08C0BCFF065012002050EC
:102D06002110D8B489EF16F08BEF16F09CEF16F071
:102D160020C0D9FF21C0DAFFDF30E832E832070BE6
:102D2600226E070E22649AEF16F09CEF16F0A0EFC3
:102D360016F0000E236EB6EF16F020C016F021C076
:102D460017F018EC10F0236E20C016F021C017F013
:102D560020C0D9FF21C0DAFF000EDFBE010E186EBB
:102D6600BAEC10F0236E23501200A0869D869E9624
:102D7600A19620EE02F01650D9261750DA22DECFA1
:102D8600C4F0DDCFC5F020EE04F01650D92617505A
:102D9600DA22DECFC2F0DDCFC3F020EE06F0165009
:102DA600D9261750DA22DECFC0F0DDCFC1F0F28C83
:102DB600F28E1200C698C7B4E3EF16F0E5EF16F0F0
:102DC600F8EF16F0C7BAEAEF16F0ECEF16F0F8EFE8
:102DD60016F0C950C7A0F2EF16F0F4EF16F0EDEFBB
:102DE60016F0C9CF4FF0F9EF16F0C750C68812009B
:102DF6009E900001A351CF6EA2C0CEFFA451A51193
:102E0600D8B408EF17F00AEF17F016EF17F002D84C
:102E160016EF17F00500FA6EA451FD6EA551FE6E71
:102E2600FF6AFA5012001200F2940001A751D76E01
:102E3600A6C0D6FFA851A911D8B424EF17F026EFE3
:102E460017F032EF17F002D832EF17F00500FA6EDE
:102E5600A851FD6EA951FE6EFF6AFA5012001200CB
:102E66009E929EC0CCFF0001A051A111D8B43EEFA6
:102E760017F040EF17F04CEF17F002D84CEF17F0B1
:102E86000500FA6EA051FD6EA151FE6EFF6AFA5062
:102E9600120012009E960001C251C311D8B456EF1B
:102EA60017F058EF17F064EF17F002D864EF17F039
:102EB6000500FA6EC251FD6EC351FE6EFF6AFA50EE
:102EC60012001200F0900001BC51BD11D8B46EEF93
:102ED60017F070EF17F07CEF17F002D87CEF17F0C1
:102EE6000500FA6EBC51FD6EBD51FE6EFF6AFA50CA
:102EF60012001200F2920001BE51BF11D8B486EF43
:102F060017F088EF17F094EF17F002D894EF17F048
:102F16000500FA6EBE51FD6EBF51FE6EFF6AFA5095
:102F2600120012009E940001CC51CD11D8B49EEF30
:102F360017F0A0EF17F0ACEF17F002D8ACEF17F0D0
:102F46000500FA6ECC51FD6ECD51FE6EFF6AFA5049
:102F56001200120000019C519D11D8B4B5EF17F074
:102F6600B7EF17F0C3EF17F002D8C3EF17F005005D
:102F7600FA6E9C51FD6E9D51FE6EFF6AFA5012006C
:102F86001200010E056E01500210D8A4CDEF17F005
:102F9600CFEF17F0D3EF17F0000E056ED7EF17F04F
:102FA6000450B36E03C0B2FF05501200890F8A0F9A
:102FB6008B0F8C0F8D0F020A121A00C300005200ED
:102FC600011A1B181910690E0A6E000E0B6E4BECD7
:102FD60015F00001FF6F1200690E0A6E000E0B6EEF
:102FE6008BEC15F00001FF6F1200690E086E000EE3
:102FF600096E09EC16F00001FF6F12001237173B3D
:103006001701010101020001884B892B1200000102
:103016008A4B8B2B12000001824B832B12009E8A57
:103026009E9A12009D981200A1961200A19012007D
:063036009E9C1200120036
:020000040020DA
:08000000FFFFFFFFFFFFFFFF00
:020000040030CA
:0E000000FF02091EFF8181FF0FC00FE00F40BD
:00000001FF
