:020000040000FA
:0400000007EF00F016
:0A0008006982BEED0EF05FEF13F009
:10100000003738392F3435362A3132332D23303DED
:051010002B2569000022
:10101600000E01018D6F000E8E6F000E8F6F000E99
:10102600906F3CEF0AF0AC98AC94B89646C0D9FFE6
:1010360047C0DAFFDECF8BF1DDCF8CF18BC117F025
:101046008CC118F0196A1A6A000E89EC10F017C0E4
:1010560029F018C02AF019C02BF01AC02CF0000E87
:10106600256E240E266EF40E276E4A0E286EF1ECBF
:101076000CF025C091F126C092F127C093F128C04B
:1010860094F1000E296E000E2A6E800E2B6E420E13
:101096002C6E91C125F092C126F093C127F094C120
:1010A60028F0F1EC0CF025C03EF026C03FF027C03A
:1010B60040F028C041F0000E426E000E436E800ED6
:1010C600446EBF0E456E83EC0AF03EC08DF13FC004
:1010D6008EF140C08FF141C090F167EF0AF0AC98F5
:1010E600AC84B89646C0D9FF47C0DAFFDECF8BF195
:1010F600DDCF8CF18BC117F08CC118F0196A1A6A12
:10110600000E89EC10F017C029F018C02AF019C09B
:101116002BF01AC02CF0000E256E240E266EF40E4F
:10112600276E4A0E286EF1EC0CF025C091F126C010
:1011360092F127C093F128C094F1000E296E000E9B
:101146002A6E800E2B6E410E2C6E91C125F092C137
:1011560026F093C127F094C128F0F1EC0CF025C0DD
:101166003EF026C03FF027C040F028C041F0000EF8
:10117600426E000E436E800E446EBF0E456E83ECCB
:101186000AF03EC08DF13FC08EF140C08FF141C0E4
:1011960090F167EF0AF0AC98AC94B88646C0D9FFD8
:1011A60047C0DAFFDECF8BF1DDCF8CF18BC117F0B4
:1011B6008CC118F0196A1A6A000E89EC10F017C073
:1011C60029F018C02AF019C02BF01AC02CF0000E16
:1011D600256E240E266EF40E276E4A0E286EF1EC4E
:1011E6000CF025C091F126C092F127C093F128C0DA
:1011F60094F1000E296E000E2A6E800E2B6E410EA3
:101206002C6E91C125F092C126F093C127F094C1AE
:1012160028F0F1EC0CF025C03EF026C03FF027C0C8
:1012260040F028C041F0000E426E000E436E800E64
:10123600446EBF0E456E83EC0AF03EC08DF13FC092
:101246008EF140C08FF141C090F167EF0AF0AC9883
:10125600AC84B88646C0D9FF47C0DAFFDECF8BF133
:10126600DDCF8CF18BC117F08CC118F0196A1A6AA0
:10127600000E89EC10F017C029F018C02AF019C02A
:101286002BF01AC02CF0000E256E240E266EF40EDE
:10129600276E4A0E286EF1EC0CF025C091F126C09F
:1012A60092F127C093F128C094F1000E296E000E2A
:1012B6002A6E800E2B6E400E2C6E91C125F092C1C7
:1012C60026F093C127F094C128F0F1EC0CF025C06C
:1012D6003EF026C03FF027C040F028C041F0000E87
:1012E600426E000E436E800E446EBF0E456E83EC5A
:1012F6000AF03EC08DF13FC08EF140C08FF141C073
:1013060090F167EF0AF0AC98B89646C0D9FF47C08F
:10131600DAFFDECF8BF1DDCF8CF18BC117F08CC1FC
:1013260018F0196A1A6A000E89EC10F017C029F035
:1013360018C02AF019C02BF01AC02CF0000E256E2A
:10134600240E266EF40E276E4A0E286EF1EC0CF073
:1013560025C091F126C092F127C093F128C094F1DF
:10136600000E296E000E2A6E800E2B6E400E2C6E1D
:1013760091C125F092C126F093C127F094C128F0BF
:10138600F1EC0CF025C03EF026C03FF027C040F03F
:1013960028C041F0000E426E000E436E800E446E71
:1013A600BF0E456E83EC0AF03EC08DF13FC08EF154
:1013B60040C08FF141C090F167EF0AF0AC88B88663
:1013C60046C0D9FF47C0DAFFDECF8BF1DDCF8CF107
:1013D6008BC117F08CC118F0196A1A6A000E89ECD5
:1013E60010F017C029F018C02AF019C02BF01AC047
:1013F6002CF0000E256E240E266EF40E276E4A0E75
:10140600286EF1EC0CF025C091F126C092F127C0B0
:1014160093F128C094F1000E296E000E2A6E800EFC
:101426002B6E400E2C6E91C125F092C126F093C111
:1014360027F094C128F0F1EC0CF025C03EF026C050
:101446003FF027C040F028C041F0000E426E000E6B
:10145600436E800E446EBF0E456E83EC0AF03EC0AE
:101466008DF13FC08EF140C08FF141C090F167EF22
:101476000AF020EE02F04650D9264750DA22DF5015
:101486008B6F8C6B8C51000AD8B44CEF0AF067EF67
:101496000AF08B51000AD8B416EF08F0010AD8B446
:1014A60072EF08F0030AD8B4CEEF08F0010AD8B4F8
:1014B6002AEF09F0070AD8B486EF09F0010AD8B472
:1014C600E1EF09F067EF0AF08DC117F08EC118F051
:1014D6008FC119F090C11AF0F9EC11F01750AF6EE8
:1014E6008DC117F08EC118F08FC119F090C11AF096
:1014F600F9EC11F018C017F0186A1750B06E120008
:101506004150800B0101876F41504124896F40AEE5
:101516008FEF0AF091EF0AF092EF0AF08981895174
:10152600D8B498EF0AF09AEF0AF0AFEF0AF08929DB
:10153600D8A4A0EF0AF0A2EF0AF0AAEF0AF0000E74
:101546003E6E000E3F6E000E406E000E416E408EE7
:10155600000E416EB7EF0AF0000E3E6E000E3F6EB3
:10156600000E406E000E416E4550800B886F87510D
:101576008819D8B4C1EF0AF0C3EF0AF0C4EF0AF035
:10158600878D45504524886F44AECCEF0AF0CEEFE8
:101596000AF0CFEF0AF088818851D8B4D5EF0AF067
:1015A600D7EF0AF0ECEF0AF08829D8A4DDEF0AF0AD
:1015B600DFEF0AF0E7EF0AF0000E426E000E436E10
:1015C600000E446E000E456E448E000E456EF4EF1E
:1015D6000AF0000E426E000E436E000E446E000EC0
:1015E600456E8951885DD8B0FBEF0AF0FDEF0AF031
:1015F60024EF0BF087AD02EF0BF004EF0BF006EFD4
:101606000BF0800E871B89C18AF188C189F18AC1D6
:1016160088F13EC08AF142C03EF08AC142F03FC026
:101626008AF143C03FF08AC143F040C08AF144C00A
:1016360040F08AC144F041C08AF145C041F08AC1F8
:1016460045F0000E8A6F895188C1FBF00001FC6BE2
:10165600FB5F000EFC5BFCBF3AEF0BF0FC5109E1AF
:101666001A0EFB5DD8A03AEF0BF03CEF0BF074EFCF
:101676000BF03E503F1040104110D8A445EF0BF040
:1016860048EF0BF0010E49EF0BF0000E01018A6FD7
:10169600000E3E6E000E3F6E000E406E000E416E56
:1016A60088C189F17EEF0BF08AA15CEF0BF05EEF4B
:1016B6000BF064EF0BF0D8908A3101098A6F66EF60
:1016C6000BF0D8908A333EA06BEF0BF06DEF0BF06A
:1016D6006EEF0BF08A8F4134413240323F323E3258
:1016E600892B01018851895DD8A07CEF0BF07EEF34
:1016F6000BF057EF0BF087BD83EF0BF085EF0BF088
:10170600C5EF0BF08951D8A48BEF0BF08DEF0BF0E2
:1017160097EF0BF0000E3E6E000E3F6E000E406E11
:10172600000E416EF0EF0CF042503E2643503F2231
:10173600445040224550412241A0A4EF0BF0A6EFB1
:101746000BF056EF0CF08AA1ABEF0BF0ADEF0BF000
:10175600B3EF0BF0D8908A3101098A6FB5EF0BF021
:10176600D8908A333EA0BAEF0BF0BCEF0BF0BDEF7A
:101776000BF08A8F4134413240323F323E32892B60
:1017860056EF0CF042503E5C43503F584450405890
:101796004150800A0001FB6F4550800AFB59D8B0C2
:1017A600D7EF0BF0D9EF0BF005EF0CF03E50425C93
:1017B600FB6F3F504358FC6F40504458FD6F4150FB
:1017C6004558FE6FFF0EFB253E6EFF0EFC213F6E59
:1017D600FF0EFD21406EFF0EFE21416E800E0101BF
:1017E600871B8A6D8A51D8A4FBEF0BF0FDEF0BF037
:1017F6000DEF0CF0010E3E26000E3F224022412244
:101806000DEF0CF042503E5E43503F5A4450405A52
:101816004550415A3E503F1040104110D8A416EF93
:101826000CF018EF0CF04FEF0CF001018A51D8A420
:101836001FEF0CF021EF0CF04FEF0CF0000E3E6E98
:10184600000E3F6E000E406E000E416EF0EF0CF083
:10185600D8903E363F364036413601018AAF36EFE4
:101866000CF038EF0CF039EF0CF03E808AA13EEF19
:101876000CF040EF0CF044EF0CF0D8808A3746EFBE
:101886000CF0D8908A378951D8B44CEF0CF04EEF53
:101896000CF04FEF0CF0890740AE54EF0CF056EF0A
:1018A6000CF02BEF0CF0000E0101886F8AAF5EEF93
:1018B6000CF060EF0CF07AEF0CF08AC1FBF07F0EB3
:1018C6000001FB17D8B46AEF0CF06CEF0CF071EF67
:1018D6000CF0010E0101886F7AEF0CF03EA076EF56
:1018E6000CF078EF0CF07AEF0CF06CEF0CF00101D5
:1018F6008851D8B481EF0CF083EF0CF0B0EF0CF008
:10190600010E3E26000E3F224022412241A08EEFCC
:101916000CF090EF0CF0B0EF0CF03EC0FBF03FC0C7
:10192600FCF040C0FDF041C0FEF00001FE35FE3384
:10193600FD33FC33FB33FBC03EF0FCC03FF0FDC083
:1019460040F0FEC041F001018929D8B4ADEF0CF09A
:10195600AFEF0CF0B0EF0CF0892B8929D8B4B6EFB5
:101966000CF0B8EF0CF0C0EF0CF08951D8A4BEEF24
:101976000CF0C0EF0CF0D2EF0CF0000E3E6E000E35
:101986003F6E000E406E000E416E8951D8A4CEEF18
:101996000CF0D0EF0CF0D2EF0CF0000E876F89A19F
:1019A600D7EF0CF0D9EF0CF0DCEF0CF0408EDDEF4A
:1019B6000CF0409ED8908931416E87AFE5EF0CF070
:1019C600E7EF0CF0E8EF0CF0418E3EC03EF03FC072
:1019D6003FF040C040F041C041F012002850800B5B
:1019E600356E285028243C6E27AEFCEF0CF0FEEF37
:1019F6000CF0FFEF0CF03C803C50D8B405EF0DF036
:101A060007EF0DF01CEF0DF03C28D8A40DEF0DF0FC
:101A16000FEF0DF017EF0DF0000E256E000E266E7F
:101A2600000E276E000E286E278E000E286E24EFFD
:101A36000DF0000E256E000E266E000E276E000EAF
:101A4600286E2C50800B351A2C502C243D6E2BAE54
:101A56002FEF0DF031EF0DF032EF0DF03D803D50E0
:101A6600D8B438EF0DF03AEF0DF04FEF0DF03D28FA
:101A7600D8A440EF0DF042EF0DF04AEF0DF0000E46
:101A8600296E000E2A6E000E2B6E000E2C6E2B8E0B
:101A9600000E2C6E57EF0DF0000E296E000E2A6E0A
:101AA600000E2B6E000E2C6E29502A102B102C10B7
:101AB600D8A460EF0DF062EF0DF07AEF0DF0000E96
:101AC600256E000E266E000E276E000E286E800E06
:101AD60027127F0E28123550281225C025F026C061
:101AE60026F027C027F028C028F0BDEF0EF03C50A6
:101AF600D8A480EF0DF082EF0DF08CEF0DF0000E04
:101B0600256E000E266E000E276E000E286EBDEFA7
:101B16000EF03D503CC02DF02E6A2D5E000E2E5A62
:101B26007F0E2D24366E000E2E20376E25C031F026
:101B360026C032F027C033F028C034F0000E256EE0
:101B4600000E266E000E276E000E286E000E386EF2
:101B5600000E396E000E3A6E000E3B6E000E3D6EA4
:101B6600EDEF0DF03D50D8B4BBEF0DF0BDEF0DF02D
:101B7600D4EF0DF0D8903136323633363436D8902D
:101B860025362636273628363BAECCEF0DF0CEEF7F
:101B96000DF0CFEF0DF02580D890383639363A362D
:101BA6003B362950315C2A5032582B5033582C5032
:101BB6003458D8A0E1EF0DF0E3EF0DF0ECEF0DF0A7
:101BC6003B8C2950315E2A50325A2B50335A2C50B6
:101BD600345A3D2A190E3D64F3EF0DF0F5EF0DF082
:101BE600B5EF0DF03150321033103410D8B4FEEF8B
:101BF6000DF000EF0EF018EF0EF0388018EF0EF033
:101C0600D89025362636273628363BAE0DEF0EF011
:101C16000FEF0EF010EF0EF02580D89038363936DB
:101C26003A363B363606D8A0370627AE1DEF0EF0FD
:101C36001FEF0EF003EF0EF0000E3D6E3BAE26EFEB
:101C46000EF028EF0EF04CEF0EF0FF0E38142D6E4E
:101C5600FF0E39142E6EFF0E3A142F6E7F0E3B14B4
:101C6600306E2D502E102F103010D8B43DEF0EF0E0
:101C76003FEF0EF043EF0EF0010E3D6E4CEF0EF00F
:101C860025A048EF0EF04AEF0EF04CEF0EF03FEFB6
:101C96000EF03D50D8B452EF0EF054EF0EF078EF40
:101CA6000EF0010E2526000E26222722282228A025
:101CB6005FEF0EF061EF0EF078EF0EF025C02DF01D
:101CC60026C02EF027C02FF028C030F03034303236
:101CD6002F322E322D322DC025F02EC026F02FC0E9
:101CE60027F030C028F0364A372A37BE83EF0EF089
:101CF600375008E13628D8A083EF0EF085EF0EF0B6
:101D060090EF0EF0000E376E3668000E256E000E50
:101D1600266E000E276E000E286E37BE9DEF0EF063
:101D2600375006E13604D8B09BEF0EF09DEF0EF06B
:101D3600ABEF0EF0000E376E000E366E000E256EFF
:101D4600000E266E000E276E000E286E000E356EF3
:101D560036C03CF03CA0B2EF0EF0B4EF0EF0B7EF99
:101D66000EF0278EB8EF0EF0279ED8903C30286EE6
:101D76006EEF0DF012000600FACF11F0FBCF12F055
:101D8600D9CF13F0DACF14F0F3CF15F0F4CF16F065
:101D9600F2A8D0EF0EF0D2EF0EF0DBEF0EF0F2A2CB
:101DA600D7EF0EF0D9EF0EF0DBEF0EF0F5EC16F0F4
:101DB600F0A6E0EF0EF0E2EF0EF0EBEF0EF0F0A083
:101DC600E7EF0EF0E9EF0EF0EBEF0EF0DDEC16F0BC
:101DD600F0A8F0EF0EF0F2EF0EF0FBEF0EF0F0A22F
:101DE600F7EF0EF0F9EF0EF0FBEF0EF0DDEC16F06C
:101DF6009DAC00EF0FF002EF0FF00BEF0FF09EAC73
:101E060007EF0FF009EF0FF00BEF0FF08BEC17F069
:101E1600F2A610EF0FF012EF0FF02DEF0FF0F2A079
:101E260017EF0FF019EF0FF02DEF0FF081A81EEF4F
:101E36000FF020EF0FF02DEF0FF06704D8A426EF78
:101E46000FF028EF0FF02DEF0FF0000E676E010E6A
:101E5600ACEC14F0F2A632EF0FF034EF0FF04FEFC8
:101E66000FF0F2A039EF0FF03BEF0FF04FEF0FF04E
:101E760081B840EF0FF042EF0FF04FEF0FF06750D1
:101E8600D8A448EF0FF04AEF0FF04FEF0FF0010E16
:101E9600676E000EACEC14F0F2A654EF0FF056EF9E
:101EA6000FF071EF0FF0F2A05BEF0FF05DEF0FF0A8
:101EB60071EF0FF081AA62EF0FF064EF0FF071EF90
:101EC6000FF06604D8A46AEF0FF06CEF0FF071EF15
:101ED6000FF0000E666E010E6BEC14F0F2A676EFB4
:101EE6000FF078EF0FF093EF0FF0F2A07DEF0FF009
:101EF6007FEF0FF093EF0FF081BA84EF0FF086EFCC
:101F06000FF093EF0FF06650D8A48CEF0FF08EEF22
:101F16000FF093EF0FF0010E666E000E6BEC14F0EF
:101F2600F2A698EF0FF09AEF0FF0B5EF0FF0F2A0D0
:101F36009FEF0FF0A1EF0FF0B5EF0FF081ACA6EF1A
:101F46000FF0A8EF0FF0B5EF0FF06504D8A4AEEFD1
:101F56000FF0B0EF0FF0B5EF0FF0000E656E010E4B
:101F66002AEC14F0F2A6BAEF0FF0BCEF0FF0D7EFA1
:101F76000FF0F2A0C1EF0FF0C3EF0FF0D7EF0FF0A5
:101F860081BCC8EF0FF0CAEF0FF0D7EF0FF0655026
:101F9600D8A4D0EF0FF0D2EF0FF0D7EF0FF0010E6D
:101FA600656E000E2AEC14F0F2A6DCEF0FF0DEEF01
:101FB6000FF0F9EF0FF0F2A0E3EF0FF0E5EF0FF0FF
:101FC600F9EF0FF081AEEAEF0FF0ECEF0FF0F9EF5B
:101FD6000FF06404D8A4F2EF0FF0F4EF0FF0F9EF6E
:101FE6000FF0000E646E010EE9EC13F0F2A6FEEFA0
:101FF6000FF000EF10F01BEF10F0F2A005EF10F05D
:1020060007EF10F01BEF10F081BE0CEF10F00EEF93
:1020160010F01BEF10F06450D8A414EF10F016EF78
:1020260010F01BEF10F0010E646E000EE9EC13F0D9
:10203600F2AA20EF10F022EF10F02BEF10F0F2A42E
:1020460027EF10F029EF10F02BEF10F08EEC16F0C2
:102056009DA030EF10F032EF10F03BEF10F09EA095
:1020660037EF10F039EF10F03BEF10F072EC16F08E
:102076009DA240EF10F042EF10F04BEF10F09EA241
:1020860047EF10F049EF10F04BEF10F0AAEC16F006
:10209600A0A250EF10F052EF10F05BEF10F0A1A2EB
:1020A60057EF10F059EF10F05BEF10F025EC17F03A
:1020B6009DA460EF10F062EF10F06BEF10F09EA49D
:1020C60067EF10F069EF10F06BEF10F00DEC17F002
:1020D600A0A070EF10F072EF10F07BEF10F0A1A04F
:1020E60077EF10F079EF10F07BEF10F089EC17F036
:1020F60016C0F4FF15C0F3FF14C0DAFF13C0D9FFF2
:1021060012C0FBFF11C0FAFF699211001F6E1F502B
:10211600D8B490EF10F092EF10F0B4EF10F01ABEB2
:1021260099EF10F097EF10F0B4EF10F017C01BF016
:1021360018C01CF019C01DF01AC01EF01B1E1C1E74
:102146001D1E1E1E1B2A000E1C221D221E221BC027
:1021560021F01CC022F01DC023F01EC024F0BCEFED
:1021660010F017C021F018C022F019C023F01AC0D1
:1021760024F01750181019101A10D8A4C5EF10F033
:10218600C7EF10F0D1EF10F0000E176E000E186EAC
:10219600000E196E000E1A6E62EF11F0960E206E8A
:1021A600DBEF10F0202AD89024322332223221325B
:1021B600000E21141B6E000E22141C6E000E23143A
:1021C6001D6EFE0E24141E6E1B501C101D101E10BC
:1021D600D8A4F0EF10F0F2EF10F0D5EF10F000EF0A
:1021E60011F0202A010E2126000E2222232224226B
:1021F600D8902432233222322132000E21141B6E53
:10220600000E22141C6E000E23141D6EFF0E2414E5
:102216001E6E1B501C101D101E10D8A415EF11F0B9
:1022260017EF11F0F4EF10F01FEF11F02006D89021
:10223600213622362336243623BE24EF11F026EF2C
:1022460011F02EEF11F0020E20602CEF11F02EEFA0
:1022560011F019EF11F020B033EF11F035EF11F056
:1022660036EF11F0239ED890203220C01BF01C6A56
:102276001D6A1E6A1BC01EF01D6A1C6A1B6A1B5063
:1022860021121C5022121D5023121E5024121F50C0
:10229600D8B450EF11F052EF11F05AEF11F01ABE08
:1022A60059EF11F057EF11F05AEF11F0248E21C0BB
:1022B60017F022C018F023C019F024C01AF012003B
:1022C600010E0A6E01500210D8B46CEF11F06EEFD9
:1022D60011F07FEF11F001C0D9FF02C0DAFFDF3045
:1022E600E832E832070B046E070E04647DEF11F046
:1022F6007FEF11F0E2EF11F0000E0A6EF7EF11F02A
:1023060001C0D9FF02C0DAFFDF30E832E832070B3E
:10231600046E010E056E042A93EF11F0D89005366F
:10232600042E91EF11F00550FF0A066E01C0D9FF89
:1023360002C0DAFFDF50070B076E0750020DCA0E08
:10234600F324D96E000EF420DA6EDECF08F0DDCF6E
:1023560009F008C0D9FF09C0DAFF0650DF16F7EF0B
:1023660011F001C0D9FF02C0DAFFDF30E832E832EF
:10237600070B046E010E056E042AC4EF11F0D89007
:102386000536042EC2EF11F001C0D9FF02C0DAFFF4
:10239600DF50070B066E0650020DCA0EF324D96EE7
:1023A600000EF420DA6EDECF07F0DDCF08F007C0AE
:1023B600D9FF08C0DAFF0550DF12F7EF11F003501E
:1023C600046E056A0550000AD8B4ECEF11F07FEFF1
:1023D60011F00450000AD8B483EF11F0010AD8B402
:1023E600B4EF11F07FEF11F00A50120019341A34CD
:1023F600206E2050D8A402EF12F004EF12F00EEF78
:1024060012F0000E176E000E186E000E196E000EFA
:102416001A6E7BEF12F017C01BF018C01CF019C023
:102426001DF01AC01EF0200E1EEF12F0D8901E32BC
:102436001D321C321B32E82E19EF12F01B501F6E94
:10244600198EFF0E1716FF0E1816FF0E1916000E20
:102456001A16960E205E20BE35EF12F033EF12F0FC
:102466004BEF12F02050800A970FD8B03DEF12F0D4
:102476003FEF12F041EF12F004EF12F0D8901A324B
:10248600193218321732203E41EF12F063EF12F084
:102496001F0E206451EF12F053EF12F05BEF12F0B3
:1024A60004EF12F0D8901736183619361A36200669
:1024B6002050D8A461EF12F063EF12F055EF12F03E
:1024C6001F50D8B469EF12F06BEF12F073EF12F0F1
:1024D6001A1E191E181E176C000E182219221A220F
:1024E60017C017F018C018F019C019F01AC01AF062
:1024F600120020EE04F01750D9261850DA22DFA079
:1025060087EF12F089EF12F0C8EF12F0AC8A20EED6
:1025160004F01750D9261850DA22DFA295EF12F0F0
:1025260097EF12F09AEF12F09D88A8EF12F020EEC6
:1025360004F01750D9261850DA22DFB2A5EF12F0B0
:10254600A7EF12F0A8EF12F09D9820EE04F01750B6
:10255600D9261850DA22DFA4B3EF12F0B5EF12F045
:10256600B8EF12F0AC8CC8EF12F020EE04F0175062
:10257600D9261850DA22DFB4C3EF12F0C5EF12F0F5
:10258600C8EF12F0AC9CC8EF12F0120020EE03F078
:102596001750D9261850DA22DFA0D4EF12F0D6EF62
:1025A60012F015EF13F0AB8820EE03F01750D92682
:1025B6001850DA22DFA2E2EF12F0E4EF12F0E7EFB2
:1025C60012F09D8AF5EF12F020EE03F01750D9268F
:1025D6001850DA22DFB2F2EF12F0F4EF12F0F5EF54
:1025E60012F09D9A20EE03F01750D9261850DA22E1
:1025F600DFA400EF13F002EF13F005EF13F0AB8C3E
:1026060015EF13F020EE03F01750D9261850DA22F2
:10261600DFB410EF13F012EF13F015EF13F0AB9CCD
:1026260015EF13F0120001500210D8B41DEF13F08D
:102636001FEF13F030EF13F001C0D9FF02C0DAFF2D
:10264600DF30E832E832070B036E070E03642EEF25
:1026560013F030EF13F032EF13F05EEF13F001C01A
:10266600D9FF02C0DAFFDF30E832E832070B036E2B
:10267600010E046E032A42EF13F0D8900436032E9F
:1026860040EF13F001C0D9FF02C0DAFFDF50070B9D
:10269600056E0550020DCA0EF324D96E000EF42005
:1026A600DA6EDECF06F0DDCF07F006C0D9FF07C031
:1026B600DAFF0450DF1A1200CC0EF66E2B0EF76E00
:1026C600000EF86E01EE00F010EE69F00900F5CF8D
:1026D600EEFFE550E150FAE1880EF66E2D0EF76E2C
:1026E600000EF86E00EECAF010EE31F00900F5CFDC
:1026F600EEFFE550E150FAE1F00EF66E2E0EF76EA3
:10270600000EF86E00EE60F010EE09F00900F5CF4D
:10271600EEFFE550E150FAE101EE69F01E0EEE6AB9
:10272600E806FDE100EE80F04A0EEE6AE806FDE1FD
:1027360000EE49F0170EEE6AE806FDE1699069922F
:1027460000011BEF16F04A2AEF0E016E000E026E14
:10275600000E046E000E036E3CEC17F00001FF6FD6
:102766004A04D8A4B9EF13F0BBEF13F0CDEF13F082
:102776005E0E016E010E026E300E046ED40E036EF6
:10278600ABEC15F00001FF6FBD50F00B0909BD6EF3
:10279600E8EF13F0020E4A18D8A4D4EF13F0D6EFE0
:1027A60013F0E8EF13F05E0E016E010E026E920E4C
:1027B600046E7C0E036EABEC15F00001FF6FBD508E
:1027C600F00B0809BD6E000E4A6E1200106EF290F4
:1027D6001004D8A4F1EF13F0F3EF13F00BEF14F09D
:1027E6000001A451A511D8B4FBEF13F0FDEF13F0CF
:1027F60029EF14F002D809EF14F00500FA6EA4517F
:10280600FD6EA551FE6EFF6AFA50120029EF14F014
:102816001050D8A411EF14F013EF14F029EF14F0B0
:102826000001A251A311D8B41BEF14F01DEF14F050
:1028360029EF14F002D829EF14F00500FA6EA25120
:10284600FD6EA351FE6EFF6AFA5012001200106E62
:10285600F2901004D8A432EF14F034EF14F04CEFD9
:1028660014F00001A851A911D8B43CEF14F03EEFC2
:1028760014F06AEF14F002D84AEF14F00500FA6E6D
:10288600A851FD6EA951FE6EFF6AFA5012006AEF5A
:1028960014F01050D8A452EF14F054EF14F06AEF6D
:1028A60014F00001A651A711D8B45CEF14F05EEF46
:1028B60014F06AEF14F002D86AEF14F00500FA6E0D
:1028C600A651FD6EA751FE6EFF6AFA501200120065
:1028D600106EF2901004D8A473EF14F075EF14F094
:1028E6008DEF14F00001AC51AD11D8B47DEF14F0AA
:1028F6007FEF14F0ABEF14F002D88BEF14F0050065
:10290600FA6EAC51FD6EAD51FE6EFF6AFA501200C2
:10291600ABEF14F01050D8A493EF14F095EF14F029
:10292600ABEF14F00001AA51AB11D8B49DEF14F02F
:102936009FEF14F0ABEF14F002D8ABEF14F00500E4
:10294600FA6EAA51FD6EAB51FE6EFF6AFA50120086
:102956001200106EF2901004D8A4B4EF14F0B6EF83
:1029660014F0CEEF14F00001B051B111D8B4BEEF9F
:1029760014F0C0EF14F0ECEF14F002D8CCEF14F022
:102986000500FA6EB051FD6EB151FE6EFF6AFA5047
:102996001200ECEF14F01050D8A4D4EF14F0D6EFD8
:1029A60014F0ECEF14F00001AE51AF11D8B4DEEF25
:1029B60014F0E0EF14F0ECEF14F002D8ECEF14F0A2
:1029C6000500FA6EAE51FD6EAF51FE6EFF6AFA500B
:1029D60012001200010E0E6E0B500C10D8A4F6EF6A
:1029E60014F0F8EF14F0FCEF14F0000E0E6E2BEF5F
:1029F60015F055C00FF00BC0D9FF0CC0DAFFDF5041
:102A06000F0B0D6E0F500D18F80B0D180F6E0BC037
:102A1600D9FF0CC0DAFFDF38070B0D6E0D460D46E9
:102A26000D460F500D18C70B0D180F6E0F9C0BC0DF
:102A3600D9FF0CC0DAFFDFAE02D00F8E01D00F9E99
:102A46000F0E016E000E026E000E036E63EC11F0A7
:102A56000E501200010E0E6E0B500C10D8A436EF5D
:102A660015F038EF15F03CEF15F0000E0E6E6BEF1B
:102A760015F056C00FF00BC0D9FF0CC0DAFFDF50BF
:102A86000F0B0D6E0F500D18F80B0D180F6E0BC0B7
:102A9600D9FF0CC0DAFFDF38070B0D6E0D460D4669
:102AA6000D460F500D18C70B0D180F6E0F9C0BC05F
:102AB600D9FF0CC0DAFFDFAE02D00F8E01D00F9E19
:102AC6000F0E016E000E026E010E036E63EC11F026
:102AD6000E501200010E0B6E08500910D8A476EFA6
:102AE60015F078EF15F07CEF15F0000E0B6EA9EFE0
:102AF60015F054C00CF008C0D9FF09C0DAFFDF504A
:102B06000F0B0A6E0C500A18F80B0A180C6E08C048
:102B1600D9FF09C0DAFFDF38070B0A6E0A460A46F4
:102B26000A460C500A18C70B0A180C6E0C9C08C0F3
:102B3600D9FF09C0DAFFDFAE02D00C8E01D00C9EA1
:102B46000C0E016E000E026E16EC13F00B50120006
:102B5600010E066EB8C007F0B9C008F001500210A9
:102B6600D8A4B8EF15F0BAEF15F0BEEF15F0000EC9
:102B7600066EE4EF15F020EE03F00150D926025060
:102B8600DA22DF50D8A4CAEF15F0CCEF15F0D2EF59
:102B960015F007C0BEFF08C0BFFFE4EF15F020EE3A
:102BA60003F00150D9260250DA22DE04D8A4DEEF63
:102BB60015F0E0EF15F0E4EF15F007C0BBFF08C015
:102BC600BCFF0650120000055200000A2F0000004C
:102BD60000323A030B131B232B333B800F810F82EA
:102BE6000F830F840F1A2F0000000000011A2F0018
:102BF6000201DC0B02020A121A626A727A000000F3
:102C060005050002020A121A222ACC2EBA2E7101DA
:102C1600DE2E0100014180250001010000000000B8
:0F2C26000000000001081200004C270000000011
:102C3600500E0101956F010E966F4CEC16F00001D7
:102C4600FF6F610E51EC17F00001FF6F0B0E0101D3
:102C5600986F260E976F5D0EE82EFED7972FFCD73E
:102C6600982FFAD700D0620E51EC17F00001FF6FD3
:102C76000B0E0101986F260E976F5D0EE82EFED79C
:102C8600972FFCD7982FFAD700D024EF16F007EF2E
:102C960000F0010E486E010195519611D8A456EF29
:102CA60016F058EF16F05CEF16F0000E486E70EF57
:102CB60016F0AB9E95C146F096C147F00BEC08F0B6
:102CC60095C117F096C118F07CEC12F095C117F07B
:102CD60096C118F0C9EC12F0AB8E485012009E90C7
:102CE60000019B51CF6E9AC0CEFF9C519D11D8B466
:102CF6007FEF16F081EF16F08DEF16F002D88DEF0C
:102D060016F00500FA6E9C51FD6E9D51FE6EFF6A2F
:102D1600FA5012001200F29400019F51D76E9EC025
:102D2600D6FFA051A111D8B49BEF16F09DEF16F077
:102D3600A9EF16F002D8A9EF16F00500FA6EA05119
:102D4600FD6EA151FE6EFF6AFA50120012009E92AD
:102D560096C0CCFF000198519911D8B4B5EF16F082
:102D6600B7EF16F0C3EF16F002D8C3EF16F0050062
:102D7600FA6E9851FD6E9951FE6EFF6AFA50120076
:102D86001200890F8A0F8B0F8C0F8D0F920F930FE6
:102D9600940F950F960F020A121A00C300005200F4
:102DA600011A1B181910120000000000100A2F004B
:032DB6000000001A
:102DBA00F0900001B451B511D8B4E6EF16F0E8EF7F
:102DCA0016F0F4EF16F002D8F4EF16F00500FA6EDA
:102DDA00B451FD6EB551FE6EFF6AFA501200120030
:102DEA00F2920001B651B711D8B4FEEF16F000EF17
:102DFA0017F00CEF17F002D80CEF17F00500FA6E77
:102E0A00B651FD6EB751FE6EFF6AFA5012001200FB
:102E1A009E940001BE51BF11D8B416EF17F018EFF7
:102E2A0017F024EF17F002D824EF17F00500FA6E16
:102E3A00BE51FD6EBF51FE6EFF6AFA5012001200BB
:102E4A00000194519511D8B42DEF17F02FEF17F018
:102E5A003BEF17F002D83BEF17F00500FA6E9451DA
:102E6A00FD6E9551FE6EFF6AFA5012001200010EB5
:102E7A00056E01500210D8A445EF17F047EF17F07E
:102E8A004BEF17F0000E056E4FEF17F00450B36EBC
:102E9A0003C0B2FF05501200176EACA257EF17F02D
:102EAA0059EF17F052EF17F017C0ADFF010E1200DD
:102EBA00680E0B6E000E0C6EEDEC14F00001FF6F45
:102ECA001200680E0B6E000E0C6E2DEC15F0000150
:102EDA00FF6F1200680E086E000E096E6DEC15F099
:0F2EEA000001FF6F120037173B170101010102B2
:102EFA000001884B892B120000018A4B8B2B120090
:102F0A000001824B832B1200A19012009E9C12009A
:022F1A001200A3
:020000040020DA
:08000000FFFFFFFFFFFFFFFF00
:020000040030CA
:0E000000FF02091EFF8181FF0FC00FE00F40BD
:00000001FF
