:020000040000FA
:0400000007EF00F016
:0A0008006A82E5ED0CF0D4EF14F06D
:10100000003738392F3435362A3132332D23303DED
:051010002B2569000022
:10101600000E0101A76F000EA86F000EA96F000E4B
:10102600AA6F3CEF0AF0AC98AC94B89645C0D9FFCD
:1010360046C0DAFFDECFFDF0DDCFFEF0FDC016F0D4
:10104600FEC017F0186A196A000E9DEC10F016C063
:1010560028F017C029F018C02AF019C02BF0000E8E
:10106600246E240E256EF40E266E4A0E276ED0ECE4
:101076000EF024C0ABF125C0ACF126C0ADF127C0FF
:10108600AEF1000E286E000E296E800E2A6E420EFC
:101096002B6EABC124F0ACC125F0ADC126F0AEC1BC
:1010A60027F0D0EC0EF024C03DF025C03EF026C05F
:1010B6003FF027C040F0000E416E000E426E800EDB
:1010C600436EBF0E446E84EC0AF03DC0A7F13EC0ED
:1010D600A8F13FC0A9F140C0AAF168EF0AF0AC98A8
:1010E600AC84B89645C0D9FF46C0DAFFDECFFDF026
:1010F600DDCFFEF0FDC016F0FEC017F0186A196AC3
:10110600000E9DEC10F016C028F017C029F018C08C
:101116002AF019C02BF0000E246E240E256EF40E54
:10112600266E4A0E276ED0EC0EF024C0ABF125C019
:10113600ACF126C0ADF127C0AEF1000E286E000E50
:10114600296E800E2A6E410E2B6EABC124F0ACC107
:1011560025F0ADC126F0AEC127F0D0EC0EF024C0CC
:101166003DF025C03EF026C03FF027C040F0000EFF
:10117600416E000E426E800E436EBF0E446E84ECCE
:101186000AF03DC0A7F13EC0A8F13FC0A9F140C09A
:10119600AAF168EF0AF0AC98AC94B88645C0D9FFBE
:1011A60046C0DAFFDECFFDF0DDCFFEF0FDC016F063
:1011B600FEC017F0186A196A000E9DEC10F016C0F2
:1011C60028F017C029F018C02AF019C02BF0000E1D
:1011D600246E240E256EF40E266E4A0E276ED0EC73
:1011E6000EF024C0ABF125C0ACF126C0ADF127C08E
:1011F600AEF1000E286E000E296E800E2A6E410E8C
:101206002B6EABC124F0ACC125F0ADC126F0AEC14A
:1012160027F0D0EC0EF024C03DF025C03EF026C0ED
:101226003FF027C040F0000E416E000E426E800E69
:10123600436EBF0E446E84EC0AF03DC0A7F13EC07B
:10124600A8F13FC0A9F140C0AAF168EF0AF0AC9836
:10125600AC84B88645C0D9FF46C0DAFFDECFFDF0C4
:10126600DDCFFEF0FDC016F0FEC017F0186A196A51
:10127600000E9DEC10F016C028F017C029F018C01B
:101286002AF019C02BF0000E246E240E256EF40EE3
:10129600266E4A0E276ED0EC0EF024C0ABF125C0A8
:1012A600ACF126C0ADF127C0AEF1000E286E000EDF
:1012B600296E800E2A6E400E2B6EABC124F0ACC197
:1012C60025F0ADC126F0AEC127F0D0EC0EF024C05B
:1012D6003DF025C03EF026C03FF027C040F0000E8E
:1012E600416E000E426E800E436EBF0E446E84EC5D
:1012F6000AF03DC0A7F13EC0A8F13FC0A9F140C029
:10130600AAF168EF0AF0AC98B89645C0D9FF46C076
:10131600DAFFDECFFDF0DDCFFEF0FDC016F0FEC039
:1013260017F0186A196A000E9DEC10F016C028F026
:1013360017C029F018C02AF019C02BF0000E246E31
:10134600240E256EF40E266E4A0E276ED0EC0EF095
:1013560024C0ABF125C0ACF126C0ADF127C0AEF17B
:10136600000E286E000E296E800E2A6E400E2B6E21
:10137600ABC124F0ACC125F0ADC126F0AEC127F05B
:10138600D0EC0EF024C03DF025C03EF026C03FF064
:1013960027C040F0000E416E000E426E800E436E76
:1013A600BF0E446E84EC0AF03DC0A7F13EC0A8F122
:1013B6003FC0A9F140C0AAF168EF0AF0AC88B88630
:1013C60045C0D9FF46C0DAFFDECFFDF0DDCFFEF027
:1013D600FDC016F0FEC017F0186A196A000E9DECE3
:1013E60010F016C028F017C029F018C02AF019C04E
:1013F6002BF0000E246E240E256EF40E266E4A0E79
:10140600276ED0EC0EF024C0ABF125C0ACF126C09F
:10141600ADF127C0AEF1000E286E000E296E800ECB
:101426002A6E400E2B6EABC124F0ACC125F0ADC1C7
:1014360026F0AEC127F0D0EC0EF024C03DF025C05A
:101446003EF026C03FF027C040F0000E416E000E71
:10145600426E800E436EBF0E446E84EC0AF03DC0B1
:10146600A7F13EC0A8F13FC0A9F140C0AAF168EFBC
:101476000AF020EE02F04550D9264650DA22DF5017
:101486000001FD6FFE6BFE51000AD8B44DEF0AF065
:1014960068EF0AF0FD51000AD8B416EF08F0010A09
:1014A600D8B472EF08F0030AD8B4CEEF08F0010AF8
:1014B600D8B42AEF09F0070AD8B486EF09F0010A72
:1014C600D8B4E1EF09F068EF0AF0A7C116F0A8C199
:1014D60017F0A9C118F0AAC119F040EC13F0165084
:1014E600AF6EA7C116F0A8C117F0A9C118F0AAC11E
:1014F60019F040EC13F017C016F0176A1650B06ECC
:1015060012004050800B0101A36F40504024A56F8C
:101516003FAE90EF0AF092EF0AF093EF0AF0A58142
:10152600A551D8B499EF0AF09BEF0AF0B0EF0AF094
:10153600A529D8A4A1EF0AF0A3EF0AF0ABEF0AF0B1
:10154600000E3D6E000E3E6E000E3F6E000E406EAB
:101556003F8E000E406EB8EF0AF0000E3D6E000E94
:101566003E6E000E3F6E000E406E4450800BA46F20
:10157600A351A419D8B4C2EF0AF0C4EF0AF0C5EF1C
:101586000AF0A38D44504424A46F43AECDEF0AF075
:10159600CFEF0AF0D0EF0AF0A481A451D8B4D6EF69
:1015A6000AF0D8EF0AF0EDEF0AF0A429D8A4DEEF8E
:1015B6000AF0E0EF0AF0E8EF0AF0000E416E000EC6
:1015C600426E000E436E000E446E438E000E446E55
:1015D600F5EF0AF0000E416E000E426E000E436EED
:1015E600000E446EA551A45DD8B0FCEF0AF0FEEFE4
:1015F6000AF025EF0BF0A3AD03EF0BF005EF0BF0B0
:1016060007EF0BF0800EA31BA5C1A6F1A4C1A5F19F
:10161600A6C1A4F13DC0A6F141C03DF0A6C141F06E
:101626003EC0A6F142C03EF0A6C142F03FC0A6F1C0
:1016360043C03FF0A6C143F040C0A6F144C040F00D
:10164600A6C144F0000EA66FA551A4C19FF1A06BE0
:101656009F5F000EA05BA0BF3AEF0BF0A05109E11F
:101666001A0E9F5DD8A03AEF0BF03CEF0BF073EF2C
:101676000BF03D503E103F104010D8A445EF0BF044
:1016860048EF0BF0010E49EF0BF0000EA66F000EAF
:101696003D6E000E3E6E000E3F6E000E406EA4C103
:1016A600A5F17CEF0BF0A6A15BEF0BF05DEF0BF065
:1016B60063EF0BF0D890A6310109A66F65EF0BF02A
:1016C600D890A6333DA06AEF0BF06CEF0BF06DEFF0
:1016D6000BF0A68F403440323F323E323D32A52BCE
:1016E600A451A55DD8A07AEF0BF07CEF0BF056EF76
:1016F6000BF0A3BD81EF0BF083EF0BF0C3EF0BF004
:10170600A551D8A489EF0BF08BEF0BF095EF0BF0FA
:10171600000E3D6E000E3E6E000E3F6E000E406ED9
:10172600E4EF0CF041503D2642503E2243503F220A
:101736004450402240A0A2EF0BF0A4EF0BF050EF74
:101746000CF0A6A1A9EF0BF0ABEF0BF0B1EF0BF08D
:10175600D890A6310109A66FB3EF0BF0D890A63347
:101766003DA0B8EF0BF0BAEF0BF0BBEF0BF0A68F76
:10177600403440323F323E323D32A52B50EF0CF022
:1017860041503D5C42503E5843503F584050800ABD
:101796009F6F4450800A9F59D8B0D4EF0BF0D6EF14
:1017A6000BF001EF0CF03D50415C9F6F3E504258EC
:1017B600A06F3F504358A16F40504458A26FFF0E90
:1017C6009F253D6EFF0EA0213E6EFF0EA1213F6EAE
:1017D600FF0EA221406E800EA31BA66DA651D8A4B3
:1017E600F7EF0BF0F9EF0BF009EF0CF0010E3D26C9
:1017F600000E3E223F22402209EF0CF041503D5E92
:1018060042503E5A43503F5A4450405A3D503E1073
:101816003F104010D8A412EF0CF014EF0CF049EF73
:101826000CF0A651D8A41AEF0CF01CEF0CF049EFFF
:101836000CF0000E3D6E000E3E6E000E3F6E000E6A
:10184600406EE4EF0CF0D8903D363E363F364036DB
:10185600A6AF30EF0CF032EF0CF033EF0CF03D801A
:10186600A6A138EF0CF03AEF0CF03EEF0CF0D88062
:10187600A63740EF0CF0D890A637A551D8B446EF5E
:101886000CF048EF0CF049EF0CF0A5073FAE4EEF19
:101896000CF050EF0CF026EF0CF0000EA46FA6AF84
:1018A60057EF0CF059EF0CF071EF0CF0A6C19FF159
:1018B6007F0E9F17D8B462EF0CF064EF0CF068EF60
:1018C6000CF0010EA46F71EF0CF03DA06DEF0CF063
:1018D6006FEF0CF071EF0CF064EF0CF0A451D8B47C
:1018E60077EF0CF079EF0CF0A4EF0CF0010E3D262B
:1018F600000E3E223F22402240A084EF0CF086EFED
:101906000CF0A4EF0CF03DC09FF13EC0A0F13FC02B
:10191600A1F140C0A2F1A235A233A133A0339F3377
:101926009FC13DF0A0C13EF0A1C13FF0A2C140F071
:10193600A529D8B4A1EF0CF0A3EF0CF0A4EF0CF09E
:10194600A52BA529D8B4AAEF0CF0ACEF0CF0B4EF98
:101956000CF0A551D8A4B2EF0CF0B4EF0CF0C6EF22
:101966000CF0000E3D6E000E3E6E000E3F6E000E39
:10197600406EA551D8A4C2EF0CF0C4EF0CF0C6EF30
:101986000CF0000EA36FA5A1CBEF0CF0CDEF0CF081
:10199600D0EF0CF03F8ED1EF0CF03F9ED890A531E2
:1019A600406EA3AFD9EF0CF0DBEF0CF0DCEF0CF0E0
:1019B600408E3DC03DF03EC03EF03FC03FF040C0CF
:1019C60040F012000600FACF10F0FBCF11F0D9CF8D
:1019D60012F0DACF13F0F3CF14F0F4CF15F0F2A82B
:1019E600F7EF0CF0F9EF0CF002EF0DF0F2A2FEEFBC
:1019F6000CF000EF0DF002EF0DF001EC19F0F0A67F
:101A060007EF0DF009EF0DF012EF0DF0F0A00EEF5D
:101A16000DF010EF0DF012EF0DF0E9EC18F0F0A854
:101A260017EF0DF019EF0DF022EF0DF0F0A21EEFFB
:101A36000DF020EF0DF022EF0DF0E9EC18F09DAC63
:101A460027EF0DF029EF0DF032EF0DF09EAC2EEFE3
:101A56000DF030EF0DF032EF0DF0CCEC19F0F2A6F0
:101A660037EF0DF039EF0DF054EF0DF0F2A03EEF29
:101A76000DF040EF0DF054EF0DF081A845EF0DF09D
:101A860047EF0DF054EF0DF06704D8A44DEF0DF0BD
:101A96004FEF0DF054EF0DF0000E676E010E21ECC6
:101AA60016F0F2A659EF0DF05BEF0DF076EF0DF0A4
:101AB600F2A060EF0DF062EF0DF076EF0DF081B859
:101AC60067EF0DF069EF0DF076EF0DF06750D8A4D3
:101AD6006FEF0DF071EF0DF076EF0DF0010E676E02
:101AE600000E21EC16F0F2A67BEF0DF07DEF0DF067
:101AF60098EF0DF0F2A082EF0DF084EF0DF098EF65
:101B06000DF081AA89EF0DF08BEF0DF098EF0DF037
:101B16006604D8A491EF0DF093EF0DF098EF0DF059
:101B2600000E666E010EE0EC15F0F2A69DEF0DF0CC
:101B36009FEF0DF0BAEF0DF0F2A0A4EF0DF0A6EFB7
:101B46000DF0BAEF0DF081BAABEF0DF0ADEF0DF081
:101B5600BAEF0DF06650D8A4B3EF0DF0B5EF0DF067
:101B6600BAEF0DF0010E666E000EE0EC15F0F2A66F
:101B7600BFEF0DF0C1EF0DF0DCEF0DF0F2A0C6EFF8
:101B86000DF0C8EF0DF0DCEF0DF081ACCDEF0DF0F0
:101B9600CFEF0DF0DCEF0DF06504D8A4D5EF0DF016
:101BA600D7EF0DF0DCEF0DF0000E656E010E9FEC29
:101BB60015F0F2A6E1EF0DF0E3EF0DF0FEEF0DF0FC
:101BC600F2A0E8EF0DF0EAEF0DF0FEEF0DF081BCAC
:101BD600EFEF0DF0F1EF0DF0FEEF0DF06550D8A42C
:101BE600F7EF0DF0F9EF0DF0FEEF0DF0010E656E5B
:101BF600000E9FEC15F0F2A603EF0EF005EF0EF0C7
:101C060020EF0EF0F2A00AEF0EF00CEF0EF020EF30
:101C16000EF081AE11EF0EF013EF0EF020EF0EF086
:101C26006404D8A419EF0EF01BEF0EF020EF0EF0AF
:101C3600000E646E010E5EEC15F0F2A625EF0EF0B6
:101C460027EF0EF042EF0EF0F2A02CEF0EF02EEF83
:101C56000EF042EF0EF081BE33EF0EF035EF0EF0D0
:101C660042EF0EF06450D8A43BEF0EF03DEF0EF0BD
:101C760042EF0EF0010E646E000E5EEC15F0F2AA55
:101C860047EF0EF049EF0EF052EF0EF0F2A44EEFD2
:101C96000EF050EF0EF052EF0EF080EC18F09DA013
:101CA60057EF0EF059EF0EF062EF0EF09EA05EEFCA
:101CB6000EF060EF0EF062EF0EF064EC18F09DA2ED
:101CC60067EF0EF069EF0EF072EF0EF09EA26EEF68
:101CD6000EF070EF0EF072EF0EF0B6EC18F0A0A258
:101CE60077EF0EF079EF0EF082EF0EF0A1A27EEF05
:101CF6000EF080EF0EF082EF0EF031EC19F09DA49D
:101D060087EF0EF089EF0EF092EF0EF09EA48EEFA5
:101D16000EF090EF0EF092EF0EF019EC19F0A0A075
:101D260097EF0EF099EF0EF0A2EF0EF0A1A09EEF46
:101D36000EF0A0EF0EF0A2EF0EF0CAEC19F09DAA7D
:101D4600A7EF0EF0A9EF0EF0B2EF0EF09EAAAEEFDF
:101D56000EF0B0EF0EF0B2EF0EF0D0EC18F09DA83A
:101D6600B7EF0EF0B9EF0EF0C2EF0EF09EA8BEEF81
:101D76000EF0C0EF0EF0C2EF0EF0C8EC19F015C071
:101D8600F4FF14C0F3FF13C0DAFF12C0D9FF11C06D
:101D9600FBFF10C0FAFF6A9211002750800B346EC9
:101DA600275027243B6E26AEDBEF0EF0DDEF0EF05C
:101DB600DEEF0EF03B803B50D8B4E4EF0EF0E6EFDA
:101DC6000EF0FBEF0EF03B28D8A4ECEF0EF0EEEF92
:101DD6000EF0F6EF0EF0000E246E000E256E000ECD
:101DE600266E000E276E268E000E276E03EF0FF06E
:101DF600000E246E000E256E000E266E000E276E57
:101E06002B50800B341A2B502B243C6E2AAE0EEF2F
:101E16000FF010EF0FF011EF0FF03C803C50D8B4EC
:101E260017EF0FF019EF0FF02EEF0FF03C28D8A4A4
:101E36001FEF0FF021EF0FF029EF0FF0000E286EC5
:101E4600000E296E000E2A6E000E2B6E2A8E000ED4
:101E56002B6E36EF0FF0000E286E000E296E000E68
:101E66002A6E000E2B6E285029102A102B10D8A48B
:101E76003FEF0FF041EF0FF059EF0FF0000E246E19
:101E8600000E256E000E266E000E276E800E2612A0
:101E96007F0E27123450271224C024F025C025F0C7
:101EA60026C026F027C027F09CEF10F03B50D8A4A0
:101EB6005FEF0FF061EF0FF06BEF0FF0000E246E87
:101EC600000E256E000E266E000E276E9CEF10F09B
:101ED6003C503BC02CF02D6A2C5E000E2D5A7F0E16
:101EE6002C24356E000E2D20366E24C030F025C011
:101EF60031F026C032F027C033F0000E246E000EFB
:101F0600256E000E266E000E276E000E376E000E32
:101F1600386E000E396E000E3A6E000E3C6ECCEF37
:101F26000FF03C50D8B49AEF0FF09CEF0FF0B3EFE0
:101F36000FF0D8903036313632363336D8902436D4
:101F46002536263627363AAEABEF0FF0ADEF0FF05B
:101F5600AEEF0FF02480D8903736383639363A3619
:101F66002850305C295031582A5032582B5033585B
:101F7600D8A0C0EF0FF0C2EF0FF0CBEF0FF03A8C06
:101F86002850305E2950315A2A50325A2B50335A33
:101F96003C2A190E3C64D2EF0FF0D4EF0FF094EF09
:101FA6000FF03050311032103310D8B4DDEF0FF08F
:101FB600DFEF0FF0F7EF0FF03780F7EF0FF0D89065
:101FC60024362536263627363AAEECEF0FF0EEEFFE
:101FD6000FF0EFEF0FF02480D890373638363936C9
:101FE6003A363506D8A0360626AEFCEF0FF0FEEFE1
:101FF6000FF0E2EF0FF0000E3C6E3AAE05EF10F078
:1020060007EF10F02BEF10F0FF0E37142C6EFF0EBB
:1020160038142D6EFF0E39142E6E7F0E3A142F6E65
:102026002C502D102E102F10D8B41CEF10F01EEFD0
:1020360010F022EF10F0010E3C6E2BEF10F024A0F2
:1020460027EF10F029EF10F02BEF10F01EEF10F035
:102056003C50D8B431EF10F033EF10F057EF10F0DA
:10206600010E2426000E25222622272227A03EEF37
:1020760010F040EF10F057EF10F024C02CF025C000
:102086002DF026C02EF027C02FF02F342F322E32FF
:102096002D322C322CC024F02DC025F02EC026F077
:1020A6002FC027F0354A362A36BE62EF10F036507A
:1020B60008E13528D8A062EF10F064EF10F06FEF5A
:1020C60010F0000E366E3568000E246E000E256E7A
:1020D600000E266E000E276E36BE7CEF10F03650D0
:1020E60006E13504D8B07AEF10F07CEF10F08AEFF5
:1020F60010F0000E366E000E356E000E246E000EC9
:10210600256E000E266E000E276E000E346E35C04C
:102116003BF03BA091EF10F093EF10F096EF10F02C
:10212600268E97EF10F0269ED8903B30276E4DEF07
:102136000FF012001E6E1E50D8B4A4EF10F0A6EFDA
:1021460010F0C8EF10F019BEADEF10F0ABEF10F0C5
:10215600C8EF10F016C01AF017C01BF018C01CF01C
:1021660019C01DF01A1E1B1E1C1E1D1E1A2A000E4B
:102176001B221C221D221AC020F01BC021F01CC0ED
:1021860022F01DC023F0D0EF10F016C020F017C0CB
:1021960021F018C022F019C023F01650171018109D
:1021A6001910D8A4D9EF10F0DBEF10F0E5EF10F01E
:1021B600000E166E000E176E000E186E000E196ECB
:1021C60076EF11F0960E1F6EEFEF10F01F2AD890E3
:1021D6002332223221322032000E20141A6E000ED3
:1021E60021141B6E000E22141C6EFE0E23141D6E8F
:1021F6001A501B101C101D10D8A404EF11F006EF86
:1022060011F0E9EF10F014EF11F01F2A010E20264D
:10221600000E212222222322D8902332223221327A
:102226002032000E20141A6E000E21141B6E000EB2
:1022360022141C6EFF0E23141D6E1A501B101C1048
:102246001D10D8A429EF11F02BEF11F008EF11F0B3
:1022560033EF11F01F06D89020362136223623366A
:1022660022BE38EF11F03AEF11F042EF11F0020EF4
:102276001F6040EF11F042EF11F02DEF11F01FB08B
:1022860047EF11F049EF11F04AEF11F0229ED89076
:102296001F321FC01AF01B6A1C6A1D6A1AC01DF085
:1022A6001C6A1B6A1A6A1A5020121B5021121C50F3
:1022B60022121D5023121E50D8B464EF11F066EF9F
:1022C60011F06EEF11F019BE6DEF11F06BEF11F01A
:1022D6006EEF11F0238E20C016F021C017F022C039
:1022E60018F023C019F01200010E1E6E16501710BA
:1022F600D8B480EF11F082EF11F093EF11F016C011
:10230600D9FF17C0DAFFDF30E832E832070B186E64
:10231600070E186491EF11F093EF11F0F6EF11F03C
:10232600000E1E6E17EF12F016C0D9FF17C0DAFFA7
:10233600DF30E832E832070B186E010E196E182AE4
:10234600A7EF11F0D8901936182EA5EF11F01950F5
:10235600FF0A1A6E16C0D9FF17C0DAFFDF50070B47
:102366001B6E1B50020DDC0EF324D96E000EF420FA
:10237600DA6EDECF1CF0DDCF1DF01CC0D9FF1DC00C
:10238600DAFF1A50DF1617EF12F016C0D9FF17C082
:10239600DAFFDF30E832E832070B186E010E196EED
:1023A600182AD8EF11F0D8901936182ED6EF11F05A
:1023B60016C0D9FF17C0DAFFDF50070B1A6E1A5086
:1023C600020DDC0EF324D96E000EF420DA6EDECF99
:1023D6001BF0DDCF1CF01BC0D9FF1CC0DAFF195063
:1023E600DF1217EF12F016C0D9FF17C0DAFFDFBCF5
:1023F600FFEF11F002EF12F0010E03EF12F0000EE4
:10240600186E196A1950000AD8B40CEF12F093EF3F
:1024160011F01850000AD8B497EF11F0010AD8B499
:10242600C8EF11F093EF11F01E501200010E1F6E4F
:1024360016501710D8B422EF12F024EF12F035EF31
:1024460012F016C0D9FF17C0DAFFDF30E832E832E3
:10245600070B196E070E196433EF12F035EF12F001
:1024660098EF12F0000E1F6EADEF12F016C0D9FFF6
:1024760017C0DAFFDF30E832E832070B196E010EBB
:102486001A6E192A49EF12F0D8901A36192E47EF0C
:1024960012F01A50FF0A1B6E16C0D9FF17C0DAFFDA
:1024A600DF50070B1C6E1C50020DD20EF324D96EA2
:1024B600000EF420DA6EDECF1DF0DDCF1EF01DC05B
:1024C600D9FF1EC0DAFF1B50DF16ADEF12F016C0A3
:1024D600D9FF17C0DAFFDF30E832E832070B196E92
:1024E600010E1A6E192A7AEF12F0D8901A36192EA2
:1024F60078EF12F016C0D9FF17C0DAFFDF50070BCE
:102506001B6E1B50020DD20EF324D96E000EF42062
:10251600DA6EDECF1CF0DDCF1DF01CC0D9FF1DC06A
:10252600DAFF1A50DF12ADEF12F01850196E1A6A60
:102536001A50000AD8B4A2EF12F035EF12F0195073
:10254600000AD8B439EF12F0010AD8B46AEF12F0D3
:1025560035EF12F01F50120001500210D8B4B6EF3A
:1025660012F0B8EF12F0C9EF12F001C0D9FF02C0A5
:10257600DAFFDF30E832E832070B046E070E046438
:10258600C7EF12F0C9EF12F02AEF13F03FEF13F086
:1025960001C0D9FF02C0DAFFDF30E832E832070BAC
:1025A600046E010E056E042ADBEF12F0D890053694
:1025B600042ED9EF12F00550FF0A066E01C0D9FFAE
:1025C60002C0DAFFDF50070B076E0750020DD20E6E
:1025D600F324D96E000EF420DA6EDECF08F0DDCFDC
:1025E60009F008C0D9FF09C0DAFF0650DF163FEF31
:1025F60013F001C0D9FF02C0DAFFDF30E832E8325B
:10260600070B046E010E056E042A0CEF13F0D8902A
:102616000536042E0AEF13F001C0D9FF02C0DAFF17
:10262600DF50070B066E0650020DD20EF324D96E4C
:10263600000EF420DA6EDECF07F0DDCF08F007C01B
:10264600D9FF08C0DAFF0550DF123FEF13F0035041
:10265600046E056A0550000AD8B434EF13F0C9EFCA
:1026660012F00450000AD8B4CBEF12F0010AD8B425
:10267600FCEF12F0C9EF12F01200183419341F6E75
:102686001F50D8A449EF13F04BEF13F055EF13F09A
:10269600000E166E000E176E000E186E000E196EE6
:1026A600C2EF13F016C01AF017C01BF018C01CF0CA
:1026B60019C01DF0200E65EF13F0D8901D321C32A4
:1026C6001B321A32E82E60EF13F01A501E6E188E67
:1026D600FF0E1616FF0E1716FF0E1816000E191609
:1026E600960E1F5E1FBE7CEF13F07AEF13F092EF8B
:1026F60013F01F50800A970FD8B084EF13F086EFBF
:1027060013F088EF13F04BEF13F0D890193218320C
:10271600173216321F3E88EF13F0AAEF13F01F0E82
:102726001F6498EF13F09AEF13F0A2EF13F04BEF3C
:1027360013F0D89016361736183619361F061F505E
:10274600D8A4A8EF13F0AAEF13F09CEF13F01E50D5
:10275600D8B4B0EF13F0B2EF13F0BAEF13F0191EBE
:10276600181E171E166C000E17221822192216C0E4
:1027760016F017C017F018C018F019C019F012009B
:1027860020EE03F01650D9261750DA22DFA0CEEF3E
:1027960013F0D0EF13F030EF14F0AB8820EE03F017
:1027A6001650D9261750DA22DFA2DCEF13F0DEEF3F
:1027B60013F002EF14F09D8A9D8A20EE0AF016505F
:1027C600D9261750DA22DECF84F0DDCF85F020EE51
:1027D6000CF01650D9261750DA22DECF82F0DDCF64
:1027E60083F020EE0EF01650D9261750DA22DECFEF
:1027F60080F0DDCF81F0F28CF28E10EF14F020EE37
:1028060003F01650D9261750DA22DFB20DEF14F076
:102816000FEF14F010EF14F09D9A20EE03F016500F
:10282600D9261750DA22DFA41BEF14F01DEF14F09F
:1028360020EF14F0AB8C30EF14F020EE03F01650BE
:10284600D9261750DA22DFB42BEF14F02DEF14F04F
:1028560030EF14F0AB9C30EF14F0120020EE05F0D0
:102866001650D9261750DA22DFA03CEF14F03EEFBF
:1028760014F08AEF14F0AC8A20EE08F01650D92630
:102886001750DA22DECF86F0DDCF87F020EE05F096
:102896001650D9261750DA22DFA254EF14F056EF5D
:1028A60014F05CEF14F09D889D88F28CF28E6AEF2E
:1028B60014F020EE05F01650D9261750DA22DFB2B2
:1028C60067EF14F069EF14F06AEF14F09D9820EEAC
:1028D60005F01650D9261750DA22DFA475EF14F04A
:1028E60077EF14F07AEF14F0AC8C8AEF14F020EE48
:1028F60005F01650D9261750DA22DFB485EF14F00A
:1029060087EF14F08AEF14F0AC9C8AEF14F01200F3
:1029160001500210D8B492EF14F094EF14F0A5EF22
:1029260014F001C0D9FF02C0DAFFDF30E832E83226
:10293600070B036E070E0364A3EF14F0A5EF14F064
:10294600A7EF14F0D3EF14F001C0D9FF02C0DAFFED
:10295600DF30E832E832070B036E010E046E032AFD
:10296600B7EF14F0D8900436032EB5EF14F001C07B
:10297600D9FF02C0DAFFDF50070B056E0550020DC6
:10298600D20EF324D96E000EF420DA6EDECF06F0F6
:10299600DDCF07F006C0D9FF07C0DAFF0450DF1A03
:1029A6001200C40EF66E2C0EF76E000EF86E01EED7
:1029B60000F010EE81F00900F5CFEEFFE550E15092
:1029C600FAE1900EF66E320EF76E000EF86E00EE1D
:1029D600D2F010EE2BF00900F5CFEEFFE550E150F6
:1029E600FAE16E0EF66E330EF76E000EF86E00EE1E
:1029F60060F010EE0AF00900F5CFEEFFE550E15069
:102A0600FAE101EE81F01E0EEE6AE806FDE100EE47
:102A160080F0520EEE6AE806FDE100EE47F0190E70
:102A2600EE6AE806FDE16A906A9200019CEF18F0F2
:102A3600482A7B0E016E010E026E000E046E000E19
:102A4600036E5EEC19F00001FF6F4804D8A42EEF68
:102A560015F030EF15F042EF15F0700E016E010E15
:102A6600026E300E046ED40E036E9FEC17F000015A
:102A7600FF6FBD50F00B0909BD6E5DEF15F0020E3C
:102A86004818D8A449EF15F04BEF15F05DEF15F097
:102A9600700E016E010E026E920E046E7C0E036EB7
:102AA6009FEC17F00001FF6FBD50F00B0809BD6EDB
:102AB600000E486E12000F6EF2900F04D8A466EF57
:102AC60015F068EF15F080EF15F00001AC51AD116F
:102AD600D8B470EF15F072EF15F09EEF15F002D82E
:102AE6007EEF15F00500FA6EAC51FD6EAD51FE6E2F
:102AF600FF6AFA5012009EEF15F00F50D8A486EF29
:102B060015F088EF15F09EEF15F00001AA51AB11F4
:102B1600D8B490EF15F092EF15F09EEF15F002D8AD
:102B26009EEF15F00500FA6EAA51FD6EAB51FE6ED2
:102B3600FF6AFA50120012000F6EF2900F04D8A42A
:102B4600A7EF15F0A9EF15F0C1EF15F00001B05190
:102B5600B111D8B4B1EF15F0B3EF15F0DFEF15F002
:102B660002D8BFEF15F00500FA6EB051FD6EB151F7
:102B7600FE6EFF6AFA501200DFEF15F00F50D8A470
:102B8600C7EF15F0C9EF15F0DFEF15F00001AE51F4
:102B9600AF11D8B4D1EF15F0D3EF15F0DFEF15F084
:102BA60002D8DFEF15F00500FA6EAE51FD6EAF519B
:102BB600FE6EFF6AFA50120012000F6EF2900F04BA
:102BC600D8A4E8EF15F0EAEF15F002EF16F00001D1
:102BD600B451B511D8B4F2EF15F0F4EF15F020EFBB
:102BE60016F002D800EF16F00500FA6EB451FD6E2D
:102BF600B551FE6EFF6AFA50120020EF16F00F5024
:102C0600D8A408EF16F00AEF16F020EF16F0000130
:102C1600B251B311D8B412EF16F014EF16F020EF3C
:102C260016F002D820EF16F00500FA6EB251FD6ECE
:102C3600B351FE6EFF6AFA50120012000F6EF29048
:102C46000F04D8A429EF16F02BEF16F043EF16F079
:102C56000001B851B911D8B433EF16F035EF16F0BC
:102C660061EF16F002D841EF16F00500FA6EB85182
:102C7600FD6EB951FE6EFF6AFA50120061EF16F052
:102C86000F50D8A449EF16F04BEF16F061EF16F08F
:102C96000001B651B711D8B453EF16F055EF16F040
:102CA60061EF16F002D861EF16F00500FA6EB65124
:102CB600FD6EB751FE6EFF6AFA50120012008025B3
:102CC60000010001000000000000000000000005F7
:102CD600520000883300000000323A030B131B2316
:102CE6002B333B800F810F820F830F840F9C3300A1
:102CF60000000000019C33000201DC0B02020A12F4
:102D06001A626A727A00000005050002020A121AA7
:102D1600222A4A33383371015C3301000141802590
:102D2600000600030000000020300000000001083B
:0F2D3600120000362A000000000000000000100C
:102D4600010E0D6E0A500B10D8A4ACEF16F0AEEFC4
:102D560016F0B2EF16F0000E0D6EE1EF16F053C04E
:102D66000EF00AC0D9FF0BC0DAFFDF500F0B0C6E56
:102D76000E500C18F80B0C180E6E0AC0D9FF0BC0BB
:102D8600DAFFDF38070B0C6E0C460C460C460E506D
:102D96000C18C70B0C180E6E0E9C0AC0D9FF0BC080
:102DA600DAFFDFAE02D00E8E01D00E9E0E0E016E41
:102DB600000E026E000E036EAFEC12F00D50120004
:102DC600010E0D6E0A500B10D8A4ECEF16F0EEEFC4
:102DD60016F0F2EF16F0000E0D6E21EF17F054C04C
:102DE6000EF00AC0D9FF0BC0DAFFDF500F0B0C6ED6
:102DF6000E500C18F80B0C180E6E0AC0D9FF0BC03B
:102E0600DAFFDF38070B0C6E0C460C460C460E50EC
:102E16000C18C70B0C180E6E0E9C0AC0D9FF0BC0FF
:102E2600DAFFDFAE02D00E8E01D00E9E0E0E016EC0
:102E3600000E026E010E036EAFEC12F00D50120082
:102E4600010E276E24502510D8A42CEF17F02EEF74
:102E560017F032EF17F0000E276E5FEF17F055C030
:102E660028F024C0D9FF25C0DAFFDF500F0B266EED
:102E760028502618F80B2618286E24C0D9FF25C01E
:102E8600DAFFDF38070B266E2646264626462850EA
:102E96002618C70B2618286E289C24C0D9FF25C0E3
:102EA600DAFFDFAE02D0288E01D0289E280E206ED3
:102EB600000E216EDAEC17F027501200010E0B6E91
:102EC60008500910D8A46AEF17F06CEF17F070EFEE
:102ED60017F0000E0B6E9DEF17F052C00CF008C0F5
:102EE600D9FF09C0DAFFDF500F0B0A6E0C500A1823
:102EF600F80B0A180C6E08C0D9FF09C0DAFFDF38D4
:102F0600070B0A6E0A460A460A460C500A18C70BF1
:102F16000A180C6E0C9C08C0D9FF09C0DAFFDFAE98
:102F260002D00C8E01D00C9E0C0E016E000E026EAD
:102F36008BEC14F00B501200010E066EC0C007F0A9
:102F4600C1C008F001500210D8A4ACEF17F0AEEFE4
:102F560017F0B2EF17F0000E066ED8EF17F020EE5E
:102F660003F00150D9260250DA22DF50D8A4BEEF72
:102F760017F0C0EF17F0C6EF17F007C0BEFF08C086
:102F8600BFFFD8EF17F020EE03F00150D92602500C
:102F9600DA22DE04D8A4D2EF17F0D4EF17F0D8EF78
:102FA60017F007C0BBFF08C0BCFF06501200205038
:102FB6002110D8B4E1EF17F0E3EF17F0F4EF17F0B4
:102FC60020C0D9FF21C0DAFFDF30E832E832070B34
:102FD600226E070E2264F2EF17F0F4EF17F0F8EF07
:102FE60017F0000E236E0EEF18F020C016F021C069
:102FF60017F077EC11F0236E20C016F021C017F001
:1030060020C0D9FF21C0DAFF000EDFBE010E186E08
:1030160019EC12F0236E235012005E0E016E000EA4
:10302600026E73EC19F0630E5E185F10D8A41EEFE3
:1030360018F020EF18F029EF18F0690E0A6E000E4E
:103046000B6EE3EC16F0620E90EC19F0640E5E184F
:103056005F10D8A431EF18F033EF18F03CEF18F0FA
:10306600690E0A6E000E0B6EA3EC16F0610E90EC64
:1030760019F01200010E0101B16FAF51B011D8A4C1
:1030860047EF18F049EF18F04DEF18F0000EB16F4A
:1030960061EF18F0AB9EAFC145F0B0C146F00BEC46
:1030A60008F0AFC116F0B0C117F031EC14F0AFC1A3
:1030B60016F0B0C117F0C3EC13F0AB8E0101B1519D
:1030C60012009E900001A351CF6EA2C0CEFFA45164
:1030D600A511D8B471EF18F073EF18F07FEF18F060
:1030E60002D87FEF18F00500FA6EA451FD6EA551C7
:1030F600FE6EFF6AFA5012001200F2940001A75108
:10310600D76EA6C0D6FFA851A911D8B48DEF18F076
:103116008FEF18F09BEF18F002D89BEF18F0050020
:10312600FA6EA851FD6EA951FE6EFF6AFA501200A2
:103136001200600E0101AF6F010EB06F3DEC18F08A
:103146000001FF6F690E246E000E256E23EC17F04A
:103156000001FF6F610E83EC19F00001FF6FB2EF03
:1031660018F007EF00F09E929EC0CCFF0001A05120
:10317600A111D8B4C1EF18F0C3EF18F0CFEF18F0D3
:1031860002D8CFEF18F00500FA6EA051FD6EA151DE
:10319600FE6EFF6AFA50120012009E8A00018451E8
:1031A6008511D8B4D9EF18F0DBEF18F0E7EF18F077
:1031B60002D8E7EF18F00500FA6E8451FD6E8551CE
:1031C600FE6EFF6AFA5012009E9A1200F0900001FD
:1031D600BC51BD11D8B4F2EF18F0F4EF18F000EFBF
:1031E60019F002D800EF19F00500FA6EBC51FD6E19
:1031F600BD51FE6EFF6AFA5012001200F2920001F3
:10320600BE51BF11D8B40AEF19F00CEF19F018EF40
:1032160019F002D818EF19F00500FA6EBE51FD6ECE
:10322600BF51FE6EFF6AFA50120012009E94000112
:10323600C651C711D8B422EF19F024EF19F030EFB8
:1032460019F002D830EF19F00500FA6EC651FD6E7E
:10325600C751FE6EFF6AFA501200120000019C511F
:103266009D11D8B439EF19F03BEF19F047EF19F07B
:1032760002D847EF19F00500FA6E9C51FD6E9D517C
:10328600FE6EFF6AFA5012001200890F8A0F8B0F2A
:103296008C0F8D0F920F930F940F950F960F020AB6
:1032A600121A00C300005200011A1B1819101288C6
:0532B6003300000000E0
:1032BC00010E056E01500210D8A467EF19F069EFEA
:1032CC0019F06DEF19F0000E056E71EF19F0045046
:1032DC00B36E03C0B2FF055012009EAA78EF19F02E
:1032EC007AEF19F082EF19F001C0D9FF02C0DAFFB2
:1032FC00AECFDFFF82EF19F01200166EACA289EF91
:10330C0019F08BEF19F084EF19F09D8816C0ADFF02
:10331C00010E1200016EACA296EF19F098EF19F0A5
:10332C0091EF19F09D8801C0ADFF1200680E0A6E76
:10333C00000E0B6EA3EC16F00001FF6F1200680E6E
:10334C000A6E000E0B6EE3EC16F00001FF6F12001C
:10335C00680E086E000E096E61EC17F00001FF6F2D
:10336C00120037173B170101010102030001904BBA
:10337C00912B12000001924B932B120000018A4BEF
:10338C008B2B12009D981200A19012009E9C120093
:02339C0012001D
:020000040020DA
:08000000FFFFFFFFFFFFFFFF00
:020000040030CA
:0E000000FF02091EFF8181FF0FC00FE00F40BD
:00000001FF
