:020000040000FA
:0400000007EF00F016
:0A0008006A82C6ED0EF0FFEF14F05F
:10100000003738392F3435362A3132332D23303DED
:101010002B4C4544204F46460D004C4544204F4E36
:101020000D0025690000000E01018D6F000E8E6F0E
:10103000000E8F6F000E906F44EF0AF0AC98AC94E6
:10104000B89645C0D9FF46C0DAFFDECF8BF1DDCFC1
:101050008CF18BC116F08CC117F0186A196A000E5A
:1010600091EC10F016C028F017C029F018C02AF033
:1010700019C02BF0000E246E240E256EF40E266E81
:101080004A0E276EF9EC0CF024C091F125C092F1C4
:1010900026C093F127C094F1000E286E000E296E31
:1010A000800E2A6E420E2B6E91C124F092C125F063
:1010B00093C126F094C127F0F9EC0CF024C03DF068
:1010C00025C03EF026C03FF027C040F0000E416E24
:1010D000000E426E800E436EBF0E446E8BEC0AF023
:1010E0003DC08DF13EC08EF13FC08FF140C090F108
:1010F0006FEF0AF0AC98AC84B89645C0D9FF46C0F3
:10110000DAFFDECF8BF1DDCF8CF18BC116F08CC115
:1011100017F0186A196A000E91EC10F016C028F04A
:1011200017C029F018C02AF019C02BF0000E246E49
:10113000240E256EF40E266E4A0E276EF9EC0CF086
:1011400024C091F125C092F126C093F127C094F1FB
:10115000000E286E000E296E800E2A6E410E2B6E38
:1011600091C124F092C125F093C126F094C127F0DB
:10117000F9EC0CF024C03DF025C03EF026C03FF055
:1011800027C040F0000E416E000E426E800E436E8E
:10119000BF0E446E8BEC0AF03DC08DF13EC08EF167
:1011A0003FC08FF140C090F16FEF0AF0AC98AC9463
:1011B000B88645C0D9FF46C0DAFFDECF8BF1DDCF60
:1011C0008CF18BC116F08CC117F0186A196A000EE9
:1011D00091EC10F016C028F017C029F018C02AF0C2
:1011E00019C02BF0000E246E240E256EF40E266E10
:1011F0004A0E276EF9EC0CF024C091F125C092F153
:1012000026C093F127C094F1000E286E000E296EBF
:10121000800E2A6E410E2B6E91C124F092C125F0F2
:1012200093C126F094C127F0F9EC0CF024C03DF0F6
:1012300025C03EF026C03FF027C040F0000E416EB2
:10124000000E426E800E436EBF0E446E8BEC0AF0B1
:101250003DC08DF13EC08EF13FC08FF140C090F196
:101260006FEF0AF0AC98AC84B88645C0D9FF46C091
:10127000DAFFDECF8BF1DDCF8CF18BC116F08CC1A4
:1012800017F0186A196A000E91EC10F016C028F0D9
:1012900017C029F018C02AF019C02BF0000E246ED8
:1012A000240E256EF40E266E4A0E276EF9EC0CF015
:1012B00024C091F125C092F126C093F127C094F18A
:1012C000000E286E000E296E800E2A6E400E2B6EC8
:1012D00091C124F092C125F093C126F094C127F06A
:1012E000F9EC0CF024C03DF025C03EF026C03FF0E4
:1012F00027C040F0000E416E000E426E800E436E1D
:10130000BF0E446E8BEC0AF03DC08DF13EC08EF1F5
:101310003FC08FF140C090F16FEF0AF0AC98B896E3
:1013200045C0D9FF46C0DAFFDECF8BF1DDCF8CF1AF
:101330008BC116F08CC117F0186A196A000E91EC77
:1013400010F016C028F017C029F018C02AF019C0F4
:101350002BF0000E246E240E256EF40E266E4A0E1F
:10136000276EF9EC0CF024C091F125C092F126C053
:1013700093F127C094F1000E286E000E296E800EA6
:101380002A6E400E2B6E91C124F092C125F093C1BC
:1013900026F094C127F0F9EC0CF024C03DF025C0F4
:1013A0003EF026C03FF027C040F0000E416E000E18
:1013B000426E800E436EBF0E446E8BEC0AF03DC051
:1013C0008DF13EC08EF13FC08FF140C090F16FEFC4
:1013D0000AF0AC88B88645C0D9FF46C0DAFFDECF38
:1013E0008BF1DDCF8CF18BC116F08CC117F0186A30
:1013F000196A000E91EC10F016C028F017C029F001
:1014000018C02AF019C02BF0000E246E240E256E91
:10141000F40E266E4A0E276EF9EC0CF024C091F102
:1014200025C092F126C093F127C094F1000E286EDA
:10143000000E296E800E2A6E400E2B6E91C124F094
:1014400092C125F093C126F094C127F0F9EC0CF07D
:1014500024C03DF025C03EF026C03FF027C040F03C
:10146000000E416E000E426E800E436EBF0E446E43
:101470008BEC0AF03DC08DF13EC08EF13FC08FF184
:1014800040C090F16FEF0AF020EE02F04550D926EF
:101490004650DA22DF508B6F8C6B8C51000AD8B427
:1014A00054EF0AF06FEF0AF08B51000AD8B41EEF28
:1014B00008F0010AD8B47AEF08F0030AD8B4D6EFDE
:1014C00008F0010AD8B432EF09F0070AD8B48EEF59
:1014D00009F0010AD8B4E9EF09F06FEF0AF08DC105
:1014E00016F08EC117F08FC118F090C119F034ECCE
:1014F00013F01650AF6E8DC116F08EC117F08FC16C
:1015000018F090C119F034EC13F017C016F0176AF8
:101510001650B06E12004050800B0101876F405092
:101520004024896F3FAE97EF0AF099EF0AF09AEFE7
:101530000AF089818951D8B4A0EF0AF0A2EF0AF02D
:10154000B7EF0AF08929D8A4A8EF0AF0AAEF0AF0A9
:10155000B2EF0AF0000E3D6E000E3E6E000E3F6EC2
:10156000000E406E3F8E000E406EBFEF0AF0000E80
:101570003D6E000E3E6E000E3F6E000E406E4450FB
:10158000800B886F87518819D8B4C9EF0AF0CBEF68
:101590000AF0CCEF0AF0878D44504424886F43AEA4
:1015A000D4EF0AF0D6EF0AF0D7EF0AF0888188511D
:1015B000D8B4DDEF0AF0DFEF0AF0F4EF0AF0882983
:1015C000D8A4E5EF0AF0E7EF0AF0EFEF0AF0000E1B
:1015D000416E000E426E000E436E000E446E438E4E
:1015E000000E446EFCEF0AF0000E416E000E426EDB
:1015F000000E436E000E446E8951885DD8B003EF33
:101600000BF005EF0BF02CEF0BF087AD0AEF0BF0B2
:101610000CEF0BF00EEF0BF0800E871B89C18AF1E7
:1016200088C189F18AC188F13DC08AF141C03DF08D
:101630008AC141F03EC08AF142C03EF08AC142F008
:101640003FC08AF143C03FF08AC143F040C08AF1F5
:1016500044C040F08AC144F0000E8A6F895188C1AD
:10166000FAF00001FB6BFA5F000EFB5BFBBF42EF81
:101670000BF0FB5109E11A0EFA5DD8A042EF0BF016
:1016800044EF0BF07CEF0BF03D503E103F1040104C
:10169000D8A44DEF0BF050EF0BF0010E51EF0BF013
:1016A000000E01018A6F000E3D6E000E3E6E000EB0
:1016B0003F6E000E406E88C189F186EF0BF08AA163
:1016C00064EF0BF066EF0BF06CEF0BF0D8908A3103
:1016D00001098A6F6EEF0BF0D8908A333DA073EF4B
:1016E0000BF075EF0BF076EF0BF08A8F4034403241
:1016F0003F323E323D32892B01018851895DD8A0AD
:1017000084EF0BF086EF0BF05FEF0BF087BD8BEFF4
:101710000BF08DEF0BF0CDEF0BF08951D8A493EFC8
:101720000BF095EF0BF09FEF0BF0000E3D6E000EEF
:101730003E6E000E3F6E000E406EF8EF0CF0415012
:101740003D2642503E2243503F224450402240A07A
:10175000ACEF0BF0AEEF0BF05EEF0CF08AA1B3EF45
:101760000BF0B5EF0BF0BBEF0BF0D8908A3101090D
:101770008A6FBDEF0BF0D8908A333DA0C2EF0BF01B
:10178000C4EF0BF0C5EF0BF08A8F403440323F328C
:101790003E323D32892B5EEF0CF041503D5C4250B1
:1017A0003E5843503F584050800A0001FA6F445061
:1017B000800AFA59D8B0DFEF0BF0E1EF0BF00DEF34
:1017C0000CF03D50415CFA6F3E504258FB6F3F5069
:1017D0004358FC6F40504458FD6FFF0EFA253D6E94
:1017E000FF0EFB213E6EFF0EFC213F6EFF0EFD2122
:1017F000406E800E0101871B8A6D8A51D8A403EFC9
:101800000CF005EF0CF015EF0CF0010E3D26000E6C
:101810003E223F22402215EF0CF041503D5E4250E7
:101820003E5A43503F5A4450405A3D503E103F109C
:101830004010D8A41EEF0CF020EF0CF057EF0CF086
:1018400001018A51D8A427EF0CF029EF0CF057EFD3
:101850000CF0000E3D6E000E3E6E000E3F6E000E50
:10186000406EF8EF0CF0D8903D363E363F364036AD
:1018700001018AAF3EEF0CF040EF0CF041EF0CF0AD
:101880003D808AA146EF0CF048EF0CF04CEF0CF0D5
:10189000D8808A374EEF0CF0D8908A378951D8B467
:1018A00054EF0CF056EF0CF057EF0CF089073FAEF9
:1018B0005CEF0CF05EEF0CF033EF0CF0000E01016A
:1018C000886F8AAF66EF0CF068EF0CF082EF0CF0D7
:1018D0008AC1FAF07F0E0001FA17D8B472EF0CF04B
:1018E00074EF0CF079EF0CF0010E0101886F82EFBC
:1018F0000CF03DA07EEF0CF080EF0CF082EF0CF0CE
:1019000074EF0CF001018851D8B489EF0CF08BEF23
:101910000CF0B8EF0CF0010E3D26000E3E223F22E7
:10192000402240A096EF0CF098EF0CF0B8EF0CF0CE
:101930003DC0FAF03EC0FBF03FC0FCF040C0FDF0FF
:101940000001FD35FD33FC33FB33FA33FAC03DF0C3
:10195000FBC03EF0FCC03FF0FDC040F00101892912
:10196000D8B4B5EF0CF0B7EF0CF0B8EF0CF0892B52
:101970008929D8B4BEEF0CF0C0EF0CF0C8EF0CF022
:101980008951D8A4C6EF0CF0C8EF0CF0DAEF0CF0D8
:10199000000E3D6E000E3E6E000E3F6E000E406E5D
:1019A0008951D8A4D6EF0CF0D8EF0CF0DAEF0CF098
:1019B000000E876F89A1DFEF0CF0E1EF0CF0E4EF90
:1019C0000CF03F8EE5EF0CF03F9ED8908931406ED1
:1019D00087AFEDEF0CF0EFEF0CF0F0EF0CF0408E76
:1019E0003DC03DF03EC03EF03FC03FF040C040F043
:1019F00012002750800B346E275027243B6E26AEF2
:101A000004EF0DF006EF0DF007EF0DF03B803B50BB
:101A1000D8B40DEF0DF00FEF0DF024EF0DF03B28D3
:101A2000D8A415EF0DF017EF0DF01FEF0DF0000E1D
:101A3000246E000E256E000E266E000E276E268E7A
:101A4000000E276E2CEF0DF0000E246E000E256E9A
:101A5000000E266E000E276E2B50800B341A2B5072
:101A60002B243C6E2AAE37EF0DF039EF0DF03AEF34
:101A70000DF03C803C50D8B440EF0DF042EF0DF03B
:101A800057EF0DF03C28D8A448EF0DF04AEF0DF0C9
:101A900052EF0DF0000E286E000E296E000E2A6E19
:101AA000000E2B6E2A8E000E2B6E5FEF0DF0000ED7
:101AB000286E000E296E000E2A6E000E2B6E285026
:101AC00029102A102B10D8A468EF0DF06AEF0DF042
:101AD00082EF0DF0000E246E000E256E000E266EB5
:101AE000000E276E800E26127F0E2712345027120A
:101AF00024C024F025C025F026C026F027C027F0FA
:101B0000C5EF0EF03B50D8A488EF0DF08AEF0DF032
:101B100094EF0DF0000E246E000E256E000E266E62
:101B2000000E276EC5EF0EF03C503BC02CF02D6A26
:101B30002C5E000E2D5A7F0E2C24356E000E2D20AB
:101B4000366E24C030F025C031F026C032F027C0F8
:101B500033F0000E246E000E256E000E266E000E71
:101B6000276E000E376E000E386E000E396E000EB6
:101B70003A6E000E3C6EF5EF0DF03C50D8B4C3EF5A
:101B80000DF0C5EF0DF0DCEF0DF0D89030363136AA
:101B900032363336D89024362536263627363AAEB6
:101BA000D4EF0DF0D6EF0DF0D7EF0DF02480D890E4
:101BB0003736383639363A362850305C2950315865
:101BC0002A5032582B503358D8A0E9EF0DF0EBEFE4
:101BD0000DF0F4EF0DF03A8C2850305E2950315A58
:101BE0002A50325A2B50335A3C2A190E3C64FBEFD0
:101BF0000DF0FDEF0DF0BDEF0DF030503110321053
:101C00003310D8B406EF0EF008EF0EF020EF0EF010
:101C1000378020EF0EF0D89024362536263627362A
:101C20003AAE15EF0EF017EF0EF018EF0EF024801D
:101C3000D8903736383639363A363506D8A0360693
:101C400026AE25EF0EF027EF0EF00BEF0EF0000E94
:101C50003C6E3AAE2EEF0EF030EF0EF054EF0EF079
:101C6000FF0E37142C6EFF0E38142D6EFF0E391434
:101C70002E6E7F0E3A142F6E2C502D102E102F101A
:101C8000D8B445EF0EF047EF0EF04BEF0EF0010E1B
:101C90003C6E54EF0EF024A050EF0EF052EF0EF019
:101CA00054EF0EF047EF0EF03C50D8B45AEF0EF060
:101CB0005CEF0EF080EF0EF0010E2426000E2522C0
:101CC0002622272227A067EF0EF069EF0EF080EFA3
:101CD0000EF024C02CF025C02DF026C02EF027C019
:101CE0002FF02F342F322E322D322C322CC024F0F4
:101CF0002DC025F02EC026F02FC027F0354A362AF9
:101D000036BE8BEF0EF0365008E13528D8A08BEFA9
:101D10000EF08DEF0EF098EF0EF0000E366E356877
:101D2000000E246E000E256E000E266E000E276E2D
:101D300036BEA5EF0EF0365006E13504D8B0A3EF5D
:101D40000EF0A5EF0EF0B3EF0EF0000E366E000EA3
:101D5000356E000E246E000E256E000E266E000EEF
:101D6000276E000E346E35C03BF03BA0BAEF0EF08C
:101D7000BCEF0EF0BFEF0EF0268EC0EF0EF0269EE9
:101D8000D8903B30276E76EF0DF012000600FACFA8
:101D900010F0FBCF11F0D9CF12F0DACF13F0F3CF60
:101DA00014F0F4CF15F0F2A8D8EF0EF0DAEF0EF041
:101DB000E3EF0EF0F2A2DFEF0EF0E1EF0EF0E3EF53
:101DC0000EF085EC19F0F0A6E8EF0EF0EAEF0EF059
:101DD000F3EF0EF0F0A0EFEF0EF0F1EF0EF0F3EFF7
:101DE0000EF06DEC19F0F0A8F8EF0EF0FAEF0EF02F
:101DF00003EF0FF0F0A2FFEF0EF001EF0FF003EF93
:101E00000FF06DEC19F09DAC08EF0FF00AEF0FF03A
:101E100013EF0FF09EAC0FEF0FF011EF0FF013EF79
:101E20000FF030EC1AF0F2A618EF0FF01AEF0FF0E7
:101E300035EF0FF0F2A01FEF0FF021EF0FF035EFAD
:101E40000FF081A826EF0FF028EF0FF035EF0FF01D
:101E50006804D8A42EEF0FF030EF0FF035EF0FF03D
:101E6000000E686E010E4CEC16F0F2A63AEF0FF081
:101E70003CEF0FF057EF0FF0F2A041EF0FF043EF00
:101E80000FF057EF0FF081B848EF0FF04AEF0FF067
:101E900057EF0FF06850D8A450EF0FF052EF0FF04B
:101EA00057EF0FF0010E686E000E4CEC16F0F2A624
:101EB0005CEF0FF05EEF0FF079EF0FF0F2A063EF41
:101EC0000FF065EF0FF079EF0FF081AA6AEF0FF0D6
:101ED0006CEF0FF079EF0FF06704D8A472EF0FF0FA
:101EE00074EF0FF079EF0FF0000E676E010E0BEC40
:101EF00016F0F2A67EEF0FF080EF0FF09BEF0FF0E1
:101F0000F2A085EF0FF087EF0FF09BEF0FF081BA93
:101F10008CEF0FF08EEF0FF09BEF0FF06750D8A40F
:101F200094EF0FF096EF0FF09BEF0FF0010E676E3E
:101F3000000E0BEC16F0F2A6A0EF0FF0A2EF0FF0E0
:101F4000BDEF0FF0F2A0A7EF0FF0A9EF0FF0BDEF7C
:101F50000FF081ACAEEF0FF0B0EF0FF0BDEF0FF070
:101F60006604D8A4B6EF0FF0B8EF0FF0BDEF0FF096
:101F7000000E666E010ECAEC15F0F2A6C2EF0FF06D
:101F8000C4EF0FF0DFEF0FF0F2A0C9EF0FF0CBEFCF
:101F90000FF0DFEF0FF081BCD0EF0FF0D2EF0FF0BA
:101FA000DFEF0FF06650D8A4D8EF0FF0DAEF0FF0A4
:101FB000DFEF0FF0010E666E000ECAEC15F0F2A610
:101FC000E4EF0FF0E6EF0FF001EF10F0F2A0EBEF0F
:101FD0000FF0EDEF0FF001EF10F081AEF2EF0FF028
:101FE000F4EF0FF001EF10F06504D8A4FAEF0FF052
:101FF000FCEF0FF001EF10F0000E656E010E89ECA2
:1020000015F0F2A606EF10F008EF10F023EF10F035
:10201000F2A00DEF10F00FEF10F023EF10F081BEE3
:1020200014EF10F016EF10F023EF10F06550D8A465
:102030001CEF10F01EEF10F023EF10F0010E656E94
:10204000000E89EC15F0F2AA28EF10F02AEF10F03C
:1020500033EF10F0F2A42FEF10F031EF10F033EF68
:1020600010F01FEC19F09DA038EF10F03AEF10F0CF
:1020700043EF10F09EA03FEF10F041EF10F043EF60
:1020800010F003EC19F09DA248EF10F04AEF10F0A9
:1020900053EF10F09EA24FEF10F051EF10F053EFFE
:1020A00010F03BEC19F0A0A258EF10F05AEF10F02E
:1020B00063EF10F0A1A25FEF10F061EF10F063EF9B
:1020C00010F0B5EC19F09DA468EF10F06AEF10F075
:1020D00073EF10F09EA46FEF10F071EF10F073EF3C
:1020E00010F09DEC19F0A0A078EF10F07AEF10F04E
:1020F00083EF10F0A1A07FEF10F081EF10F083EFDD
:1021000010F02EEC1AF015C0F4FF14C0F3FF13C04A
:10211000DAFF12C0D9FF11C0FBFF10C0FAFF6A92AC
:1021200011001E6E1E50D8B498EF10F09AEF10F008
:10213000BCEF10F019BEA1EF10F09FEF10F0BCEF54
:1021400010F016C01AF017C01BF018C01CF019C010
:102150001DF01A1E1B1E1C1E1D1E1A2A000E1B22FD
:102160001C221D221AC020F01BC021F01CC022F02E
:102170001DC023F0C4EF10F016C020F017C021F0EE
:1021800018C022F019C023F016501710181019109B
:10219000D8A4CDEF10F0CFEF10F0D9EF10F0000E73
:1021A000166E000E176E000E186E000E196E6AEF96
:1021B00011F0960E1F6EE3EF10F01F2AD890233215
:1021C000223221322032000E20141A6E000E211409
:1021D0001B6E000E22141C6EFE0E23141D6E1A5070
:1021E0001B101C101D10D8A4F8EF10F0FAEF10F01F
:1021F000DDEF10F008EF11F01F2A010E2026000E6F
:10220000212222222322D89023322232213220324C
:10221000000E20141A6E000E21141B6E000E2214E4
:102220001C6EFF0E23141D6E1A501B101C101D1067
:10223000D8A41DEF11F01FEF11F0FCEF10F027EF05
:1022400011F01F06D890203621362236233622BEC2
:102250002CEF11F02EEF11F036EF11F0020E1F608F
:1022600034EF11F036EF11F021EF11F01FB03BEF1A
:1022700011F03DEF11F03EEF11F0229ED8901F3289
:102280001FC01AF01B6A1C6A1D6A1AC01DF01C6A66
:102290001B6A1A6A1A5020121B5021121C5022125B
:1022A0001D5023121E50D8B458EF11F05AEF11F000
:1022B00062EF11F019BE61EF11F05FEF11F062EF04
:1022C00011F0238E20C016F021C017F022C018F0A4
:1022D00023C019F01200010E1E6E16501710D8B44C
:1022E00074EF11F076EF11F087EF11F016C0D9FFFF
:1022F00017C0DAFFDF30E832E832070B186E070E3E
:10230000186485EF11F087EF11F0EAEF11F0000E7D
:102310001E6E0BEF12F016C0D9FF17C0DAFFDF30C8
:10232000E832E832070B186E010E196E182A9BEF7F
:1023300011F0D8901936182E99EF11F01950FF0AA4
:102340001A6E16C0D9FF17C0DAFFDF50070B1B6EDD
:102350001B50020DD40EF324D96E000EF420DA6E59
:10236000DECF1CF0DDCF1DF01CC0D9FF1DC0DAFF91
:102370001A50DF160BEF12F016C0D9FF17C0DAFFA4
:10238000DF30E832E832070B186E010E196E182A9A
:10239000CCEF11F0D8901936182ECAEF11F016C0F4
:1023A000D9FF17C0DAFFDF50070B1A6E1A50020D63
:1023B000D40EF324D96E000EF420DA6EDECF1BF0BB
:1023C000DDCF1CF01BC0D9FF1CC0DAFF1950DF1293
:1023D0000BEF12F016C0D9FF17C0DAFFDFBCF3EF26
:1023E00011F0F6EF11F0010EF7EF11F0000E186E7C
:1023F000196A1950000AD8B400EF12F087EF11F0F3
:102400001850000AD8B48BEF11F0010AD8B4BCEF11
:1024100011F087EF11F01E501200010E1F6E1650C2
:102420001710D8B416EF12F018EF12F029EF12F0CF
:1024300016C0D9FF17C0DAFFDF30E832E832070BE9
:10244000196E070E196427EF12F029EF12F08CEFC6
:1024500012F0000E1F6EA1EF12F016C0D9FF17C0C8
:10246000DAFFDF30E832E832070B196E010E1A6E20
:10247000192A3DEF12F0D8901A36192E3BEF12F0C0
:102480001A50FF0A1B6E16C0D9FF17C0DAFFDF50C3
:10249000070B1C6E1C50020DCA0EF324D96E000EE1
:1024A000F420DA6EDECF1DF0DDCF1EF01DC0D9FFA7
:1024B0001EC0DAFF1B50DF16A1EF12F016C0D9FFC5
:1024C00017C0DAFFDF30E832E832070B196E010E71
:1024D0001A6E192A6EEF12F0D8901A36192E6CEF78
:1024E00012F016C0D9FF17C0DAFFDF50070B1B6EC2
:1024F0001B50020DCA0EF324D96E000EF420DA6EC2
:10250000DECF1CF0DDCF1DF01CC0D9FF1DC0DAFFEF
:102510001A50DF12A1EF12F01850196E1A6A1A50F1
:10252000000AD8B496EF12F029EF12F01950000A01
:10253000D8B42DEF12F0010AD8B45EEF12F029EFF3
:1025400012F01F50120001500210D8B4AAEF12F07E
:10255000ACEF12F0BDEF12F001C0D9FF02C0DAFFFC
:10256000DF30E832E832070B046E070E0464BBEF7D
:1025700012F0BDEF12F01EEF13F033EF13F001C0B5
:10258000D9FF02C0DAFFDF30E832E832070B046E11
:10259000010E056E042ACFEF12F0D8900536042EF6
:1025A000CDEF12F00550FF0A066E01C0D9FF02C040
:1025B000DAFFDF50070B076E0750020DCA0EF32437
:1025C000D96E000EF420DA6EDECF08F0DDCF09F010
:1025D00008C0D9FF09C0DAFF0650DF1633EF13F049
:1025E00001C0D9FF02C0DAFFDF30E832E832070B62
:1025F000046E010E056E042A00EF13F0D890053624
:10260000042EFEEF12F001C0D9FF02C0DAFFDF5046
:10261000070B066E0650020DCA0EF324D96E000E8B
:10262000F420DA6EDECF07F0DDCF08F007C0D9FF67
:1026300008C0DAFF0550DF1233EF13F00350046EC9
:10264000056A0550000AD8B428EF13F0BDEF12F068
:102650000450000AD8B4BFEF12F0010AD8B4F0EF6A
:1026600012F0BDEF12F01200183419341F6E1F5013
:10267000D8A43DEF13F03FEF13F049EF13F0000E35
:10268000166E000E176E000E186E000E196EB6EF65
:1026900013F016C01AF017C01BF018C01CF019C0B8
:1026A0001DF0200E59EF13F0D8901D321C321B3252
:1026B0001A32E82E54EF13F01A501E6E188EFF0EC9
:1026C0001616FF0E1716FF0E1816000E1916960E88
:1026D0001F5E1FBE70EF13F06EEF13F086EF13F066
:1026E0001F50800A970FD8B078EF13F07AEF13F0ED
:1026F0007CEF13F03FEF13F0D890193218321732F5
:1027000016321F3E7CEF13F09EEF13F01F0E1F6476
:102710008CEF13F08EEF13F096EF13F03FEF13F002
:10272000D89016361736183619361F061F50D8A4FB
:102730009CEF13F09EEF13F090EF13F01E50D8B4FF
:10274000A4EF13F0A6EF13F0AEEF13F0191E181E4E
:10275000171E166C000E17221822192216C016F02A
:1027600017C017F018C018F019C019F01200500E59
:102770000101956F010E966FDAEC18F00001FF6F02
:10278000690E246E000E256E8DEC17F00001FF6FB0
:102790005E0E166E000E176ECCEC19F00001FF6F86
:1027A000FF05D8A4D6EF13F0D8EF13F0C8EF13F05D
:1027B000610E5E185F10D8A4E0EF13F0E2EF13F0A3
:1027C000F8EF13F0690E206E000E216E8DEC16F0FE
:1027D0000001FF6F1A0E176E100E186E000E1A6EA3
:1027E000070E196EAFEC18F00001FF6FC8EF13F081
:1027F000620E5E185F10D8A400EF14F002EF14F020
:1028000018EF14F0690E206E000E216ECDEC16F05C
:102810000001FF6F110E176E100E186E000E1A6E6B
:10282000080E196EAFEC18F00001FF6FC8EF13F03F
:10283000C8EF13F007EF00F020EE04F01650D92691
:102840001750DA22DFA027EF14F029EF14F068EF19
:1028500014F0AC8A20EE04F01650D9261750DA2274
:10286000DFA235EF14F037EF14F03AEF14F09D8843
:1028700048EF14F020EE04F01650D9261750DA2253
:10288000DFB245EF14F047EF14F048EF14F09D98D5
:1028900020EE04F01650D9261750DA22DFA453EFA9
:1028A00014F055EF14F058EF14F0AC8C68EF14F0FE
:1028B00020EE04F01650D9261750DA22DFB463EF69
:1028C00014F065EF14F068EF14F0AC9C68EF14F0AE
:1028D000120020EE03F01650D9261750DA22DFA09E
:1028E00074EF14F076EF14F0B5EF14F0AB8820EE2F
:1028F00003F01650D9261750DA22DFA282EF14F027
:1029000084EF14F087EF14F09D8A95EF14F020EE19
:1029100003F01650D9261750DA22DFB292EF14F0E6
:1029200094EF14F095EF14F09D9A20EE03F01650FA
:10293000D9261750DA22DFA4A0EF14F0A2EF14F08A
:10294000A5EF14F0AB8CB5EF14F020EE03F01650A9
:10295000D9261750DA22DFB4B0EF14F0B2EF14F03A
:10296000B5EF14F0AB9CB5EF14F01200015002105B
:10297000D8B4BDEF14F0BFEF14F0D0EF14F001C0E5
:10298000D9FF02C0DAFFDF30E832E832070B036E0E
:10299000070E0364CEEF14F0D0EF14F0D2EF14F072
:1029A000FEEF14F001C0D9FF02C0DAFFDF30E832D9
:1029B000E832070B036E010E046E032AE2EF14F0F7
:1029C000D8900436032EE0EF14F001C0D9FF02C006
:1029D000DAFFDF50070B056E0550020DCA0EF32417
:1029E000D96E000EF420DA6EDECF06F0DDCF07F0F0
:1029F00006C0D9FF07C0DAFF0450DF1A1200F40E38
:102A0000F66E300EF76E000EF86E01EE00F010EE6E
:102A100069F00900F5CFEEFFE550E150FAE1AA0EAA
:102A2000F66E320EF76E000EF86E00EECAF010EE83
:102A300030F00900F5CFEEFFE550E150FAE13A0E33
:102A4000F66E340EF76E000EF86E00EE60F010EECB
:102A50000AF00900F5CFEEFFE550E150FAE101EE92
:102A600069F01E0EEE6AE806FDE100EE80F04A0E07
:102A7000EE6AE806FDE100EE47F0190EEE6AE806A0
:102A8000FDE16A906A920001B7EF13F0482AEE0E5A
:102A9000016E000E026E000E046E000E036EE1EC7D
:102AA00019F00001FF6F4804D8A459EF15F05BEF4F
:102AB00015F06DEF15F05E0E016E010E026E300E18
:102AC000046ED40E036E09EC18F00001FF6FBD50C8
:102AD000F00B0909BD6E88EF15F0020E4818D8A456
:102AE00074EF15F076EF15F088EF15F05E0E016EBD
:102AF000010E026E920E046E7C0E036E09EC18F04D
:102B00000001FF6FBD50F00B0809BD6E000E486E4E
:102B100012000F6EF2900F04D8A491EF15F093EF0E
:102B200015F0ABEF15F00001A451A511D8B49BEF3F
:102B300015F09DEF15F0C9EF15F002D8A9EF15F0CB
:102B40000500FA6EA451FD6EA551FE6EFF6AFA50A3
:102B50001200C9EF15F00F50D8A4B1EF15F0B3EF84
:102B600015F0C9EF15F00001A251A311D8B4BBEFC5
:102B700015F0BDEF15F0C9EF15F002D8C9EF15F04B
:102B80000500FA6EA251FD6EA351FE6EFF6AFA5067
:102B9000120012000F6EF2900F04D8A4D2EF15F0BD
:102BA000D4EF15F0ECEF15F00001A851A911D8B43D
:102BB000DCEF15F0DEEF15F00AEF16F002D8EAEFC1
:102BC00015F00500FA6EA851FD6EA951FE6EFF6A60
:102BD000FA5012000AEF16F00F50D8A4F2EF15F0D9
:102BE000F4EF15F00AEF16F00001A651A711D8B4C2
:102BF000FCEF15F0FEEF15F00AEF16F002D80AEF21
:102C000016F00500FA6EA651FD6EA751FE6EFF6A22
:102C1000FA50120012000F6EF2900F04D8A413EFB6
:102C200016F015EF16F02DEF16F00001AC51AD11B6
:102C3000D8B41DEF16F01FEF16F04BEF16F002D8C8
:102C40002BEF16F00500FA6EAC51FD6EAD51FE6E25
:102C5000FF6AFA5012004BEF16F00F50D8A433EF72
:102C600016F035EF16F04BEF16F00001AA51AB113C
:102C7000D8B43DEF16F03FEF16F04BEF16F002D848
:102C80004BEF16F00500FA6EAA51FD6EAB51FE6EC9
:102C9000FF6AFA50120012000F6EF2900F04D8A4CF
:102CA00054EF16F056EF16F06EEF16F00001B0512B
:102CB000B111D8B45EEF16F060EF16F08CEF16F09D
:102CC00002D86CEF16F00500FA6EB051FD6EB151EE
:102CD000FE6EFF6AFA5012008CEF16F00F50D8A467
:102CE00074EF16F076EF16F08CEF16F00001AE518F
:102CF000AF11D8B47EEF16F080EF16F08CEF16F01F
:102D000002D88CEF16F00500FA6EAE51FD6EAF5191
:102D1000FE6EFF6AFA5012001200010E236E205060
:102D20002110D8A496EF16F098EF16F09CEF16F04D
:102D3000000E236ECBEF16F054C024F020C0D9FF54
:102D400021C0DAFFDF500F0B226E24502218F80B3F
:102D50002218246E20C0D9FF21C0DAFFDF38070B0C
:102D6000226E22462246224624502218C70B2218E1
:102D7000246E249C20C0D9FF21C0DAFFDFAE02D030
:102D8000248E01D0249E240E166E000E176E010EA6
:102D9000186E0DEC12F023501200010E236E20501D
:102DA0002110D8A4D6EF16F0D8EF16F0DCEF16F00D
:102DB000000E236E0BEF17F053C024F020C0D9FF94
:102DC00021C0DAFFDF500F0B226E24502218F80BBF
:102DD0002218246E20C0D9FF21C0DAFFDF38070B8C
:102DE000226E22462246224624502218C70B221861
:102DF000246E249C20C0D9FF21C0DAFFDFAE02D0B0
:102E0000248E01D0249E240E166E000E176E000E26
:102E1000186E0DEC12F023501200010E0D6E0A50C8
:102E20000B10D8A416EF17F018EF17F01CEF17F0DF
:102E3000000E0D6E4BEF17F053C00EF00AC0D9FF15
:102E40000BC0DAFFDF500F0B0C6E0E500C18F80B96
:102E50000C180E6E0AC0D9FF0BC0DAFFDF38070B63
:102E60000C6E0C460C460C460E500C18C70B0C187A
:102E70000E6E0E9C0AC0D9FF0BC0DAFFDFAE02D087
:102E80000E8E01D00E9E0E0E016E000E026E000E12
:102E9000036EA3EC12F00D501200010E0D6E0A50DD
:102EA0000B10D8A456EF17F058EF17F05CEF17F09F
:102EB000000E0D6E8BEF17F054C00EF00AC0D9FF54
:102EC0000BC0DAFFDF500F0B0C6E0E500C18F80B16
:102ED0000C180E6E0AC0D9FF0BC0DAFFDF38070BE3
:102EE0000C6E0C460C460C460E500C18C70B0C18FA
:102EF0000E6E0E9C0AC0D9FF0BC0DAFFDFAE02D007
:102F00000E8E01D00E9E0E0E016E000E026E010E90
:102F1000036EA3EC12F00D501200010E276E245028
:102F20002510D8A496EF17F098EF17F09CEF17F044
:102F3000000E276EC9EF17F055C028F024C0D9FF46
:102F400025C0DAFFDF500F0B266E28502618F80B2D
:102F50002618286E24C0D9FF25C0DAFFDF38070BFA
:102F6000266E26462646264628502618C70B2618C3
:102F7000286E289C24C0D9FF25C0DAFFDFAE02D01E
:102F8000288E01D0289E280E206E000E216E44EC63
:102F900018F027501200010E0B6E08500910D8A42B
:102FA000D4EF17F0D6EF17F0DAEF17F0000E0B6E34
:102FB00007EF18F052C00CF008C0D9FF09C0DAFFC3
:102FC000DF500F0B0A6E0C500A18F80B0A180C6E23
:102FD00008C0D9FF09C0DAFFDF38070B0A6E0A46BE
:102FE0000A460A460C500A18C70B0A180C6E0C9CAD
:102FF00008C0D9FF09C0DAFFDFAE02D00C8E01D0C5
:103000000C9E0C0E016E000E026EB6EC14F00B500E
:103010001200010E066EB8C007F0B9C008F00150EA
:103020000210D8A416EF18F018EF18F01CEF18F0E3
:10303000000E066E42EF18F020EE03F00150D92684
:103040000250DA22DF50D8A428EF18F02AEF18F047
:1030500030EF18F007C0BEFF08C0BFFF42EF18F006
:1030600020EE03F00150D9260250DA22DE04D8A463
:103070003CEF18F03EEF18F042EF18F007C0BBFF2E
:1030800008C0BCFF0650120020502110D8B44BEFEE
:1030900018F04DEF18F05EEF18F020C0D9FF21C0F6
:1030A000DAFFDF30E832E832070B226E070E2264C7
:1030B0005CEF18F05EEF18F062EF18F0000E236E70
:1030C00078EF18F020C016F021C017F06BEC11F06B
:1030D000236E20C016F021C017F020C0D9FF21C0F8
:1030E000DAFF000EDFBE010E186E0DEC12F0236E3B
:1030F000235012000005520000543400000000323A
:103100003A030B131B232B333B800F810F820F835A
:103110000F840F64340000000000016434000201D9
:10312000DC0B02020A121A626A727A0000000505BC
:103130000002020A121A222A1634043471012834B9
:103140000100014180250001010000000000000095
:0D315000000001081200008C2A00000000A1
:10315E00010E1D6E000E1F6E000E1E6E000E1F6EF7
:10316E00000E1E6ECDEF18F01E5017241B6E1F5052
:10317E0018201C6E1BC0F6FF1CC0F7FFF86A080073
:10318E00F550F6EC19F01D6E1E4A1F2A19501E5CE2
:10319E001A501F58D8A0D6EF18F0D8EF18F0BBEF82
:1031AE0018F01D501200010E0001FE6F0101955125
:1031BE009611D8A4E5EF18F0E7EF18F0ECEF18F041
:1031CE00000E0001FE6F00EF19F0AB9E95C145F0A9
:1031DE0096C146F013EC08F095C116F096C117F0A3
:1031EE001CEC14F095C116F096C117F069EC14F0B2
:1031FE00AB8E0001FE5112009E9000019B51CF6ECE
:10320E009AC0CEFF9C519D11D8B410EF19F012EF59
:10321E0019F01EEF19F002D81EEF19F00500FA6E24
:10322E009C51FD6E9D51FE6EFF6AFA501200120007
:10323E00F29400019F51D76E9EC0D6FFA051A111EE
:10324E00D8B42CEF19F02EEF19F03AEF19F002D88E
:10325E003AEF19F00500FA6EA051FD6EA151FE6E07
:10326E00FF6AFA50120012009E9296C0CCFF000127
:10327E0098519911D8B446EF19F048EF19F054EF60
:10328E0019F002D854EF19F00500FA6E9851FD6E40
:10329E009951FE6EFF6AFA5012001200890F8A0FC2
:1032AE008B0F8C0F8D0F920F930F940F950F960F10
:1032BE00020A121A00C300005200011A1B1819103C
:1032CE00000000000010543400000000F0900001D7
:1032DE00B451B511D8B476EF19F078EF19F084EF38
:1032EE0019F002D884EF19F00500FA6EB451FD6E94
:1032FE00B551FE6EFF6AFA5012001200F2920001F2
:10330E00B651B711D8B48EEF19F090EF19F09CEFBB
:10331E0019F002D89CEF19F00500FA6EB651FD6E49
:10332E00B751FE6EFF6AFA50120012009E94000111
:10333E00BE51BF11D8B4A6EF19F0A8EF19F0B4EF33
:10334E0019F002D8B4EF19F00500FA6EBE51FD6EF9
:10335E00BF51FE6EFF6AFA50120012000001945126
:10336E009511D8B4BDEF19F0BFEF19F0CBEF19F0EE
:10337E0002D8CBEF19F00500FA6E9451FD6E9551FF
:10338E00FE6EFF6AFA5012001200010E186E9EAA0F
:10339E00D3EF19F0D5EF19F0DDEF19F016C0D9FF04
:1033AE0017C0DAFFAECFDFFFDFEF19F0000E186E99
:1033BE0018501200010E056E01500210D8A4EAEF4B
:1033CE0019F0ECEF19F0F0EF19F0000E056EF4EFB6
:1033DE0019F00450B36E03C0B2FF05501200166E02
:1033EE00ACA2FCEF19F0FEEF19F0F7EF19F016C0D2
:1033FE00ADFF010E1200690E0A6E000E0B6E0DEC83
:10340E0017F00001FF6F1200690E0A6E000E0B6EB0
:10341E004DEC17F00001FF6F1200690E086E000EE2
:10342E00096ECBEC17F00001FF6F12001237173B3D
:10343E001701010101020001884B892B12000001C6
:10344E008A4B8B2B12000001824B832B1200A19012
:08345E0012009E9C12001200F6
:020000040020DA
:08000000FFFFFFFFFFFFFFFF00
:020000040030CA
:0E000000FF02091EFF8181FF0FC00FE00F40BD
:00000001FF
